:100000000C9436000C94660D0C948D0D0C945E00CF
:100010000C945E000C945E000C945E000C945E00E8
:100020000C945E000C945E000C945E000C945E00D8
:100030000C945E000C945E000C945E000C945E00C8
:100040000C94090C0C945E000C94730E0C94A50E89
:100050000C945E000C945E000C945E000C945E00A8
:100060000C945E000C945E00600DCB0E11241FBE3C
:10007000CFEFD8E0DEBFCDBF13E0A0E0B1E0E2EF0C
:10008000F0E202C005900D92A63CB107D9F726E038
:10009000A6ECB3E001C01D92AD3FB207E1F710E05E
:1000A000C6E3D0E004C02197FE010E946210C43371
:1000B000D107C9F70E94510D0C942B100C9400002D
:1000C000E2E10E9405010895E9E00E94050108951A
:1000D000EAE00E9405010895E1E00E94050108950B
:1000E000E3E00E9405010895E7E00E9405010895FC
:1000F000E5E00E9405010895E0E00E9405010895F1
:10010000E2E00E9405010895E4E00E9405010895DF
:10011000ECE00E9405010895E8E00E9405010895C1
:10012000EEE00E9405010895E4E10E9405010895B2
:10013000E0E10E9405010895E7E10E9405010895AC
:10014000E6E00E9405010895EBE00E940501089594
:10015000EDE00E9405010895EFE00E940501089579
:10016000E1E10E9405010895E3E10E94050108957F
:10017000E5E10E9405010895E6E10E940501089568
:1001800021968A929A92AA92BA92CA92DA92EA92A4
:10019000FA920A931A932197E0916901F0916A010A
:1001A0000080F181E02DC083D1830895C0916B015F
:1001B000D0916C01E881F981C081D181219619919A
:1001C0000991F990E990D990C990B990A990999026
:1001D0008990219708952F903F90E7E6F1E0CDB701
:1001E000DEB7EDBFFEBF3F922F9208952F903F9054
:1001F000CDBFDEBF3F922F920895E0E80E94050137
:100200000895E0E40E94050108952F923F924F92D5
:100210005F926F927F922FB62F92CF93DF937E2EB5
:10022000F894E0910001EF5FE0930001E13011F4F8
:100230000E94EB00E0E0E0937901E72DE07849F0DF
:100240000E949005F0917A01F17071F00E94120401
:100250000BC0E72DEC3140F4EE0FF0E0EC58FC4F12
:100260000190F081E02D0995F0917901EF2FE17077
:1002700059F0F27011F00E94C0008F938F2F0E94EE
:100280005A038F910E94D6002091000121502093A3
:100290000001222311F40E94F600DF91CF912F90EC
:1002A0002FBE7F906F905F904F903F902F9008955A
:1002B000CF92DF92EF92FF920F931F93DC01EC91AC
:1002C000DB012C918E2F8170C82ED12CE12CF12CCA
:1002D0008E2F8F7090E0A0E0B0E0B695A79597952F
:1002E0008795DC01AB51BC4F8C91C81AD108E1084D
:1002F000F108EE70422F417050E060E070E0822F14
:100300008F7090E0A0E0B0E0B695A795979587959F
:10031000DC01AB51BC4F8C91481B5109610971093B
:10032000822F8E70970186010170112722273327B3
:100330000E2B4170552766277727482B81E090E0E8
:10034000041715072607370710F080E090E01F918B
:100350000F91FF90EF90DF90CF9008958F929F9232
:10036000AF92BF92EF92FF920F931F93CF93DF93C1
:100370007C014A015B01B694A7949794879442301C
:10038000510561057105E0F0440F551F8701040F09
:10039000151FE401CC0FDD1FCE0DDF1DB801CE010E
:1003A0000E945801892B61F0F80190818181288198
:1003B00039813183208398838983B501A401DBCF00
:1003C000DF91CF911F910F91FF90EF90BF90AF9071
:1003D0009F908F9008954F925F926F927F928F922D
:1003E0009F92AF92BF92CF92DF92EF92FF920F93C4
:1003F0001F93CF93DF9300D000D000D0CDB7DEB7EE
:100400008C016A017B01DC018C91282F30E040E0F7
:1004100050E029833A834B835C8346015701880C63
:10042000991CAA1CBB1C29813A814B815C8128152F
:1004300039054A055B0508F442C0240135013FEF48
:10044000431A530A630A730A89819A81AB81BC817A
:1004500084159505A605B70580F0B201660F771FD4
:10046000600F711FC401880F991F800F911F0E9498
:100470005801892B11F0530142013401660C771C9D
:10048000600E711ECC0CDD1CD801AC0DBD1DBE83F1
:10049000AD83B301CD010E945801892B81F0ED811C
:1004A000FE8190818181D3012D913C9111973183FF
:1004B00020839C9311968C9375016401AECF269690
:1004C0000FB6F894DEBF0FBECDBFDF91CF911F9165
:1004D0000F91FF90EF90DF90CF90BF90AF909F90E3
:1004E0008F907F906F905F904F900895EFE9F4E0C8
:1004F00040814F5F408350E060E070E0E82FEE0FF6
:10050000FF0BEA5EFC4F0190F081E02D238530E087
:10051000F901EB51FC4F908191509083FA01EE0F5D
:10052000FF1FE156FB4F220F331F9170292B2083B1
:1005300081838FE994E00C94AE01EFE9F4E040810F
:100540004F5F408350E060E070E0E82FEE0FFF0B5C
:10055000E45FFC4F0190F081E02D9381FA01EE0FF2
:10056000FF1FE156FB4F908381838FE994E00C9449
:10057000AE01CF93DF93EFE9F4E080819FEF980F16
:100580009083D281C38190E0880F991FDC01A1562E
:10059000BB4F8D919C919383828341E050E060E05A
:1005A00070E0CF010E94EB018D2F9C2FDF91CF9146
:1005B00008958091C603811114C0809171019091BA
:1005C0007201A0917301B09174018F3F2FEF9207D8
:1005D000A207B20741F00497A105B10534F481E008
:1005E000089584E0089580E0089582E00895880FDA
:1005F000990BFC01EA5EFC4F0190F081E02D008434
:10060000F185E02D3097E9F0228121111AC021E017
:100610002283DC01A45FBC4F0D90BC91A02D1396EA
:100620008C9113978183808190E0FC01EB51FC4F0A
:10063000208121502083880F991F2170822B1396CF
:100640008C930895880F990BFC01EA5EFC4F019092
:10065000F081E02D0084F185E02D309761F022815A
:10066000213049F412822181FC01E45FFC4F0190AA
:10067000F081E02D2383089580917501909176019A
:10068000A0917701B0917801409171015091720170
:100690006091730170917401481759076A077B07CD
:1006A00041F0E0916F01F091700121E024830C94FE
:1006B0009D020895CF93DF93882391F0C091690143
:1006C000D0916A01E0916D01F0916E0184818330D7
:1006D00049F081E08483809171010E949D0202C0F3
:1006E000C0E0D0E0E0916F01F0917001F0936E01F5
:1006F000E0936D0180916B0190916C0190936A0180
:100700008093690180917501309176012091770184
:10071000909178018093710130937201209373015D
:100720009093740192E094830E94F702CE01DF91CE
:10073000CF910895809171010E942203E0916D0193
:10074000F0916E018281882319F085E084830895F9
:1007500014820895CF93DF93282F220F330BF901D2
:10076000E45FFC4FC081D1819A81F901EA5EFC4FC0
:100770000190F081E02D2485921770F4911105C04D
:1007800095E09C8391E090937A010E9476028A81A1
:100790008F5F8A8380E001C084E0DF91CF9108956C
:1007A000E82FEE0FFF0BE45FFC4F0190F081E02D8E
:1007B000118210820C940B0D1F93CF93DF930E9434
:1007C000B902182F892F492F092E000C550B660BE3
:1007D000770B409375015093760160937701709386
:1007E0007801292F220F330BF901E45FFC4FC08100
:1007F000D181D0937001C0936F01F901EA5EFC4F83
:100800002081318130936C0120936B019C81953064
:1008100019F40E94D0031B8310927A01DF91CF91CB
:100820001F910895E0917501F0917601EE0FFF1F81
:10083000E45FFC4F0190F081E02D9091A104838151
:10084000891730F40E943C030E94DC0383E001C05E
:1008500080E080937901089581E0809379010C9480
:10086000DC03EF92FF920F931F93CF93DF93C1E0CE
:1008700001C0CC0F8A95EAF720911E0330911F0327
:10088000809114039091150310929F0410926A01B5
:100890001092690130936C0120936B0110926E01EC
:1008A00010926D019093700180936F018FEF9FEF15
:1008B000DC018093710190937201A0937301B09356
:1008C00074018093750190937601A0937701B093A2
:1008D00078011092790110927A0184E00E94AA03B3
:1008E0000FE613E0D0E0F80181918F018C2319F01D
:1008F0008D2F0E94AA03DF5FD430A9F70BE613E027
:1009000080EEE82E82E0F82ED1E0F80181918F018F
:100910008C2339F0F70180819181FC01D6870E94F8
:10092000C904F2E0EF0EF11C83E00F36180769F7F7
:10093000DF91CF911F910F91FF90EF9008950E944A
:10094000770681110E949806E0916D01F0916E0189
:1009500080819181892B21F0809171010E945F0833
:100960000C94C0070E94770681110E949806E091BE
:100970006D01F0916E0180819181892B21F0809130
:1009800071010E945F080C94A80781E08093C7035F
:100990000895AF92BF92CF92DF92EF92FF920F93A2
:1009A0001F93CF93DF93FC01A081B181AD90BC90E8
:1009B000E501AC89BD89109739F04285538564857E
:1009C000758530E020E017C0D50155969C938E9335
:1009D000549757969C938E93569715821482138240
:1009E00012825BC012968D919C9113973A2F2B2FF8
:1009F000009779F0DC011A96CD90DD90ED90FC9097
:100A00001D974C155D056E057F0560F7CD01A32F81
:100A1000B22F93838283B583A483009719F0EC01EE
:100A2000FD83EC83109729F01396FC93EE931297B5
:100A300005C0D5015596FC93EE935497E501AE8918
:100A4000BF891A968D919D910D90BC91A02D08891A
:100A500019892A893B8980179107A207B30780F477
:100A6000041715072607370728F0481759076A079C
:100A70007B0798F4D5015796FC93EE9356970DC0DB
:100A8000041715072607370740F4481759076A0760
:100A90007B0718F4E501FF8BEE8BDF91CF911F915F
:100AA0000F91FF90EF90DF90CF90BF90AF9008959F
:100AB000CF93DF93DC01ED91FC9111970190F081D0
:100AC000E02D848995891296CD91DC911397A81712
:100AD000B90711F4D58BC48B86899789A817B907F4
:100AE00011F4D78BC68B209731F014968D919C9181
:100AF00015979D838C8314960D90BC91A02D109713
:100B000021F01396DC93CE93129786899789892BCF
:100B100021F484899589978B868BDF91CF910895F5
:100B2000EF92FF920F931F93CF93DF93FC0180917D
:100B3000C703882309F4B5C084859585A685B78544
:100B40000196A11DB11D84879587A687B78740812F
:100B500051816281738184179507A607B70709F051
:100B6000A0C040895189628973894F5F5F4F6F4F81
:100B70007F4F84819581A681B78184179507A60749
:100B8000B70718F440E050E0BA01408B518B628BFC
:100B9000738B1486158616861786C689D789209783
:100BA00009F47FC08A859B85AC85BD8548175907A8
:100BB0006A077B0709F075C0CE01DC011296ED9043
:100BC000FC901397E114F10471F0D7011A960D917E
:100BD0001D912D913C911D97401751076207730796
:100BE00011F4C701EACF2C813D812115310529F08F
:100BF000D9011396FC92EE921297E114F10429F0B8
:100C0000D70115963C932E93149724893589C217E2
:100C1000D30711F4F58AE48AE114F10419F0F78A94
:100C2000E68A04C024893589378B268B8F01FC0125
:100C300013821282EA80FB80E881F9810280F381CD
:100C4000E02DCE0109954E815F816885798541153A
:100C500051056105710509F18A859B85AC85BD85C6
:100C6000840F951FA61FB71FF80144815581668127
:100C70007781481759076A077B0738F4841B950B5F
:100C8000A60BB70B0197A109B1098A879B87AC878F
:100C9000BD87CE010E94C90401C01E86E7012097CE
:100CA00049F6DF91CF911F910F91FF90EF9008953A
:100CB000FC0182810C94AA030E947706809168014E
:100CC0000895809368010E9431040E94C5040C9429
:100CD0002C040C940A0DCF93C82F0E94D9028111C5
:100CE00002C00E94470D8C2FCF910C94640080911C
:100CF000D4038130D9F08091CC039091CD03A091A1
:100D0000CE03B091CF03892B8A2B8B2B79F481E012
:100D10004091D0035091D1036091D2037091D303DD
:100D2000452B462B472B19F480E0089581E0089568
:100D30001092D4031092D0031092D1031092D203D8
:100D40001092D3031092CC031092CD031092CE03D5
:100D50001092CF038091C8039091C903A091CA0358
:100D6000B091CB038093D5039093D603A093D70380
:100D7000B093D80308950E944A0D8091D5039091B5
:100D8000D603A091D703B091D8030196A11DB11D40
:100D90008093D5039093D603A093D703B093D80341
:100DA0008091D0039091D103A091D203B091D3034D
:100DB0000196A11DB11D8093D0039093D103A09300
:100DC000D203B093D30308958091D0039091D103BF
:100DD000A091D203B091D3030097A105B10569F1A9
:100DE0004091D5035091D6036091D7037091D803F9
:100DF00041505109610971094093D5035093D603BD
:100E00006093D7037093D8030197A109B109809328
:100E1000D0039093D103A093D203B093D3038091D6
:100E2000D5039091D603A091D703B091D803892B15
:100E30008A2B8B2B11F40C94480D08958091D003CC
:100E40009091D103A091D203B091D303892B8A2B27
:100E50008B2B89F48091CC039091CD03A091CE038C
:100E6000B091CF03892B8A2B8B2B29F40E944A0D3A
:100E700081E08093D40308958091D403882321F0E6
:100E80001092D4030C94480D08950E944E0D809149
:100E9000D5039091D603A091D703B091D8030196C2
:100EA000A11DB11D8093D5039093D603A093D703C2
:100EB000B093D8038091CC039091CD03A091CE0341
:100EC000B091CF030196A11DB11D8093CC039093E7
:100ED000CD03A093CE03B093CF0308958091CC03AC
:100EE0009091CD03A091CE03B091CF030097A105BF
:100EF000B10569F14091D5035091D6036091D703B4
:100F00007091D80341505109610971094093D5038B
:100F10005093D6036093D7037093D8030197A10928
:100F2000B1098093CC039093CD03A093CE03B093EB
:100F3000CF038091D5039091D603A091D703B091B0
:100F4000D803892B8A2B8B2B11F40C944C0D08950C
:100F50000E947706882311F083E1089580E00895C8
:100F6000CF93C82F0E9477068C2F0E94AA03C82F08
:100F700080917A0181110E9412048C2FCF910895E3
:100F8000CF930E947706882311F0C3E101C0C0E02F
:100F9000E0916D01F0916E018281815082830E9407
:100FA0009A0381E0809379010E94DC038C2FCF911A
:100FB0000895CF93C82F0E947706E0916D01F091BC
:100FC0006E018281815082838C2F0E94AA03C82FD8
:100FD000811108C00E949A0381E0809379010E94E8
:100FE000DC0307C0E0916D01F0916E0182818F5F9B
:100FF00082838C2FCF910895CF930E947706882308
:1010000011F0C3E101C0C0E0809171010E94220390
:101010000E9412048091710190917201A09173015C
:10102000B091740140917501509176016091770102
:101030007091780184179507A607B70711F40E94ED
:10104000F7028C2FCF910895CF93DF93EC010E948C
:101050007706882311F083E101C080E0409171019F
:101060005091720160917301709174014430510587
:101070006105710514F4488303C09091EC019883D5
:10108000DF91CF9108950F931F93CF93C82F8B01BA
:101090000E947706882311F083E101C080E0EC2FE5
:1010A000EE0FFF0BE45FFC4F0190F081E02D948187
:1010B0009370F8019083CF911F910F910895880F3D
:1010C000990BFC01E45FFC4FA081B181ED91FC9193
:1010D0001197309769F01D921C922091EC01938139
:1010E0008481228314821382E92FF82F3097B9F775
:1010F0000895CF93C82F0E947706882311F083E1CB
:1011000001C080E0EC2FF0E0EE0FFF1FEA59FC4F2A
:10111000A081B1819091710112969C931297E091F8
:101120006D01F0916E012081318114963C932E93D4
:101130001397B183A083938111969C9311972C915F
:1011400093819695921760F430E0D901AB51BC4F72
:101150009C9191509C93220F331F9170292B2383D4
:10116000CF910895CF93DF93C82F0E9477068823ED
:1011700011F0D3E101C0D0E0EC2FF0E0EE0FFF1F43
:10118000EA59FC4F0190F081E02DA0916D01B091E2
:101190006E01818113968C931397838194818D9333
:1011A0009C93148213828091EC0182830E9412042A
:1011B0008D2FDF91CF910895DC01ED91FC91848119
:1011C0009581DC01ED91FC9109941F93CF93DF93FE
:1011D000182FEB010E947706882311F083E101C0EC
:1011E00080E0E12FF0E0EE0FFF1FE052FD4F019095
:1011F000F081E02D0190F081E02D0190F081E02D53
:1012000040815181628173814C835D836E837F83D2
:101210004481558166817781488359836A837B83C2
:101220004085518562857385488759876A877B87A2
:10123000DF91CF911F9108958F929F92AF92BF92AD
:10124000CF92DF92EF92FF920F931F93CF93C82F0D
:101250008B010E947706882311F083E101C080E0B2
:10126000EC2FF0E0EE0FFF1FE052FD4F0190F081F8
:10127000E02D9685913029F54285538564857585E5
:101280000190F081E02D0190F081E02DC088D1889F
:10129000E288F3884C155D056E057F0540F4848077
:1012A0009580A680B780480D591D6A1D7B1D4C197D
:1012B0005D096E097F09F80140835183628373835E
:1012C00001C085E0CF911F910F91FF90EF90DF90CB
:1012D000CF90BF90AF909F908F9008958F929F92E4
:1012E000AF92BF92CF92DF92EF92FF920F931F9334
:1012F000CF93DF93D82F4A015B01680179010E94E7
:101300007706882311F0C3E101C0C0E0ED2FF0E0C3
:10131000EE0FFF1FE052FD4F0190F081E02D86851A
:10132000811130C0A081B1810D90BC91A02D50964B
:101330004D915D916D917C915397480D591D6A1D9A
:101340007B1D14968D919D910D90BC91A02D8417BD
:101350009507A607B70740F4481B590B6A0B7B0B90
:101360004150510961097109428753876487758724
:10137000C682D782E086F18681E08687CF010E940F
:10138000C90401C0C7E08C2FDF91CF911F910F914D
:10139000FF90EF90DF90CF90BF90AF909F908F9095
:1013A00008958F929F92AF92BF92CF92DF92EF9269
:1013B000FF920F931F93CF93DF93C82F4A015B01D6
:1013C000680179010E947706882311F0D3E101C0FA
:1013D000D0E0EC2FF0E0EE0FFF1FE052FD4F019048
:1013E000F081E02D868581110EC082869386A486C9
:1013F000B586C682D782E086F18681E08687CF01F6
:101400000E94C90401C0D7E08D2FDF91CF911F91B9
:101410000F91FF90EF90DF90CF90BF90AF909F9093
:101420008F9008950F931F93CF93DF93C82F0E943F
:101430007706882311F0D3E101C0D0E0EC2FF0E073
:10144000EE0FFF1FE052FD4F00811181F8018685EC
:10145000813031F4C8010E945805F801168601C098
:10146000D5E08D2FDF91CF911F910F91089526E048
:1014700040E855E260E070E08AEF93E00E94C60F1A
:1014800064E670E080E090E00E94920C6DEE71E006
:101490008AEF93E00E94F90D809173030C946B0620
:1014A0008F929F92AF92BF92CF92DF92EF92FF9274
:1014B00028EF31E0DC010E9450104B015C01C12C8F
:1014C000D12C7601C814D904EA04FB0449F00E9427
:1014D000610CA8958FEFC81AD80AE80AF80AF2CF6B
:1014E000FF90EF90DF90CF90BF90AF909F908F9044
:1014F00008958F929F92AF92BF92CF92DF92EF9218
:10150000FF928091E1039091E203A091E303B091F7
:10151000E4039C01AD012F5F3F4F4F4F5F4F20937E
:10152000E1033093E2034093E3035093E403A8EE16
:10153000B3E00E9457104B015C010E94610C6B01EB
:101540007C0160E072E08AEF93E00E94F30D2AE0F4
:1015500030E0B701A6018AEF93E00E94610E88ECAB
:1015600090E00E94500A0E94610C6B017C0186167B
:101570009706A806B90618F562E172E08AEF93E0D3
:101580000E94F30D2AE030E0B501A4018AEF93E058
:101590000E94540E60E372E08AEF93E00E94F30D24
:1015A0002AE030E0B701A6018AEF93E00E94540ED2
:1015B00062E472E08AEF93E00E94F90D0EC067E4E6
:1015C00072E08AEF93E00E94F30D2AE030E0B70169
:1015D000A6018AEF93E00E94610EFF90EF90DF90EA
:1015E000CF90BF90AF909F908F900C948C008F9273
:1015F0009F92AF92BF92CF92DF92EF92FF92809133
:10160000DD039091DE03A091DF03B091E0039C0124
:10161000AD012F5F3F4F4F4F5F4F2093DD0330935E
:10162000DE034093DF035093E003ACEDB5E00E948E
:1016300057104B015C010E94610C6B017C016AE553
:1016400072E08AEF93E00E94F30D2AE030E0B701E8
:10165000A6018AEF93E00E94610E8CEB92E00E945B
:10166000500A0E94610C6B017C0186169706A80641
:10167000B90618F56CE672E08AEF93E00E94F30D6C
:101680002AE030E0B501A4018AEF93E00E94540EF5
:1016900060E372E08AEF93E00E94F30D2AE030E00D
:1016A000B701A6018AEF93E00E94540E62E472E053
:1016B0008AEF93E00E94F90D0EC06AE872E08AEFAB
:1016C00093E00E94F30D2AE030E0B701A6018AEF13
:1016D00093E00E94610EFF90EF90DF90CF90BF905B
:1016E000AF909F908F900C948C008F929F92AF92AE
:1016F000BF92CF92DF92EF92FF928091D9039091A7
:10170000DA03A091DB03B091DC039C01AD012F5FF4
:101710003F4F4F4F5F4F2093D9033093DA034093ED
:10172000DB035093DC03A0EFBAE00E9457104B019B
:101730005C010E94610C6B017C016DE972E08AEF33
:1017400093E00E94F30D2AE030E0B701A6018AEF92
:1017500093E00E94610E8CE291E00E94500A0E9488
:10176000610C6B017C0186169706A806B90618F570
:101770006FEA72E08AEF93E00E94F30D2AE030E016
:10178000B501A4018AEF93E00E94540E60E372E079
:101790008AEF93E00E94F30D2AE030E0B701A60142
:1017A0008AEF93E00E94540E62E472E08AEF93E0C5
:1017B0000E94F90D0EC06DEC72E08AEF93E00E947A
:1017C000F30D2AE030E0B701A6018AEF93E00E9412
:1017D000610EFF90EF90DF90CF90BF90AF909F9001
:1017E0008F900C948C0080916A030E94BC008091C1
:1017F00069030E94BC00809168030E94BC0080E0E5
:101800000E9468000C948C008BEC91E00C94FD001D
:1018100008951F920F920FB60F9211242F933F93AA
:101820004F935F936F937F938F939F93AF93BF93E8
:10183000EF93FF938091F1039091F203A091F30352
:10184000B091F4033091F00323E0230F2D3720F4FF
:101850000196A11DB11D05C026E8230F0296A11D0A
:10186000B11D2093F0038093F1039093F203A093B2
:10187000F303B093F4038091F5039091F603A091E4
:10188000F703B091F8030196A11DB11D8093F503F4
:101890009093F603A093F703B093F8030E94040C0F
:1018A000FF91EF91BF91AF919F918F917F916F9138
:1018B0005F914F913F912F910F900FBE0F901F900E
:1018C00018952FB7F8946091F1037091F20380910D
:1018D000F3039091F4032FBF08953FB7F8948091DC
:1018E000F5039091F603A091F703B091F80326B5A4
:1018F000A89B05C02F3F19F00196A11DB11D3FBF48
:10190000BA2FA92F982F8827820F911DA11DB11DD5
:10191000BC01CD0142E0660F771F881F991F4A95D1
:10192000D1F708958F929F92AF92BF92CF92DF929C
:10193000EF92FF926B017C010E946D0C4B015C01E8
:10194000C114D104E104F10401F10E94080D0E94C8
:101950006D0CDC01CB0188199909AA09BB09883EE5
:101960009340A105B10560F321E0C21AD108E10856
:10197000F10888EE880E83E0981EA11CB11CC114EA
:10198000D104E104F10419F7DBCFFF90EF90DF9071
:10199000CF90BF90AF909F908F90089584B5826054
:1019A00084BD84B5816084BD85B5826085BD85B503
:1019B000816085BDEEE6F0E0808181608083E1E8B2
:1019C000F0E01082808182608083808181608083EA
:1019D000E0E8F0E0808181608083E1EBF0E08081ED
:1019E00084608083E0EBF0E0808181608083EAE7BF
:1019F000F0E0808184608083808182608083808148
:101A0000816080838081806880831092C100089506
:101A10000895FFCFFFCFCF93DF93880F990BFC0181
:101A2000EA5EFC4FC081D181AC81BD8111978A8172
:101A30009B81A80FB91F2D85CD010197FD0132971C
:101A4000223019F424E830E002C020EA30E02C9380
:101A5000DC013C939E818F819083DF018E93CF01C7
:101A600007971E928A179B07E1F780E8DF01189716
:101A70008C93CF0144971E928A179B07E1F7A881A8
:101A8000B9817597ED93FC93DF91CF9108950895F7
:101A900078940895F894089578940895F8940895A2
:101AA00008950E94CE0C0E94500D0E94080C0E94C6
:101AB000370A8091F9030E946B0680E090E0089558
:101AC000809173038093F903089508951F920F92F4
:101AD0000FB60F9211242F933F934F935F936F9301
:101AE0007F938F939F93AF93BF93EF93FF93E09177
:101AF000E801F091E9010995FF91EF91BF91AF9154
:101B00009F918F917F916F915F914F913F912F9115
:101B10000F900FBE0F901F9018951F920F920FB647
:101B20000F9211242F933F934F935F936F937F9363
:101B30008F939F93AF93BF93EF93FF93E091EA014D
:101B4000F091EB010995FF91EF91BF91AF919F91BA
:101B50008F917F916F915F914F913F912F910F9056
:101B60000FBE0F901F901895CF92DF92EF92FF92C9
:101B70000F931F93CF93DF936C017A018B01C0E029
:101B8000D0E0CE15DF0581F0D8016D918D01D60131
:101B9000ED91FC910190F081E02DC6010995892B12
:101BA00011F02196EECF7E01C701DF91CF911F91F9
:101BB0000F91FF90EF90DF90CF9008956115710520
:101BC00079F0FB0101900020E9F73197AF01461B46
:101BD000570BDC01ED91FC910280F381E02D09941B
:101BE00080E090E008950C94DE0D64EA73E00C94BC
:101BF000DE0D0F931F93CF93DF93EC010E94DE0D58
:101C00008C01CE010E94F50D800F911FDF91CF91C5
:101C10001F910F9108958F929F92AF92BF92EF9272
:101C2000FF920F931F93CF93DF93CDB7DEB7A197AA
:101C30000FB6F894DEBF0FBECDBF7C01FA01CB0119
:101C400019A2223008F42AE08E010F5D1F4F822E68
:101C5000912CA12CB12CBF01A50194010E942E1042
:101C6000F901CA01015011096A3014F4605D01C024
:101C7000695CD8016C93232B242B252B61F7B801C9
:101C8000C7010E94DE0DA1960FB6F894DEBF0FBE0D
:101C9000CDBFDF91CF911F910F91FF90EF90BF903B
:101CA000AF909F908F9008952115310541F4DC018C
:101CB000ED91FC910190F081E02D642F09940C943A
:101CC0000B0E0F931F93CF93DF93EC010E94540EE2
:101CD0008C01CE010E94F50D800F911FDF91CF91F5
:101CE0001F910F9108951F920F920FB60F9211241A
:101CF0002F938F939F93EF93FF93E0910A04F091BA
:101D00000B048081E0911004F091110482FD12C057
:101D10009081809113048F5F8F7320911404821738
:101D200051F0E0911304F0E0E650FC4F958F809362
:101D3000130401C08081FF91EF919F918F912F91AA
:101D40000F900FBE0F901F9018951F920F920FB615
:101D50000F9211242F933F934F935F936F937F9331
:101D60008F939F93AF93BF93EF93FF938AEF93E08B
:101D70000E94350FFF91EF91BF91AF919F918F918D
:101D80007F916F915F914F913F912F910F900FBE77
:101D90000F901F901895EAEFF3E01382128288EEFD
:101DA00093E0A0E0B0E084839583A683B78387EBBC
:101DB00093E09183808385EC90E09587848784EC21
:101DC00090E09787868780EC90E0918B808B81EC08
:101DD00090E0938B828B82EC90E0958B848B86ECE9
:101DE00090E0978B868B118E128E138E148E089531
:101DF000FC01918D228D892F90E0805C9F4F821B8A
:101E000091098F7399270895FC01918D828D981700
:101E100031F0828DE80FF11D858D90E008958FEFF0
:101E20009FEF0895FC01918D828D981761F0828D4E
:101E3000DF01A80FB11D5D968C91928D9F5F9F73FE
:101E4000928F90E008958FEF9FEF0895FC01538DDE
:101E5000448D252F30E0842F90E0821B930B541784
:101E600010F0CF96089501970895FC01848DDF014D
:101E7000A80FB11DA35ABF4F2C91848D90E00196FD
:101E80008F739927848FA689B7892C93A089B189EC
:101E90008C91837080648C93938D848D981306C08D
:101EA0000288F389E02D80818F7D80830895EF92F1
:101EB000FF920F931F93CF93DF93EC0181E0888F04
:101EC0009B8D8C8D981305C0E889F989808185FDEB
:101ED00026C0F62E0B8D10E00F5F1F4F0F731127DA
:101EE000E02E8C8DE8120CC00FB607FCFACFE88903
:101EF000F989808185FFF5CFCE010E94350FF1CFA2
:101F00008B8DFE01E80FF11DE35AFF4FF0829FB762
:101F1000F8940B8FEA89FB89808180620AC09FB7A1
:101F2000F894EE89FF896083E889F989808183705C
:101F3000806480839FBF81E090E0DF91CF911F910B
:101F40000F91FF90EF900895CF93DF93EC01888D70
:101F50008823C9F0EA89FB89808185FD05C0A889AD
:101F6000B9898C9186FD0FC00FB607FCF5CF808133
:101F700085FFF2CFA889B9898C9185FFEDCFCE017D
:101F80000E94350FE7CFDF91CF910895CF92DF9276
:101F9000EF92FF921F93CF93DF93EC016A017B01D5
:101FA000122FE889F98982E080834115514E61053D
:101FB0007105B1F060E079E08DE390E0A701960152
:101FC0000E942E10DA01C9010197A109B109B69545
:101FD000A795979587959C01211580E13807A8F072
:101FE000E889F989108260E874E88EE190E0A70141
:101FF00096010E942E10DA01C9010197A109B109C9
:10200000B695A795979587959C01EC85FD853083BE
:10201000EE85FF852083188EEC89FD891083EA897F
:10202000FB89808180618083EA89FB898081886067
:102030008083EA89FB89808180688083EA89FB89C3
:1020400080818F7D8083DF91CF911F91FF90EF90F2
:10205000DF90CF900895F8940C947710A1E21A2E97
:10206000AA1BBB1BFD010DC0AA1FBB1FEE1FFF1F3C
:10207000A217B307E407F50720F0A21BB30BE40B8C
:10208000F50B661F771F881F991F1A9469F76095D3
:102090007095809590959B01AC01BD01CF0108958D
:1020A0000E946810B7FF0895821B930B08950E9449
:1020B0006810A59F900DB49F900DA49F800D911D59
:1020C00011240895EE0FFF1F0590F491E02D09945F
:1020D000A29FB001B39FC001A39F700D811D112469
:1020E000911DB29F700D811D1124911D0895F894CA
:0220F000FFCF20
:1020F20000000000000000000000000000000000DE
:1021020000000000000000000000000000000000CD
:1021120000000000000000000000000000000000BD
:1021220000000000000000000000000000000000AD
:10213200000000000000000000000000000000009D
:10214200000000000000000000000000000000008D
:102152000000000000000000FF000058030000EB38
:1021620003FFFFFFFFFFFFFFFF0000E80200000088
:10217200000000000060EA000002F102000000001E
:10218200F00A0000F00A000002FA0200000000DC7F
:10219200050000DC05000002030300000000E80364
:1021A2000000E80300000200000004000000000339
:1021B200040000000204000000010401000000FF0E
:1021C200FF0000010000000000000000000000000D
:1021D2000000000500FF0000650D650DFF537973D7
:1021E20074656D207374617274696E672E2E2E0091
:1021F20053746172746564205461736B412061741D
:1022020020005461736B41206D69737365642069AA
:10221200747320646561646C696E65206F6620006A
:10222200206D73202866696E697368656420617425
:102232002000206D73290046696E69736865642009
:102242005461736B41206174200053746172746530
:1022520064205461736B4220617420005461736B7B
:1022620042206D69737365642069747320646561CB
:10227200646C696E65206F66200046696E697368DA
:102282006564205461736B42206174200053746151
:1022920072746564205461736B432061742000542E
:1022A20061736B43206D6973736564206974732075
:1022B200646561646C696E65206F66200046696EB4
:1022C2006973686564205461736B432061742000F4
:1022D200A80199018A017B01CB01DC08EE025806B4
:1022E20003CB01DC08F702580600CB01DC0800032F
:1022F200580601CB01DC080903580602C601C101D8
:10230200BC01B701EB034A033C032E03200358032D
:102312009D04FD058000F30B0000030401009904F5
:102322002D058000790A0000020301009704AB0426
:102332008000F70A0000010201009B047D06800074
:10234200750B0000000101002B05AD055000090DC1
:10235200000004000100E30102010001010101018A
:10236200010100006E073C0745071E07B204BB06C9
:102372009F04E406C007610669067908B007B2083F
:10238200D907E50824081C095C066E09FC07D10977
:10239200120A43080D0A006E616E00696E66006FD4
:1023A20076660000000000570FB40D260FA40FF848
:0623B2000E120F040F00E3
:00000001FF
