:100000000C945E000C94430D0C946A0D0C948600C5
:100010000C9486000C9486000C9486000C94860048
:100020000C9486000C9486000C9486000C94860038
:100030000C9486000C9486000C9486000C94860028
:100040000C94380C0C9486000C94A40E0C94D60ED0
:100050000C9486000C9486000C9486000C94860008
:100060000C9486000C948600000000080002010039
:100070000003040700000000000000000102040863
:100080001020408001020408102001020408102002
:10009000040404040404040402020202020203032E
:1000A0000303030300000000250028002B000000CC
:1000B0000000240027002A003D0DFC0E11241FBE65
:1000C000CFEFD8E0DEBFCDBF13E0A0E0B1E0E8E0C5
:1000D000F1E202C005900D92A035B107D9F726E0F4
:1000E000A0E5B3E001C01D92AF38B207E1F710E020
:1000F000CEE5D0E004C02197FE010E947C10CC35F3
:10010000D107C9F70E942E0D0C9457100C940000D3
:10011000E2E10E942D010895E9E00E942D01089579
:10012000EAE00E942D010895E1E00E942D0108956A
:10013000E3E00E942D010895E7E00E942D0108955B
:10014000E5E00E942D010895E0E00E942D01089550
:10015000E2E00E942D010895E4E00E942D0108953F
:10016000ECE00E942D010895E8E00E942D01089521
:10017000EEE00E942D010895E4E10E942D01089512
:10018000E0E10E942D010895E7E10E942D0108950C
:10019000E6E00E942D010895EBE00E942D010895F4
:1001A000EDE00E942D010895EFE00E942D010895D9
:1001B000E1E10E942D010895E3E10E942D010895DF
:1001C000E5E10E942D010895E6E10E942D010895C8
:1001D00021968A929A92AA92BA92CA92DA92EA9254
:1001E000FA920A931A932197E0916901F0916A01BA
:1001F0000080F181E02DC083D1830895C0916B010F
:10020000D0916C01E881F981C081D1812196199149
:100210000991F990E990D990C990B990A9909990D5
:100220008990219708952F903F90E7E6F1E0CDB7B0
:10023000DEB7EDBFFEBF3F922F9208952F903F9003
:10024000CDBFDEBF3F922F920895E0E80E942D01BE
:100250000895E0E40E942D0108952F923F924F925D
:100260005F926F927F922FB62F92CF93DF937E2E65
:10027000F894E0910001EF5FE0930001E13011F4A8
:100280000E941301E0E0E0937901E72DE07849F066
:100290000E948D05F0917A01F17071F00E941A04AC
:1002A0000BC0E72DEC3140F4EE0FF0E0E55FFC4FC2
:1002B0000190F081E02D0995F0917901EF2FE17027
:1002C00059F0F27011F00E94E8008F938F2F0E9476
:1002D00064038F910E94FE00209100012150209321
:1002E0000001222311F40E941E01DF91CF912F9073
:1002F0002FBE7F906F905F904F903F902F9008950A
:10030000FC014081FB013081842F8F7090E0B0E0D0
:10031000A0E0B695A795979587958C589C4FFC01C2
:100320008081242F281B21704E70242B832F8F70E7
:1003300090E0B0E0A0E0B695A795979587958C588A
:100340009C4FFC018081932F981B91703E70932BE2
:1003500041E050E0291710F050E040E0CA01089554
:100360008F929F92AF92BF92EF92FF920F931F9343
:10037000CF93DF937C014A015B01B694A7949794D5
:100380008794423051056105710580F0440F551F77
:100390008701040F151FE401CC0FDD1FCE0DDF1DFB
:1003A000B801CE010E948001892B59F4DF91CF91D1
:1003B0001F910F91FF90EF90BF90AF909F908F9003
:1003C0000895F801908181812881398131832083CA
:1003D00098838983B501A401D0CF4F925F926F9229
:1003E0007F928F929F92AF92BF92CF92DF92EF92C5
:1003F000FF920F931F93CF93DF9300D000D000D0D4
:10040000CDB7DEB78C016A017B01DC018C91282F0E
:1004100030E050E040E029833A834B835C8346011F
:100420005701880C991CAA1CBB1C29813A814B815D
:100430005C81281539054A055B05B8F426960FB688
:10044000F894DEBF0FBECDBFDF91CF911F910F910A
:10045000FF90EF90DF90CF90BF90AF909F908F90E4
:100460007F906F905F904F900895240135013FEF8A
:10047000431A530A630A730A89819A81AB81BC814A
:1004800084159505A605B70580F0B201660F771FA4
:10049000600F711FC401880F991F800F911F0E9468
:1004A0008001892B11F0530142013401660C771C45
:1004B000600E711ECC0CDD1CD801AC0DBD1DBE83C1
:1004C000AD83B301CD010E948001892B09F4B6CF21
:1004D000ED81FE8190818181D3012D913C91119715
:1004E000318320839C9311968C937501640197CF7F
:1004F000E9EAF4E040814F5F408350E070E060E063
:10050000E82FEE0FFF0BE455FD4F0190F081E02D39
:10051000238530E0F901EC58FC4F90819150908395
:10052000FA01EE0FFF1FE755FB4F220F331F9170AB
:10053000922B9083818389EA94E00C94B001E9EADC
:10054000F4E040814F5F408350E070E060E0FA01EA
:10055000EE0FFF1FE755FB4FA82FAA0FBB0BAE55A1
:10056000BD4F0D90BC91A02D13969C9190838183DB
:1005700089EA94E00C94B001CF93DF93E9EAF4E0C8
:1005800080819FEF980F9083D281C38190E0880F84
:10059000991F87559B4FDC018D919C91938382839A
:1005A00041E050E060E070E0CF010E94ED018D2F4E
:1005B0009C2FDF91CF91089580915003811114C039
:1005C0008091710190917201A0917301B0917401B9
:1005D0008F3F2FEF9207A207B20741F00497A105C2
:1005E000B10534F481E0089584E0089580E0089531
:1005F00082E00895CF93DF93880F990BFC01E455B7
:10060000FD4F0190F081E02D0084F185E02D3097C1
:10061000E1F02281211119C021E022838E559D4FE6
:10062000EC01A881B98113968C9113978183208165
:1006300030E0F901EC58FC4F808181508083220F1B
:10064000331F8170822B13968C93DF91CF91089585
:10065000CF93DF93880F990BFC01E455FD4F019078
:10066000F081E02D0084F185E02D309761F022814A
:10067000213049F412828E559D4FEC01A881B98139
:10068000818113968C93DF91CF91089580917501AC
:1006900090917601A0917701B0917801409171011C
:1006A000509172016091730170917401481759075C
:1006B0006A077B0741F0E0916F01F091700121E042
:1006C00024830C949F020895CF93DF93D0E0C0E081
:1006D000882389F0C0916901D0916A01E0916D0190
:1006E000F0916E018481833031F081E084838091C8
:1006F00071010E949F02E0916F01F0917001F093EF
:100700006E01E0936D0180916B0190916C0190936B
:100710006A01809369018091750130917601209181
:100720007701909178018093710130937201209349
:1007300073019093740192E094830E94FA02CE01B7
:10074000DF91CF910895809171010E942803E0917B
:100750006D01F0916E018281882319F085E0848318
:10076000089514820895CF93DF93282F220F330B1F
:10077000F901EE55FD4FC081D1819A8124553D4F3D
:10078000D901ED91FC912485921780F4911105C057
:1007900095E09C8391E090937A010E9478028A818F
:1007A0008F5F8A8380E0DF91CF91089584E0FBCF53
:1007B000E82FEE0FFF0BEE55FD4F0190F081E02D7D
:1007C000118210820C94E70C1F93CF93DF930E9449
:1007D000BC02182F892F492F092E000C550B660BD0
:1007E000770B409375015093760160937701709376
:1007F0007801292F220F330BF901EE55FD4FC081EF
:10080000D181D0937001C0936F0124553D4FF90100
:100810002081318130936C0120936B019C81953054
:1008200019F40E94D8031B8310927A01DF91CF91B3
:100830001F910895E0917501F0917601EE0FFF1F71
:10084000EE55FD4F0190F081E02D9091AB04838136
:10085000891740F40E9446030E94E40383E08093DA
:100860007901089580E0FBCF81E0809379010C94B9
:10087000E403EF92FF920F931F93CF93DF93C1E0B6
:1008800001C0CC0F8A95EAF72091B4023091B502ED
:100890008091AA029091AB021092A90410926A0171
:1008A0001092690130936C0120936B0110926E01DC
:1008B00010926D019093700180936F018FEF9FEF05
:1008C000DC018093710190937201A0937301B09346
:1008D00074018093750190937601A0937701B09392
:1008E00078011092790110927A0184E00E94B3039A
:1008F00006E013E0D0E0F80181918F018C2319F01C
:100900008D2F0E94B303DF5FD430A9F702E013E01C
:1009100086E7E82E82E0F82ED1E0F80181918F0180
:100920008C2339F0F70180819181FC01D6870E94E8
:10093000D104F2E0EF0EF11C83E00630180769F7EE
:10094000DF91CF911F910F91FF90EF9008950E943A
:10095000740681110E949506E0916D01F0916E017F
:1009600080819181892B21F0809171010E945A0828
:100970000C94BD070E94740681110E949506E091B7
:100980006D01F0916E0180819181892B21F0809120
:1009900071010E945A080C94A50781E080935103CD
:1009A0000895CF92DF92EF92FF920F931F93CF9310
:1009B000DF93FC01A081B1810D90BC91A02D5496D4
:1009C0008D919C915597009709F445C042855385B8
:1009D0006485758530E020E0EC01CA84DB84EC841A
:1009E000FD844C155D056E057F0508F049C08C013E
:1009F00013830283358324830115110519F0E8015F
:100A0000FD83EC832115310509F444C0E901FB8322
:100A1000EA835696CD91DC9157970A851B852C85E4
:100A20003D855096CD90DD90ED90FC9053970C1540
:100A30001D052E053F0598F5C416D506E606F706F2
:100A400028F0401751076207730788F45796FC9304
:100A5000EE9356970CC05596FC93EE935497579689
:100A6000FC93EE9356971582148213821282DF91C3
:100A7000CF911F910F91FF90EF90DF90CF9008954D
:100A8000EC010A811B819C010115110509F4B0CF0D
:100A9000C801A2CF5596FC93EE935497BACFC416D3
:100AA000D506E606F70668F2E2CFCF93DF93DC01C6
:100AB000ED91FC9111970190F081E02D8489958949
:100AC0001296CD91DC9113978A179B0711F4D58B61
:100AD000C48B868997898A179B0711F4D78BC68B9D
:100AE000209731F014968D919C9115979D838C835E
:100AF00014960D90BC91A02D109721F01396DC93C5
:100B0000CE93129786899789892B21F484899589B8
:100B1000978B868BDF91CF910895EF92FF920F9381
:100B20001F93CF93DF93FC0180915103882309F435
:100B3000ACC084859585A685B7850196A11DB11D9C
:100B400084879587A687B7874081518162817381A9
:100B500084179507A607B70709F097C08089918980
:100B6000A289B3890196A11DB11D44815581668179
:100B70007781481759076A077B0718F480E090E0EF
:100B8000DC01808B918BA28BB38B14861586168625
:100B90001786C689D789209709F477C04A855B856F
:100BA0006C857D85481759076A077B0709F06DC07A
:100BB000CE01DC011296ED90FC90E114F10469F095
:100BC000D7011A960D911D912D913C911D974017BB
:100BD00051076207730709F45FC02C813D8121151D
:100BE000310529F0D9011396FC92EE921297E11487
:100BF000F10429F0D70115963C932E93149724897C
:100C00003589C217D30711F4F58AE48AE114F10497
:100C100009F444C0F78AE68A8F01FC01138212822C
:100C2000EA80FB80E881F9810280F381E02DCE012A
:100C300009958E819F81A885B9850097A105B10589
:100C400091F14A855B856C857D85840F951FA61F74
:100C5000B71FF8014481558166817781481759078C
:100C60006A077B0740F44095509560957095840F16
:100C7000951FA61FB71F8A879B87AC87BD87CE01AC
:100C80000E94D104E701209759F6DF91CF911F917F
:100C90000F91FF90EF900895C7018BCF248935897C
:100CA000378B268BB9CF1E86EDCFFC0182810C9449
:100CB000B3030E94740680916801089580936801CF
:100CC0000E9439040E94CD040C9434040C94E60C68
:100CD000CF93C82F0E94DC02811102C00E94240D14
:100CE0008C2FCF910C948C0080915E038130D9F0D1
:100CF0008091560390915703A0915803B0915903E6
:100D0000892B8A2B8B2B79F481E040915A035091E7
:100D10005B0360915C0370915D03452B462B472B71
:100D200019F480E0089581E0089510925E03109216
:100D30005A0310925B0310925C0310925D031092B1
:100D40005603109257031092580310925903809142
:100D5000520390915303A0915403B0915503809393
:100D60005F0390936003A0936103B09362030895BF
:100D70000E94270D80915F0390916003A091610311
:100D8000B09162030196A11DB11D80935F03909302
:100D90006003A0936103B093620380915A03909122
:100DA0005B03A0915C03B0915D030196A11DB11D91
:100DB00080935A0390935B03A0935C03B0935D030D
:100DC000089580915A0390915B03A0915C03B091C8
:100DD0005D030097A105B10569F140915F03509152
:100DE0006003609161037091620341505109610990
:100DF000710940935F0350936003609361037093A4
:100E000062030197A109B10980935A0390935B0390
:100E1000A0935C03B0935D0380915F0390916003A6
:100E2000A0916103B0916203892B8A2B8B2B11F463
:100E30000C94250D089580915A0390915B03A09125
:100E40005C03B0915D03892B8A2B8B2B89F48091F5
:100E5000560390915703A0915803B0915903892BE1
:100E60008A2B8B2B29F40E94270D81E080935E034F
:100E7000089580915E03882321F010925E030C9404
:100E8000250D08950E942B0D80915F0390916003C2
:100E9000A0916103B09162030196A11DB11D8093E1
:100EA0005F0390936003A0936103B093620380910A
:100EB000560390915703A0915803B091590301969E
:100EC000A11DB11D8093560390935703A09358031F
:100ED000B093590308958091560390915703A091C0
:100EE0005803B09159030097A105B10569F14091EC
:100EF0005F03509160036091610370916203415000
:100F000051096109710940935F0350936003609335
:100F10006103709362030197A109B109809356039D
:100F200090935703A0935803B093590380915F03A4
:100F300090916003A0916103B0916203892B8A2B89
:100F40008B2B11F40C94290D08950E9474068823AC
:100F500011F083E1089580E00895CF93C82F0E9497
:100F600074068C2F0E94B303C82F80917A018111DF
:100F70000E941A048C2FCF910895CF930E9474067B
:100F8000C3E1811101C0C0E0E0916D01F0916E01FB
:100F90008281815082830E94A30381E08093790142
:100FA0000E94E4038C2FCF910895CF93C82F0E9405
:100FB0007406E0916D01F0916E018281815082830F
:100FC0008C2F0E94B303C82F81110AC00E94A30373
:100FD00081E0809379010E94E4038C2FCF910895E2
:100FE000E0916D01F0916E0182818F5F8283F5CF78
:100FF000CF930E947406C3E1811101C0C0E08091CB
:1010000071010E9428030E941A048091710190913D
:101010007201A0917301B0917401409175015091DA
:101020007601609177017091780184179507A60782
:10103000B70711F40E94FA028C2FCF910895CF9335
:10104000DF93EC010E947406882391F083E14091C4
:10105000710150917201609173017091740144307B
:1010600051056105710534F44883DF91CF910895EE
:1010700080E0EDCF9091F2019883F7CF0F931F930B
:10108000CF93C82F8B010E947406882389F083E1D7
:10109000EC2FEE0FFF0BEE55FD4F0190F081E02D90
:1010A00094819370F8019083CF911F910F910895CF
:1010B00080E0EECF880F990BFC01EE55FD4FA0812B
:1010C000B181ED91FC911197309769F01D921C92BE
:1010D0002091F20193818481228314821382E92F6B
:1010E000F82F3097B9F70895CF93C82F0E94740650
:1010F000882381F183E1EC2FF0E0EE0FFF1FE45035
:10110000FD4F0190F081E02D909171019283A091AB
:101110006D01B0916E012D913C9111973483238321
:101120001196FC93EE9313969C91139791832081D3
:101130009695921768F430E0F901EC58FC4F9081D5
:1011400091509083220F331F9170922B13969C9392
:10115000CF91089580E0CFCFCF93DF93C82F0E9427
:101160007406D3E1811101C0D0E0EC2FF0E0EE0F66
:10117000FF1FE450FD4F0190F081E02DA0916D0123
:10118000B0916E01818113968C9313978381948122
:101190008D939C93148213828091F20182830E942A
:1011A0001A048D2FDF91CF910895DC01ED91FC9110
:1011B00084819581DC01ED91FC9109941F93CF937B
:1011C000DF93182FEB010E947406882361F183E1FD
:1011D000E12FF0E0EE0FFF1FEA58FD4F0190F08184
:1011E000E02D0190F081E02D0190F081E02D408113
:1011F0005181628173814C835D836E837F834481DF
:10120000558166817781488359836A837B834085D2
:10121000518562857385488759876A877B87DF9107
:10122000CF911F91089580E0D3CF8F929F92AF927C
:10123000BF92CF92DF92EF92FF920F931F93CF93C3
:10124000C82F8B010E9474068823E9F183E1EC2FFB
:10125000F0E0EE0FFF1FEA58FD4F0190F081E02D06
:101260009685913091F54285538564857585019009
:10127000F081E02D0190F081E02DC088D188E288D6
:10128000F3884C155D056E057F0540F484809580DC
:10129000A680B780480D591D6A1D7B1D4C195D093C
:1012A0006E097F09F8014083518362837383CF9174
:1012B0001F910F91FF90EF90DF90CF90BF90AF9074
:1012C0009F908F90089580E0C2CF85E0F0CF8F92FD
:1012D0009F92AF92BF92CF92DF92EF92FF920F93C5
:1012E0001F93CF93DF93D82F6A017B0148015901E7
:1012F0000E947406C3E1811101C0C0E0ED2FF0E04F
:10130000EE0FFF1FEA58FD4F0190F081E02D86851A
:1013100081113DC0A081B1810D90BC91A02D50964E
:101320004D915D916D917C9153974C0D5D1D6E1D9E
:101330007F1D14968D919D910D90BC91A02D8417C9
:101340009507A607B70740F4481B590B6A0B7B0BA0
:101350004150510961097109428753876487758734
:1013600086829782A086B18681E08687CF010E941F
:10137000D1048C2FDF91CF911F910F91FF90EF90AF
:10138000DF90CF90BF90AF909F908F900895C7E06F
:10139000F0CF8F929F92AF92BF92CF92DF92EF9257
:1013A000FF920F931F93CF93DF93C82F4A015B01E6
:1013B000680179010E947406D3E1811101C0D0E077
:1013C000EC2FF0E0EE0FFF1FEA58FD4F0190F08187
:1013D000E02D868581111BC082869386A486B58602
:1013E000C682D782E086F18681E08687CF010E949F
:1013F000D1048D2FDF91CF911F910F91FF90EF902E
:10140000DF90CF90BF90AF909F908F900895D7E0DE
:10141000F0CF0F931F93CF93DF93C82F0E947406D2
:10142000D3E1811101C0D0E0EC2FF0E0EE0FFF1FFF
:10143000EA58FD4F00811181F8018685813059F409
:10144000C8010E945505F80116868D2FDF91CF91B6
:101450001F910F910895D5E0F8CF26E040E052ECBF
:1014600061E070E08AE893E00E94F50F60E08EE0B2
:101470000E94CE0B61E08DE00E94CE0B80910A03AA
:101480000C9468061F93CF93DF938EE00E94CA0CE2
:10149000EC0110910103812F0E94CC004AE050E042
:1014A000BE018AE893E00E94920ECE010A978C3E1C
:1014B000934070F081E090E090936703809366031F
:1014C000812F0E94D000DF91CF911F910C94B40026
:1014D00010926703109266038091680390916903EC
:1014E0000597A4F4E0916803F0916903EE0FFF1FE4
:1014F000E659FC4FD183C0838091680390916903C2
:1015000001969093690380936803DACF63EF71E0EB
:101510008AE893E00E94CD0D6091680370916903A1
:10152000645071094AE050E08AE893E00E94920E0C
:10153000C7CF8F929F92AF92BF92CF92DF92EF92DE
:10154000FF921F93CF93DF93CDB7DEB72A970FB6E5
:10155000F894DEBF0FBECDBF10910103812F0E9412
:10156000CC00809168039091690365E0A62EB12CB0
:10157000059724F4A0906803B0906903CE0101960A
:101580006C01F12CE12CEA14FB04E4F4F701EE0FFA
:10159000FF1FE659FC4F80809180F6018192919265
:1015A0006F0166E072E08AE893E00E94CD0D4AE0A8
:1015B00050E0B4018AE893E00E94920EFFEFEF1A28
:1015C000FF0AE1CF1092690310926803812F0E94F5
:1015D000D000E980FA8060E172E08AE893E00E943E
:1015E000E00D970181E090E0FC01EE0FFF1FDF01AD
:1015F000A659BC4F4D915C911197E416F50614F471
:10160000ED90FC90E659FC4F408151814217530701
:1016100014F42081318101968530910529F7E21A71
:10162000F30A85EFE81681E0F8062CF16EE172E02E
:101630008AE893E00E94E00D812F0E94CC0081E0B7
:1016400090E09093650380936403812F0E94D00003
:101650002A960FB6F894DEBF0FBECDBFDF91CF91B3
:101660001F91FF90EF90DF90CF90BF90AF909F9031
:101670008F900C94B400812F0E94CC0010926503CF
:1016800010926403E2CFEF92FF920F931F93CF93D8
:10169000C09101038C2F0E94CC0000916403109133
:1016A0006503E0906603F09067038C2F0E94D000E2
:1016B000C0910003EA94EF28D9F48C2F0E94E40033
:1016C0000DE710E020E030E04DE750E060E070E032
:1016D0008C2F0E94DC0063E372E08AE893E00E94B2
:1016E000E00DCF911F910F91FF90EF900C94B400FB
:1016F0008C2F0130110581F40E94E40004EF11E009
:1017000020E030E044EF51E060E070E08C2F0E9478
:10171000DC0064E472E0E1CF0E94E40060E08DE070
:101720000E940A0C6DE572E0D8CF6091630381E0FE
:101730006827609363038DE00E940A0C0C94B40048
:101740008BEC91E00C9425010895833081F028F40E
:10175000813099F08230A9F008958730A9F088305F
:10176000C9F08430B1F4809180008F7D03C08091F6
:1017700080008F7780938000089584B58F7784BD33
:10178000089584B58F7DFBCF8091B0008F778093D3
:10179000B00008958091B0008F7DF9CFCF93DF9393
:1017A00090E0FC01E458FF4F249180579F4FFC01CB
:1017B00084918823C9F090E0880F991FFC01E255BD
:1017C000FF4FA591B491FC01EC55FF4FC591D49109
:1017D00061110DC09FB7F8948C91209582238C9352
:1017E0008881282328839FBFDF91CF91089562309D
:1017F00051F49FB7F8943C91822F809583238C936A
:10180000E8812E2BEFCF8FB7F894EC912E2B2C93F1
:101810008FBFEACF1F93CF93DF93282F30E0F901DA
:10182000E859FF4F8491F901E458FF4FD491F90131
:10183000E057FF4FC491CC23A9F0162F81110E94CD
:10184000A50BEC2FF0E0EE0FFF1FEC55FF4FA5911D
:10185000B4918FB7F894EC91111108C0D095DE23A4
:10186000DC938FBFDF91CF911F910895DE2BF8CFCE
:101870001F920F920FB60F9211242F933F934F9305
:101880005F936F937F938F939F93AF93BF93EF93E8
:10189000FF938091810390918203A0918303B09183
:1018A00084033091800323E0230F2D3798F50196B0
:1018B000A11DB11D20938003809381039093820327
:1018C000A0938303B0938403809185039091860352
:1018D000A0918703B09188030196A11DB11D80934B
:1018E000850390938603A0938703B09388030E9497
:1018F000A00BFF91EF91BF91AF919F918F917F913D
:101900006F915F914F913F912F910F900FBE0F906C
:101910001F90189526E8230F0296A11DB11DCACF6E
:1019200084B5826084BD84B5816084BD85B58260E4
:1019300085BD85B5816085BDEEE6F0E08081816082
:101940008083E1E8F0E01082808182608083808182
:1019500081608083E0E8F0E0808181608083E1EB5A
:10196000F0E0808184608083E0EBF0E08081816042
:101970008083EAE7F0E080818460808380818260F8
:1019800080838081816080838081806880831092E1
:10199000C10008958E3008F08E502091ED0190E442
:1019A000299F900111248770822B80937C00809165
:1019B0007A00806480937A0080917A0086FDFCCF63
:1019C00080917800909179000895FFCFFFCFCF9359
:1019D000DF93880F990BFC01E455FD4FC081D18145
:1019E000EC81FD8131978A819B81E80FF91F8D85FC
:1019F000DF011197823029F58CEA90E080839C9377
:101A00009E818F81DF0112979C9311978C93CF0158
:101A100004979F01295031091E92A217B307E1F7DD
:101A200020E8DF011A972C9342971E92A817B90756
:101A3000E1F7A881B9817797ED93FC93DF91CF917E
:101A4000089588EC90E0DACF089578940895F8949A
:101A5000089578940895F894089508950E94900C3C
:101A60000E942D0D0E94A40B0E942D0A80918903D3
:101A70000E94680690E080E0089580910A038093B8
:101A80008903089508951F920F920FB60F921124A3
:101A90002F933F934F935F936F937F938F939F9376
:101AA000AF93BF93EF93FF93E091EE01F091EF01BD
:101AB0000995FF91EF91BF91AF919F918F917F9188
:101AC0006F915F914F913F912F910F900FBE0F90AB
:101AD0001F9018951F920F920FB60F9211242F93FB
:101AE0003F934F935F936F937F938F939F93AF93A6
:101AF000BF93EF93FF93E091F001F091F10109950D
:101B0000FF91EF91BF91AF919F918F917F916F91D5
:101B10005F914F913F912F910F900FBE0F901F90AB
:101B20001895AF92BF92CF92DF92EF92FF920F93F0
:101B30001F93CF93DF936C017B018B01040F151F63
:101B4000EB015E01AE18BF08C017D10759F06991CB
:101B5000D601ED91FC910190F081E02DC60109952F
:101B6000892B79F7C501DF91CF911F910F91FF90DC
:101B7000EF90DF90CF90BF90AF900895FB01019060
:101B80000020E9F73197AF01461B570BDC01ED91BF
:101B9000FC910280F381E02D09946115710511F02B
:101BA0000C94BE0D90E080E00895DC01ED91FC9175
:101BB0000190F081E02D09946BE373E00C94BE0D6D
:101BC0000F931F93CF93DF938C01D0E0C0E061159A
:101BD000710519F00E94BE0DEC01C8010E94DC0DD8
:101BE0008C0F9D1FDF91CF911F910F9108958F92C0
:101BF0009F92AF92BF92EF92FF920F931F93CF935A
:101C0000DF93CDB7DEB7A1970FB6F894DEBF0FBE56
:101C1000CDBF7C01FA01CB0119A2223008F42AE0E1
:101C20008E010F5D1F4F822E912CB12CA12CBF0174
:101C3000A50194010E945A10F901CA016A300CF5FD
:101C4000605DD8016E938D01232B242B252B79F712
:101C500090E080E0109721F0BD01C7010E94BE0D09
:101C6000A1960FB6F894DEBF0FBECDBFDF91CF9126
:101C70001F910F91FF90EF90BF90AF909F908F902A
:101C80000895695CDECFCF92DF92EF92FF920F93BF
:101C90001F93CF93DF932115310581F4DC01ED9182
:101CA000FC910190F081E02D642FDF91CF911F9185
:101CB0000F91FF90EF90DF90CF9009942A3031057B
:101CC00001F52AE077FF1DC06A017B01EC016DE29E
:101CD0000E94D50D8C0144275527BA014C195D0986
:101CE0006E097F092AE0CE010E94F70D800F911F37
:101CF000DF91CF911F910F91FF90EF90DF90CF90E8
:101D00000895DF91CF911F910F91FF90EF90DF9099
:101D1000CF900C94F70D9A01AB01770F660B770B00
:101D20000C94430E0F931F93CF93DF93EC010E940B
:101D30008B0E8C01CE010E94DC0D800F911FDF9174
:101D4000CF911F910F9108951F920F920FB60F928E
:101D500011242F938F939F93EF93FF93E0919A0316
:101D6000F0919B038081E091A003F091A10382FD9B
:101D70001BC090818091A3038F5F8F732091A40378
:101D8000821741F0E091A303F0E0E657FC4F958FF6
:101D90008093A303FF91EF919F918F912F910F90CB
:101DA0000FBE0F901F9018958081F4CF1F920F9255
:101DB0000FB60F9211242F933F934F935F936F931E
:101DC0007F938F939F93AF93BF93EF93FF938AE893
:101DD00093E00E94660FFF91EF91BF91AF919F91A9
:101DE0008F917F916F915F914F913F912F910F90C4
:101DF0000FBE0F901F901895EAE8F3E0138212824D
:101E000088EE93E0A0E0B0E084839583A683B78357
:101E100082E493E09183808385EC90E095878487CA
:101E200084EC90E09787868780EC90E0918B808BA4
:101E300081EC90E0938B828B82EC90E0958B848B8D
:101E400086EC90E0978B868B118E128E138E148EFB
:101E50000895FC01918D228D892F90E0805C9F4F29
:101E6000821B91098F7399270895FC01918D828DB2
:101E7000981731F0828DE80FF11D858D90E008955F
:101E80008FEF9FEF0895FC01918D828D981761F07F
:101E9000A28DAE0FBF2FB11D5D968C91928D9F5F6D
:101EA0009F73928F90E008958FEF9FEF0895FC014C
:101EB000538D448D252F30E0842F90E0821B930BAF
:101EC000541710F0CF96089501970895FC01A48D42
:101ED000A80FB92FB11DA35ABF4F2C91848D90E04C
:101EE00001968F739927848FA689B7892C93A0892F
:101EF000B1898C91837080648C93938D848D9813B9
:101F000006C00288F389E02D80818F7D808308954B
:101F1000CF93DF93EC01888D8823B9F0AA89BB8920
:101F2000E889F9898C9185FD03C0808186FD0DC00B
:101F30000FB607FCF7CF8C9185FFF2CF808185FF2C
:101F4000EDCFCE010E94660FE9CFDF91CF910895CA
:101F5000EF92FF920F931F93CF93DF93EC0181E0F9
:101F6000888F9B8D8C8D98131AC0E889F9898081A0
:101F700085FF15C09FB7F894EE89FF896083E889D3
:101F8000F98980818370806480839FBF81E090E0C5
:101F9000DF91CF911F910F91FF90EF900895F62E52
:101FA0000B8D10E00F5F1F4F0F731127E02E8C8DEC
:101FB0008E110CC00FB607FCFACFE889F989808131
:101FC00085FFF5CFCE010E94660FF1CFEB8DEC0FB0
:101FD000FD2FF11DE35AFF4FF0829FB7F8940B8F4E
:101FE000EA89FB8980818062CFCFCF92DF92EF9226
:101FF000FF921F93CF93DF93EC016A017B01122FB5
:10200000E889F98982E08083C11481EED806E10471
:10201000F104A1F060E079E08DE390E0A701960182
:102020000E945A102150310941095109569547958E
:1020300037952795211580E1380798F0E889F989C7
:10204000108260E874E88EE190E0A70196010E949A
:102050005A10215031094109510956954795379534
:102060002795EC85FD853083EE85FF852083188ECE
:10207000EC89FD891083EA89FB89808180618083F6
:10208000EA89FB89808188608083EA89FB89808175
:1020900080688083EA89FB8980818F7D8083DF91DE
:1020A000CF911F91FF90EF90DF90CF900895F8941B
:1020B0000C948210A1E21A2EAA1BBB1BFD010DC0BD
:1020C000AA1FBB1FEE1FFF1FA217B307E407F507E8
:1020D00020F0A21BB30BE40BF50B661F771F881FC4
:1020E000991F1A9469F760957095809590959B015A
:1020F000AC01BD01CF010895EE0FFF1F0590F491D3
:08210000E02D0994F894FFCFD3
:1021080000000000000000000000000000000000C7
:1021180000000000000000000000000000000000B7
:1021280000000000000000000000000000000000A7
:102138000000000000000000000000000000000097
:102148000000000000000000000000000000000087
:102158000000000000000000000000000000000077
:102168000000000000000000FF0000EE0200007BFD
:1021780003FFFFFFFFFFFFFFFF00007E02000000DC
:1021880000F4010000F401000002870200000000D2
:102198007D0000007D000000029002000000006445
:1021A8000000006400000002990200000000000026
:1021B800000000000000000000000404000000030C
:1021C800000000000204000000010001000000FF00
:1021D800FF000001000000000000000000000000F7
:1021E8000000000500FF00000500FF000001420D8F
:1021F800420DFF5175657565206F766572666C6F67
:1022080077206279200052656365697665642000ED
:1022180044617469207269636576757469004D203C
:102228002D204E203E203530302C20616C61726D9F
:1022380020310056454C4F43452C206572726F7211
:10224800652031004C454E544F2C206572726F72D8
:102258006520302C20616C61726D2031005350452F
:102268004E544F2C206572726F7265206520616C28
:1022780061726D203000A80199018A017B01CB01B0
:10228800D5088402550602CB01D5088D02550601F2
:10229800CB01D5089602550603CB01D5089F0255F8
:1022A8000600C601C101BC01B7017B03E002D202EE
:1022B800C402B602EE028B0629048000420A00001E
:1022C80003040100270439058000990A000002036D
:1022D80001008D060B068000430B0000010201007F
:1022E8003705B7048000950B000000010100B9050F
:1022F800BB055000E50C000004000100E801E30103
:1023080000000001010100010001006B07390742CC
:10231800071B07BA04B806A704E106BD075E0666F0
:10232800067408AD07AC08D507DE081F081509595B
:10233800066709F807C909090A3E080D0A000000DE
:102348000000A80F910D570F880F290F430F350F65
:00000001FF
