:100000000C945D000C94D70B0C94FE0B0C948500A3
:100010000C9485000C9485000C9485000C9485004C
:100020000C9485000C9485000C9485000C9485003C
:100030000C9485000C9485000C9485000C9485002C
:100040000C94E70A0C9485000C9485000C948500B0
:100050000C9485000C9485000C9485000C9485000C
:100060000C9485000C94850000000008000201003B
:100070000003040700000000000000000102040863
:100080001020408001020408102001020408102002
:10009000040404040404040402020202020203032E
:1000A0000303030300000000250028002B000000CC
:1000B0000000240027002A00D10B11241FBECFEF1F
:1000C000D8E0DEBFCDBF12E0A0E0B1E0E0E6F8E1AD
:1000D00002C005900D92AE37B107D9F724E0AEE724
:1000E000B2E001C01D92A738B207E1F710E0CDE5FC
:1000F000D0E004C02197FE010E94280CCC35D10726
:10010000C9F70E94C20B0C94250C0C940000E2E18C
:100110000E942C010895E9E00E942C010895EAE074
:100120000E942C010895E1E00E942C010895E3E073
:100130000E942C010895E7E00E942C010895E5E05B
:100140000E942C010895E0E00E942C010895E2E055
:100150000E942C010895E4E00E942C010895ECE037
:100160000E942C010895E8E00E942C010895EEE021
:100170000E942C010895E4E10E942C010895E0E121
:100180000E942C010895E7E10E942C010895E6E009
:100190000E942C010895EBE00E942C010895EDE0EF
:1001A0000E942C010895EFE00E942C010895E1E1E6
:1001B0000E942C010895E3E10E942C010895E5E1DD
:1001C0000E942C010895E6E10E942C0108952196D9
:1001D0008A929A92AA92BA92CA92DA92EA92FA927F
:1001E0000A931A932197E0916901F0916A010080C6
:1001F000F181E02DC083D1830895C0916B01D0912E
:100200006C01E881F981C081D18121961991099110
:10021000F990E990D990C990B990A9909990899056
:10022000219708952F903F90E7E6F1E0CDB7DEB734
:10023000EDBFFEBF3F922F9208952F903F90CDBF0C
:10024000DEBF3F922F920895E0E80E942C010895AE
:10025000E0E40E942C0108952F923F924F925F920A
:100260006F927F922FB62F92CF93DF937E2EF894CA
:10027000E0910001EF5FE0930001E13011F40E9492
:100280001201E0E0E0937901E72DE07849F00E9467
:100290008C05F0917A01F17071F00E9419040BC085
:1002A000E72DEC3140F4EE0FF0E0E35BFD4F019001
:1002B000F081E02D0995F0917901EF2FE17059F06F
:1002C000F27011F00E94E7008F938F2F0E9463035A
:1002D0008F910E94FD002091000121502093000188
:1002E000222311F40E941D01DF91CF912F902FBE88
:1002F0007F906F905F904F903F902F900895FC01FA
:100300004081FB013081842F8F7090E0B0E0A0E04D
:10031000B695A795979587958F569D4FFC0180813F
:10032000242F281B21704E70242B832F8F7090E078
:10033000B0E0A0E0B695A795979587958F569D4F0D
:10034000FC018081932F981B91703E70932B41E0AC
:1003500050E0291710F050E040E0CA0108958F9254
:100360009F92AF92BF92EF92FF920F931F93CF9302
:10037000DF937C014A015B01B694A794979487941C
:10038000423051056105710580F0440F551F87010A
:10039000040F151FE401CC0FDD1FCE0DDF1DB801CA
:1003A000CE010E947F01892B59F4DF91CF911F91DB
:1003B0000F91FF90EF90BF90AF909F908F90089516
:1003C000F80190818181288139813183208398834C
:1003D0008983B501A401D0CF4F925F926F927F9233
:1003E0008F929F92AF92BF92CF92DF92EF92FF9245
:1003F0000F931F93CF93DF9300D000D000D0CDB7E1
:10040000DEB78C016A017B01DC018C91282F30E082
:1004100050E040E029833A834B835C8346015701D7
:10042000880C991CAA1CBB1C29813A814B815C81D8
:10043000281539054A055B05B8F426960FB6F894D9
:10044000DEBF0FBECDBFDF91CF911F910F91FF9007
:10045000EF90DF90CF90BF90AF909F908F907F9064
:100460006F905F904F900895240135013FEF431A3C
:10047000530A630A730A89819A81AB81BC8184150E
:100480009505A605B70580F0B201660F771F600FCE
:10049000711FC401880F991F800F911F0E947F0157
:1004A000892B11F0530142013401660C771C600E58
:1004B000711ECC0CDD1CD801AC0DBD1DBE83AD83FF
:1004C000B301CD010E947F01892B09F4B6CFED81E4
:1004D000FE8190818181D3012D913C9111973183CF
:1004E00020839C9311968C937501640197CFEBEA5E
:1004F000F2E040814F5F408350E070E060E0E82F21
:10050000EE0FFF0BEE5FFD4F0190F081E02D238594
:1005100030E0F901EF56FD4F908191509083FA0140
:10052000EE0FFF1FE555FD4F220F331F9170922BE9
:10053000908381838BEA92E00C94AF01EBEAF2E0C6
:1005400040814F5F408350E070E060E0FA01EE0FC1
:10055000FF1FE555FD4FA82FAA0FBB0BA650BE4F9E
:100560000D90BC91A02D13969C91908381838BEA72
:1005700092E00C94AF01CF93DF93EBEAF2E080813D
:100580009FEF980F9083D281C38190E0880F991FCD
:1005900085559D4FDC018D919C919383828341E031
:1005A00050E060E070E0CF010E94EC018D2F9C2FA5
:1005B000DF91CF91089580917E02811114C08091C6
:1005C000710190917201A0917301B09174018F3FFC
:1005D0002FEF9207A207B20741F00397A105B105DB
:1005E00034F481E0089584E0089580E0089582E085
:1005F0000895CF93DF93880F990BFC01EE5FFD4FB9
:100600000190F081E02D0084F185E02D3097E1F03C
:100610002281211119C021E0228386509E4FEC01D6
:10062000A881B98113968C9113978183208130E042
:10063000F901EF56FD4F808181508083220F331FD7
:100640008170822B13968C93DF91CF910895CF9375
:10065000DF93880F990BFC01EE5FFD4F0190F08155
:10066000E02D0084F185E02D309761F0228121306A
:1006700049F4128286509E4FEC01A881B981818194
:1006800013968C93DF91CF9108958091750190918D
:100690007601A0917701B09178014091710150915C
:1006A00072016091730170917401481759076A07CC
:1006B0007B0741F0E0916F01F091700121E024830C
:1006C0000C949E020895CF93DF93D0E0C0E088237E
:1006D00089F0C0916901D0916A01E0916D01F091BA
:1006E0006E018481833031F081E0848380917101D7
:1006F0000E949E02E0916F01F0917001F0936E01F3
:10070000E0936D0180916B0190916C0190936A016F
:100710008093690180917501309176012091770174
:10072000909178018093710130937201209373014D
:100730009093740192E094830E94F902CE01DF91BC
:10074000CF910895809171010E942703E0916D017E
:10075000F0916E018281882319F085E084830895E9
:1007600014820895CF93DF93282F220F330BF901C2
:10077000E650FE4FC081D1819A812E5F3D4FD90155
:10078000ED91FC912485921780F4911105C095E0BC
:100790009C8391E090937A010E9477028A818F5F17
:1007A0008A8380E0DF91CF91089584E0FBCFE82F2A
:1007B000EE0FFF0BE650FE4F0190F081E02D11820D
:1007C00010820C947B0B1F93CF93DF930E94BB028C
:1007D000182F892F492F092E000C550B660B770B0C
:1007E000409375015093760160937701709378017F
:1007F000292F220F330BF901E650FE4FC081D18122
:10080000D0937001C0936F012E5F3D4FF90120819D
:10081000318130936C0120936B019C81953019F4E8
:100820000E94D7031B8310927A01DF91CF911F9111
:100830000895E0917501F0917601EE0FFF1FE650EB
:10084000FE4F0190F081E02D9091AD0283818917D8
:1008500040F40E9445030E94E30383E08093790102
:10086000089580E0FBCF81E0809379010C94E3034D
:10087000EF92FF920F931F93CF93DF93C1E001C0DC
:10088000CC0F8A95EAF720910802309109028091F5
:100890000002909101021092AB0210926A01109234
:1008A000690130936C0120936B0110926E011092DC
:1008B0006D019093700180936F018FEF9FEFDC01CA
:1008C0008093710190937201A0937301B0937401AE
:1008D0008093750190937601A0937701B09378018E
:1008E0001092790110927A0183E00E94B20309E428
:1008F00012E0D0E0F80181918F018C2319F08D2F47
:100900000E94B203DF5FD330A9F706E412E089ED5D
:10091000E82E81E0F82ED1E0F80181918F018C233F
:1009200039F0F70180819181FC01D6870E94D004C3
:10093000F2E0EF0EF11C82E00934180769F7DF914D
:10094000CF911F910F91FF90EF9008950E94730631
:1009500081110E949406E0916D01F0916E018081F9
:100960009181892B21F0809171010E9459080C948A
:10097000BC070E94730681110E949406E0916D01EC
:10098000F0916E0180819181892B21F0809171011C
:100990000E9459080C94A40781E080937F02089577
:1009A000CF92DF92EF92FF920F931F93CF93DF933B
:1009B000FC01A081B1810D90BC91A02D54968D9128
:1009C0009C915597009709F445C0428553856485ED
:1009D000758530E020E0EC01CA84DB84EC84FD8482
:1009E0004C155D056E057F0508F049C08C01138329
:1009F0000283358324830115110519F0E801FD8375
:100A0000EC832115310509F444C0E901FB83EA8335
:100A10005696CD91DC9157970A851B852C853D858F
:100A20005096CD90DD90ED90FC9053970C151D05E0
:100A30002E053F0598F5C416D506E606F70628F0FC
:100A4000401751076207730788F45796FC93EE939B
:100A500056970CC05596FC93EE9354975796FC937B
:100A6000EE9356971582148213821282DF91CF91F2
:100A70001F910F91FF90EF90DF90CF900895EC01C0
:100A80000A811B819C010115110509F4B0CFC80131
:100A9000A2CF5596FC93EE935497BACFC416D506C1
:100AA000E606F70668F2E2CFCF93DF93DC01ED9123
:100AB000FC9111970190F081E02D8489958912961F
:100AC000CD91DC9113978A179B0711F4D58BC48BBA
:100AD000868997898A179B0711F4D78BC68B209735
:100AE00031F014968D919C9115979D838C8314966B
:100AF0000D90BC91A02D109721F01396DC93CE930E
:100B0000129786899789892B21F484899589978BF7
:100B1000868BDF91CF910895EF92FF920F931F93F1
:100B2000CF93DF93FC0180917F02882309F4ACC04E
:100B300084859585A685B7850196A11DB11D8487FD
:100B40009587A687B7874081518162817381841719
:100B50009507A607B70709F097C080899189A289F0
:100B6000B3890196A11DB11D4481558166817781AC
:100B7000481759076A077B0718F480E090E0DC010A
:100B8000808B918BA28BB38B148615861686178665
:100B9000C689D789209709F477C04A855B856C851B
:100BA0007D85481759076A077B0709F06DC0CE019C
:100BB000DC011296ED90FC90E114F10469F0D7018C
:100BC0001A960D911D912D913C911D97401751073B
:100BD0006207730709F45FC02C813D81211531053F
:100BE00029F0D9011396FC92EE921297E114F104C8
:100BF00029F0D70115963C932E93149724893589B3
:100C0000C217D30711F4F58AE48AE114F10409F458
:100C100044C0F78AE68A8F01FC0113821282EA80BF
:100C2000FB80E881F9810280F381E02DCE010995F6
:100C30008E819F81A885B9850097A105B10591F1A5
:100C40004A855B856C857D85840F951FA61FB71F20
:100C5000F8014481558166817781481759076A07F1
:100C60007B0740F44095509560957095840F951FD3
:100C7000A61FB71F8A879B87AC87BD87CE010E94BE
:100C8000D004E701209759F6DF91CF911F910F9182
:100C9000FF90EF900895C7018BCF24893589378B5A
:100CA000268BB9CF1E86EDCFFC0182810C94B20356
:100CB0000E947306809168010895809368010E94E4
:100CC00038040E94CC040C9433040C947A0BCF9318
:100CD000C82F0E94DB02811102C00E94B80B8C2F2A
:100CE000CF910C948B0080918C028130D9F080914F
:100CF000840290918502A0918602B0918702892B8F
:100D00008A2B8B2B79F481E04091880250918902E3
:100D100060918A0270918B02452B462B472B19F468
:100D200080E0089581E0089510928C02109288026C
:100D30001092890210928A0210928B021092840201
:100D40001092850210928602109287028091800292
:100D500090918102A0918202B091830280938D02D2
:100D600090938E02A0938F02B093900208950E94F8
:100D7000BB0B80918D0290918E02A0918F02B09159
:100D800090020196A11DB11D80938D0290938E0259
:100D9000A0938F02B0939002809188029091890273
:100DA000A0918A02B0918B020196A11DB11D809382
:100DB000880290938902A0938A02B0938B020895CF
:100DC0008091880290918902A0918A02B0918B0251
:100DD0000097A105B10569F140918D0250918E02F5
:100DE00060918F027091900241505109610971091F
:100DF00040938D0250938E0260938F027093900205
:100E00000197A109B1098093880290938902A09368
:100E10008A02B0938B0280918D0290918E02A091F4
:100E20008F02B0919002892B8A2B8B2B11F40C949A
:100E3000B90B08958091880290918902A0918A024D
:100E4000B0918B02892B8A2B8B2B89F480918402A1
:100E500090918502A0918602B0918702892B8A2BFE
:100E60008B2B29F40E94BB0B81E080938C020895A8
:100E700080918C02882321F010928C020C94B90B83
:100E800008950E94BF0B80918D0290918E02A091D7
:100E90008F02B09190020196A11DB11D80938D0229
:100EA00090938E02A0938F02B0939002809184025F
:100EB00090918502A0918602B09187020196A11DB2
:100EC000B11D8093840290938502A0938602B09313
:100ED000870208958091840290918502A0918602F4
:100EE000B09187020097A105B10569F140918D028B
:100EF00050918E0260918F02709190024150510981
:100F00006109710940938D0250938E0260938F02A4
:100F1000709390020197A109B10980938402909384
:100F20008502A0938602B093870280918D029091F2
:100F30008E02A0918F02B0919002892B8A2B8B2B6D
:100F400011F40C94BD0B08950E947306882311F0D0
:100F500083E1089580E00895CF93C82F0E9473061F
:100F60008C2F0E94B203C82F80917A0181110E94B8
:100F700019048C2FCF910895CF930E947306C3E17B
:100F8000811101C0C0E0E0916D01F0916E0182819C
:100F9000815082830E94A20381E0809379010E94A4
:100FA000E3038C2FCF910895CF93C82F0E9473062F
:100FB000E0916D01F0916E018281815082838C2FCE
:100FC0000E94B203C82F81110AC00E94A20381E0CF
:100FD000809379010E94E3038C2FCF910895E091D3
:100FE0006D01F0916E0182818F5F8283F5CFCF9387
:100FF0000E947306C3E1811101C0C0E080917101BC
:101000000E9427030E94190480917101909172013E
:10101000A0917301B09174014091750150917601D6
:10102000609177017091780184179507A607B7073B
:1010300011F40E94F9028C2FCF910895CF93DF9382
:10104000EC010E947306882391F083E140917101C5
:101050005091720160917301709174014330510598
:101060006105710534F44883DF91CF91089580E0E4
:10107000EDCF9091D8019883F7CF0F931F93CF9323
:10108000C82F8B010E947306882389F083E1EC2F1F
:10109000EE0FFF0BE650FE4F0190F081E02D9481A2
:1010A0009370F8019083CF911F910F91089580E084
:1010B000EECF880F990BFC01E650FE4FA081B18165
:1010C000ED91FC911197309769F01D921C9220913F
:1010D000D80193818481228314821382E92FF82F0F
:1010E0003097B9F70895CF93C82F0E9473068823CD
:1010F00081F183E1EC2FF0E0EE0FFF1FEE5BFD4F7F
:101100000190F081E02D909171019283A0916D0189
:10111000B0916E012D913C911197348323831196E8
:10112000FC93EE9313969C9113979183208196954F
:10113000921768F430E0F901EF56FD4F908191501D
:101140009083220F331F9170922B13969C93CF9113
:10115000089580E0CFCFCF93DF93C82F0E9473060E
:10116000D3E1811101C0D0E0EC2FF0E0EE0FFF1FC2
:10117000EE5BFD4F0190F081E02DA0916D01B091EB
:101180006E01818113968C931397838194818D9343
:101190009C93148213828091D80182830E94190447
:1011A0008D2FDF91CF910895DC01ED91FC91848129
:1011B0009581DC01ED91FC9109941F93CF93DF930E
:1011C000182FEB010E947306882361F183E1E12F60
:1011D000F0E0EE0FFF1FE752FE4F0190F081E02D8F
:1011E0000190F081E02D0190F081E02D408151814E
:1011F000628173814C835D836E837F8344815581DB
:1012000066817781488359836A837B8340855185D2
:1012100062857385488759876A877B87DF91CF917D
:101220001F91089580E0D3CF8F929F92AF92BF928B
:10123000CF92DF92EF92FF920F931F93CF93C82F1D
:101240008B010E9473068823E9F183E1EC2FF0E023
:10125000EE0FFF1FE752FE4F0190F081E02D9685C3
:10126000913091F542855385648575850190F081B3
:10127000E02D0190F081E02DC088D188E288F388CC
:101280004C155D056E057F0540F484809580A68031
:10129000B780480D591D6A1D7B1D4C195D096E09EB
:1012A0007F09F8014083518362837383CF911F913B
:1012B0000F91FF90EF90DF90CF90BF90AF909F90F5
:1012C0008F90089580E0C2CF85E0F0CF8F929F92FB
:1012D000AF92BF92CF92DF92EF92FF920F931F9344
:1012E000CF93DF93D82F6A017B01480159010E94F7
:1012F0007306C3E1811101C0C0E0ED2FF0E0EE0FF5
:10130000FF1FE752FE4F0190F081E02D868581118D
:101310003DC0A081B1810D90BC91A02D50964D9102
:101320005D916D917C9153974C0D5D1D6E1D7F1DE0
:1013300014968D919D910D90BC91A02D84179507C9
:10134000A607B70740F4481B590B6A0B7B0B4150AB
:1013500051096109710942875387648775878682BD
:101360009782A086B18681E08687CF010E94D00453
:101370008C2FDF91CF911F910F91FF90EF90DF9015
:10138000CF90BF90AF909F908F900895C7E0F0CF1F
:101390008F929F92AF92BF92CF92DF92EF92FF9285
:1013A0000F931F93CF93DF93C82F4A015B0168010E
:1013B00079010E947306D3E1811101C0D0E0EC2FC6
:1013C000F0E0EE0FFF1FE752FE4F0190F081E02D9D
:1013D000868581111BC082869386A486B586C682C7
:1013E000D782E086F18681E08687CF010E94D00413
:1013F0008D2FDF91CF911F910F91FF90EF90DF9094
:10140000CF90BF90AF909F908F900895D7E0F0CF8E
:101410000F931F93CF93DF93C82F0E947306D3E1DE
:10142000811101C0D0E0EC2FF0E0EE0FFF1FE7527A
:10143000FE4F00811181F8018685813059F4C80181
:101440000E945405F80116868D2FDF91CF911F91D0
:101450000F910895D5E0F8CF0E943F0B61E08DE039
:101460000E947D0A80914C020C94670661E08DE039
:101470000E94B90A0C94B30060E08DE00E94B90AA2
:101480000C94B300809145020E94E30080914402D5
:101490000E94E30080E00E948F000C94B30087EB71
:1014A00091E00C9424010895833081F028F4813078
:1014B00099F08230A9F008958730A9F08830C9F0FA
:1014C0008430B1F4809180008F7D03C080918000D2
:1014D0008F7780938000089584B58F7784BD0895B9
:1014E00084B58F7DFBCF8091B0008F778093B00063
:1014F00008958091B0008F7DF9CFCF93DF9390E076
:10150000FC01E458FF4F249180579F4FFC018491C8
:101510008823C9F090E0880F991FFC01E255FF4F26
:10152000A591B491FC01EC55FF4FC591D491611187
:101530000DC09FB7F8948C91209582238C9388815D
:10154000282328839FBFDF91CF910895623051F403
:101550009FB7F8943C91822F809583238C93E881E8
:101560002E2BEFCF8FB7F894EC912E2B2C938FBFAF
:10157000EACF1F93CF93DF93282F30E0F901E8598A
:10158000FF4F8491F901E458FF4FD491F901E057DE
:10159000FF4FC491CC23A9F0162F81110E94540A49
:1015A000EC2FF0E0EE0FFF1FEC55FF4FA591B4912B
:1015B0008FB7F894EC91111108C0D095DE23DC931D
:1015C0008FBFDF91CF911F910895DE2BF8CF1F922F
:1015D0000F920FB60F9211242F933F934F935F9367
:1015E0006F937F938F939F93AF93BF93EF93FF93EB
:1015F00080919C0290919D02A0919E02B0919F02C9
:1016000030919B0223E0230F2D3798F50196A11D01
:10161000B11D20939B0280939C0290939D02A09306
:101620009E02B0939F028091A0029091A102A0918E
:10163000A202B091A3020196A11DB11D8093A00248
:101640009093A102A093A202B093A3020E944F0A1A
:10165000FF91EF91BF91AF919F918F917F916F918A
:101660005F914F913F912F910F900FBE0F901F9060
:10167000189526E8230F0296A11DB11DCACF84B587
:10168000826084BD84B5816084BD85B5826085BD7E
:1016900085B5816085BDEEE6F0E080818160808364
:1016A000E1E8F0E010828081826080838081816047
:1016B0008083E0E8F0E0808181608083E1EBF0E00E
:1016C000808184608083E0EBF0E0808181608083B2
:1016D000EAE7F0E08081846080838081826080839B
:1016E0008081816080838081806880831092C100C6
:1016F0000895FFCFFFCFCF93DF93880F990BFC01A5
:10170000EE5FFD4FC081D181EC81FD8131978A81EF
:101710009B81E80FF91F8D85DF011197823029F534
:101720008BEA90E080839C939E818F81DF011297EA
:101730009C9311978C93CF0104979F0129503109F5
:101740001E92A217B307E1F720E8DF011A972C9346
:1017500042971E92A817B907E1F7A881B981779738
:10176000ED93FC93DF91CF91089587EC90E0DACF71
:10177000089578940895F894089578940895F894C5
:10178000089508950E943F0B0E94C10B0E94530AC6
:101790000E942C0A8091A4020E94670690E080E0DB
:1017A000089580914C028093A402089508951F9299
:1017B0000F920FB60F9211242F933F934F935F9385
:1017C0006F937F938F939F93AF93BF93EF93FF9309
:1017D000E091D401F091D5010995FF91EF91BF916E
:1017E000AF919F918F917F916F915F914F913F91B9
:1017F0002F910F900FBE0F901F9018951F920F9270
:101800000FB60F9211242F933F934F935F936F93D3
:101810007F938F939F93AF93BF93EF93FF93E09149
:10182000D601F091D7010995FF91EF91BF91AF914A
:101830009F918F917F916F915F914F913F912F91E8
:101840000F900FBE0F901F901895F8940C942E0CCB
:10185000EE0FFF1F0590F491E02D0994F894FFCF4F
:101860000000000000000000000000000000000078
:101870000000000000000000000000000000000068
:101880000000000000000000000000000000000058
:101890000000000000000000000000000000000048
:1018A0000000000000000000000000000000000038
:1018B0000000000000000000000000000000000028
:1018C0000000000000000000FF000034020000964D
:1018D00002FFFFFFFFFFFFFFFF0000DF010000002E
:1018E00000000000007017000002E8010000000086
:1018F000EE020000DC05000002F10100000000F42F
:10190000010000F4010000020000000300000000DC
:101910000204000000010001000000FFFF000001C0
:1019200000000000000000000000000000000004B3
:1019300000FF0000D60BD60BFF99018A017B01B78F
:1019400001D408E501540602B701D408EE0154069B
:1019500000B701D408F701540601B201AD01A80196
:101960009602260218020A023402A9020704800025
:10197000420A000002030100A70237038000360A72
:10198000000001020100A502B50280003C0A00002F
:10199000000101003503B7035000790B000003007C
:1019A0000100CF010100010101000100006A0738B8
:1019B0000741071A07B904B706A604E006BC075D8D
:1019C0000665067308AC07AB08D407DD081E0814CB
:0E19D0000958066609F707C809080A3D08000D
:00000001FF
