:100000000C9463000C94700C0C94970C0C948B0063
:100010000C948B000C948B000C948B000C948B0034
:100020000C948B000C948B000C948B000C948B0024
:100030000C948B000C948B000C948B000C948B0014
:100040000C94740B0C948B000C94BF0D0C94F10D5C
:100050000C948B000C948B000C948B000C948B00F4
:100060000C948B000C948B0000000008000201002F
:100070000003040700000000000000000102040863
:100080001020408001020408102001020408102002
:10009000040404040404040402020202020203032E
:1000A00003030303000000002300260029000000D2
:1000B0000000250028002B0000000000240027007D
:1000C0002A006A0C170E11241FBECFEFD8E0DEBF46
:1000D000CDBF12E0A0E0B1E0EEE3FFE102C0059089
:1000E0000D92AA36B107D9F724E0AAE6B2E001C022
:1000F0001D92A639B207E1F710E0C3E6D0E004C0D4
:100100002197FE010E94970FC136D107C9F70E94BF
:100110005B0C0C94720F0C940000E2E10E9432011F
:100120000895E9E00E9432010895EAE00E94320158
:100130000895E1E00E9432010895E3E00E94320157
:100140000895E7E00E9432010895E5E00E9432013F
:100150000895E0E00E9432010895E2E00E94320139
:100160000895E4E00E9432010895ECE00E9432011B
:100170000895E8E00E9432010895EEE00E94320105
:100180000895E4E10E9432010895E0E10E94320105
:100190000895E7E10E9432010895E6E00E943201ED
:1001A0000895EBE00E9432010895EDE00E943201D3
:1001B0000895EFE00E9432010895E1E10E943201CA
:1001C0000895E3E10E9432010895E5E10E943201C1
:1001D0000895E6E10E943201089521968A929A924A
:1001E000AA92BA92CA92DA92EA92FA920A931A936D
:1001F0002197E0916901F0916A010080F181E02D81
:10020000C083D1830895C0916B01D0916C01E881C6
:10021000F981C081D181219619910991F990E990D4
:10022000D990C990B990A9909990899021970895F3
:100230002F903F90E7E6F1E0CDB7DEB7EDBFFEBF10
:100240003F922F9208952F903F90CDBFDEBF3F92F7
:100250002F920895E0E80E9432010895E0E40E94A0
:10026000320108952F923F924F925F926F927F9248
:100270002FB62F92CF93DF937E2EF894E09100015A
:10028000EF5FE0930001E13011F40E941801E0E01B
:10029000E0937901E72DE07849F00E948D05F09117
:1002A0007A01F17071F00E941F040BC0E72DEC3150
:1002B00040F4EE0FF0E0EC5DFD4F0190F081E02D99
:1002C0000995F0917901EF2FE17059F0F27011F07A
:1002D0000E94ED008F938F2F0E9469038F910E94DF
:1002E000030120910001215020930001222311F4E9
:1002F0000E942301DF91CF912F902FBE7F906F90AE
:100300005F904F903F902F900895FC014081FB013A
:100310003081842F8F7090E0B0E0A0E0B695A79573
:10032000979587958B579D4FFC018081242F281B23
:1003300021704E70242B832F8F7090E0B0E0A0E0EE
:10034000B695A795979587958B579D4FFC01808112
:10035000932F981B91703E70932B41E050E029172A
:1003600010F050E040E0CA0108958F929F92AF9242
:10037000BF92EF92FF920F931F93CF93DF937C0175
:100380004A015B01B694A794979487944230510533
:100390006105710580F0440F551F8701040F151F7B
:1003A000E401CC0FDD1FCE0DDF1DB801CE010E9490
:1003B0008501892B59F4DF91CF911F910F91FF9007
:1003C000EF90BF90AF909F908F900895F80190812B
:1003D0008181288139813183208398838983B50184
:1003E000A401D0CF4F925F926F927F928F929F9293
:1003F000AF92BF92CF92DF92EF92FF920F931F9333
:10040000CF93DF9300D000D000D0CDB7DEB78C0102
:100410006A017B01DC018C91282F30E050E040E044
:1004200029833A834B835C8346015701880C991CCE
:10043000AA1CBB1C29813A814B815C812815390596
:100440004A055B05B8F426960FB6F894DEBF0FBEDA
:10045000CDBFDF91CF911F910F91FF90EF90DF9073
:10046000CF90BF90AF909F908F907F906F905F9054
:100470004F900895240135013FEF431A530A630A50
:10048000730A89819A81AB81BC8184159505A60583
:10049000B70580F0B201660F771F600F711FC401AE
:1004A000880F991F800F911F0E948501892B11F0E1
:1004B000530142013401660C771C600E711ECC0C96
:1004C000DD1CD801AC0DBD1DBE83AD83B301CD01D4
:1004D0000E948501892B09F4B6CFED81FE819081C0
:1004E0008181D3012D913C911197318320839C937D
:1004F00011968C937501640197CFEAE3F3E0408194
:100500004F5F408350E070E060E0E82FEE0FFF0B9C
:10051000E651FE4F0190F081E02D238530E0F90196
:10052000EB57FD4F908191509083FA01EE0FFF1F22
:10053000E65CFC4F220F331F9170922B90838183D6
:100540008AE393E00C94B501EAE3F3E040814F5F66
:10055000408350E070E060E0FA01EE0FFF1FE65CC0
:10056000FC4FA82FAA0FBB0BAC51BE4F0D90BC91F6
:10057000A02D13969C91908381838AE393E00C9441
:10058000B501CF93DF93EAE3F3E080819FEF980F0B
:100590009083D281C38190E0880F991F865C9C4F25
:1005A000DC018D919C919383828341E050E060E077
:1005B00070E0CF010E94F2018D2F9C2FDF91CF912F
:1005C000089580916A02811114C080917101909107
:1005D0007201A0917301B09174018F3F2FEF9207C8
:1005E000A207B20741F00297A105B10534F481E0FA
:1005F000089584E0089580E0089582E00895CF93FF
:10060000DF93880F990BFC01E651FE4F0190F081BA
:10061000E02D0084F185E02D3097E1F02281211159
:1006200019C021E022838C519E4FEC01A881B98131
:1006300013968C9113978183208130E0F901EB5759
:10064000FD4F808181508083220F331F8170822B68
:1006500013968C93DF91CF910895CF93DF93880FFA
:10066000990BFC01E651FE4F0190F081E02D0084D2
:10067000F185E02D309761F02281213049F412821A
:100680008C519E4FEC01A881B981818113968C9386
:10069000DF91CF9108958091750190917601A0919D
:1006A0007701B09178014091710150917201609190
:1006B000730170917401481759076A077B0741F06D
:1006C000E0916F01F091700121E024830C94A40269
:1006D0000895CF93DF93D0E0C0E0882389F0C091E4
:1006E0006901D0916A01E0916D01F0916E01848100
:1006F000833031F081E08483809171010E94A402F3
:10070000E0916F01F0917001F0936E01E0936D0143
:1007100080916B0190916C0190936A0180936901C3
:100720008091750130917601209177019091780147
:10073000809371013093720120937301909374013F
:1007400092E094830E94FF02CE01DF91CF91089541
:10075000809171010E942D03E0916D01F0916E0175
:100760008281882319F085E0848308951482089596
:10077000CF93DF93282F220F330BF901EC51FE4F5B
:10078000C081D1819A8126513E4FD901ED91FC91D2
:100790002485921780F4911105C095E09C8391E027
:1007A00090937A010E947D028A818F5F8A8380E024
:1007B000DF91CF91089584E0FBCFE82FEE0FFF0B80
:1007C000EC51FE4F0190F081E02D118210820C94CB
:1007D000140C1F93CF93DF930E94C102182F892F0F
:1007E000492F092E000C550B660B770B40937501B2
:1007F000509376016093770170937801292F220F2F
:10080000330BF901EC51FE4FC081D181D0937001BF
:10081000C0936F0126513E4FF90120813181309301
:100820006C0120936B019C81953019F40E94DD03CB
:100830001B8310927A01DF91CF911F910895E0916F
:100840007501F0917601EE0FFF1FEC51FE4F019004
:10085000F081E02D90913C038381891740F40E9440
:100860004B030E94E90383E080937901089580E0BF
:10087000FBCF81E0809379010C94E903CF93DF9360
:10088000C1E0D0E001C0CC0F8A95EAF72091EE01DB
:100890003091EF018091E8019091E90110923A03C3
:1008A00010926A011092690130936C0120936B01E0
:1008B00010926E0110926D019093700180936F0100
:1008C0008FEF9FEFDC018093710190937201A093F1
:1008D0007301B09374018093750190937601A09396
:1008E0007701B09378011092790110927A0182E039
:1008F0000E94B803809121028C2319F080E00E94AD
:10090000B803809122028C2319F081E00E94B80381
:1009100080911F028C2349F08091CE019091CF01EC
:1009200021E0FC0126870E94D10480912002C82387
:1009300059F08091D0019091D10121E0FC012687EE
:10094000DF91CF910C94D104DF91CF9108950E9453
:10095000740681110E949506E0916D01F0916E017F
:1009600080819181892B21F0809171010E945A0828
:100970000C94BD070E94740681110E949506E091B7
:100980006D01F0916E0180819181892B21F0809120
:1009900071010E945A080C94A50781E080936B02B4
:1009A0000895CF92DF92EF92FF920F931F93CF9310
:1009B000DF93FC01A081B1810D90BC91A02D5496D4
:1009C0008D919C915597009709F445C042855385B8
:1009D0006485758530E020E0EC01CA84DB84EC841A
:1009E000FD844C155D056E057F0508F049C08C013E
:1009F00013830283358324830115110519F0E8015F
:100A0000FD83EC832115310509F444C0E901FB8322
:100A1000EA835696CD91DC9157970A851B852C85E4
:100A20003D855096CD90DD90ED90FC9053970C1540
:100A30001D052E053F0598F5C416D506E606F706F2
:100A400028F0401751076207730788F45796FC9304
:100A5000EE9356970CC05596FC93EE935497579689
:100A6000FC93EE9356971582148213821282DF91C3
:100A7000CF911F910F91FF90EF90DF90CF9008954D
:100A8000EC010A811B819C010115110509F4B0CF0D
:100A9000C801A2CF5596FC93EE935497BACFC416D3
:100AA000D506E606F70668F2E2CFCF93DF93DC01C6
:100AB000ED91FC9111970190F081E02D8489958949
:100AC0001296CD91DC9113978A179B0711F4D58B61
:100AD000C48B868997898A179B0711F4D78BC68B9D
:100AE000209731F014968D919C9115979D838C835E
:100AF00014960D90BC91A02D109721F01396DC93C5
:100B0000CE93129786899789892B21F484899589B8
:100B1000978B868BDF91CF910895EF92FF920F9381
:100B20001F93CF93DF93FC0180916B02882309F41C
:100B3000ACC084859585A685B7850196A11DB11D9C
:100B400084879587A687B7874081518162817381A9
:100B500084179507A607B70709F097C08089918980
:100B6000A289B3890196A11DB11D44815581668179
:100B70007781481759076A077B0718F480E090E0EF
:100B8000DC01808B918BA28BB38B14861586168625
:100B90001786C689D789209709F477C04A855B856F
:100BA0006C857D85481759076A077B0709F06DC07A
:100BB000CE01DC011296ED90FC90E114F10469F095
:100BC000D7011A960D911D912D913C911D974017BB
:100BD00051076207730709F45FC02C813D8121151D
:100BE000310529F0D9011396FC92EE921297E11487
:100BF000F10429F0D70115963C932E93149724897C
:100C00003589C217D30711F4F58AE48AE114F10497
:100C100009F444C0F78AE68A8F01FC01138212822C
:100C2000EA80FB80E881F9810280F381E02DCE012A
:100C300009958E819F81A885B9850097A105B10589
:100C400091F14A855B856C857D85840F951FA61F74
:100C5000B71FF8014481558166817781481759078C
:100C60006A077B0740F44095509560957095840F16
:100C7000951FA61FB71F8A879B87AC87BD87CE01AC
:100C80000E94D104E701209759F6DF91CF911F917F
:100C90000F91FF90EF900895C7018BCF248935897C
:100CA000378B268BB9CF1E86EDCFFC0182810C9449
:100CB000B8030E94740680916801089580936801CA
:100CC0000E943E040E94CD040C9439040C94130C31
:100CD000CF93C82F0E94E102811102C00E94510CE3
:100CE0008C2FCF910C949100809178028130D9F0B3
:100CF0008091700290917102A0917202B091730282
:100D0000892B8A2B8B2B79F481E0409174025091CE
:100D100075026091760270917702452B462B472B26
:100D200019F480E0089581E00895109278021092FD
:100D3000740210927502109276021092770210924D
:100D400070021092710210927202109273028091DE
:100D50006C0290916D02A0916E02B0916F0280932F
:100D6000790290937A02A0937B02B0937C0208955B
:100D70000E94540C8091790290917A02A0917B029A
:100D8000B0917C020196A11DB11D809379029093D0
:100D90007A02A0937B02B0937C02809174029091BE
:100DA0007502A0917602B09177020196A11DB11D46
:100DB0008093740290937502A0937602B0937702A9
:100DC00008958091740290917502A0917602B0917D
:100DD00077020097A105B10569F140917902509120
:100DE0007A0260917B0270917C0241505109610945
:100DF00071094093790250937A0260937B02709359
:100E00007C020197A109B109809374029093750245
:100E1000A0937602B09377028091790290917A0242
:100E2000A0917B02B0917C02892B8A2B8B2B11F431
:100E30000C94520C08958091740290917502A091C7
:100E40007602B0917702892B8A2B8B2B89F48091C3
:100E5000700290917102A0917202B0917302892B7D
:100E60008A2B8B2B29F40E94540C81E0809378020A
:100E7000089580917802882321F0109278020C94D2
:100E8000520C08950E94580C8091790290917A0238
:100E9000A0917B02B0917C020196A11DB11D8093AF
:100EA000790290937A02A0937B02B0937C028091A6
:100EB000700290917102A0917202B091730201963A
:100EC000A11DB11D8093700290937102A0937202D4
:100ED000B093730208958091700290917102A09175
:100EE0007202B09173020097A105B10569F14091BA
:100EF000790250917A0260917B0270917C0241509C
:100F00005109610971094093790250937A02609303
:100F10007B0270937C020197A109B1098093700252
:100F200090937102A0937202B09373028091790240
:100F300090917A02A0917B02B0917C02892B8A2B3E
:100F40008B2B11F40C94560C08950E947406882380
:100F500011F083E1089580E00895CF93C82F0E9497
:100F600074068C2F0E94B803C82F80917A018111DA
:100F70000E941F048C2FCF910895CF930E94740676
:100F8000C3E1811101C0C0E0E0916D01F0916E01FB
:100F90008281815082830E94A80381E0809379013D
:100FA0000E94E9038C2FCF910895CF93C82F0E9400
:100FB0007406E0916D01F0916E018281815082830F
:100FC0008C2F0E94B803C82F81110AC00E94A80369
:100FD00081E0809379010E94E9038C2FCF910895DD
:100FE000E0916D01F0916E0182818F5F8283F5CF78
:100FF000CF930E947406C3E1811101C0C0E08091CB
:1010000071010E942D030E941F0480917101909133
:101010007201A0917301B0917401409175015091DA
:101020007601609177017091780184179507A60782
:10103000B70711F40E94FF028C2FCF910895CF9330
:10104000DF93EC010E947406882391F083E14091C4
:10105000710150917201609173017091740142307D
:1010600051056105710534F44883DF91CF910895EE
:1010700080E0EDCF9091C9019883F7CF0F931F9334
:10108000CF93C82F8B010E947406882389F083E1D7
:10109000EC2FEE0FFF0BEC51FE4F0190F081E02D95
:1010A00094819370F8019083CF911F910F910895CF
:1010B00080E0EECF880F990BFC01EC51FE4FA08130
:1010C000B181ED91FC911197309769F01D921C92BE
:1010D0002091C90193818481228314821382E92F94
:1010E000F82F3097B9F70895CF93C82F0E94740650
:1010F000882381F183E1EC2FF0E0EE0FFF1FE65E25
:10110000FD4F0190F081E02D909171019283A091AB
:101110006D01B0916E012D913C9111973483238321
:101120001196FC93EE9313969C91139791832081D3
:101130009695921768F430E0F901EB57FD4F9081D6
:1011400091509083220F331F9170922B13969C9392
:10115000CF91089580E0CFCFCF93DF93C82F0E9427
:101160007406D3E1811101C0D0E0EC2FF0E0EE0F66
:10117000FF1FE65EFD4F0190F081E02DA0916D0113
:10118000B0916E01818113968C9313978381948122
:101190008D939C93148213828091C90182830E9453
:1011A0001F048D2FDF91CF910895DC01ED91FC910B
:1011B00084819581DC01ED91FC9109941F93CF937B
:1011C000DF93182FEB010E947406882361F183E1FD
:1011D000E12FF0E0EE0FFF1FE253FE4F0190F08190
:1011E000E02D0190F081E02D0190F081E02D408113
:1011F0005181628173814C835D836E837F834481DF
:10120000558166817781488359836A837B834085D2
:10121000518562857385488759876A877B87DF9107
:10122000CF911F91089580E0D3CF8F929F92AF927C
:10123000BF92CF92DF92EF92FF920F931F93CF93C3
:10124000C82F8B010E9474068823E9F183E1EC2FFB
:10125000F0E0EE0FFF1FE253FE4F0190F081E02D12
:101260009685913091F54285538564857585019009
:10127000F081E02D0190F081E02DC088D188E288D6
:10128000F3884C155D056E057F0540F484809580DC
:10129000A680B780480D591D6A1D7B1D4C195D093C
:1012A0006E097F09F8014083518362837383CF9174
:1012B0001F910F91FF90EF90DF90CF90BF90AF9074
:1012C0009F908F90089580E0C2CF85E0F0CF8F92FD
:1012D0009F92AF92BF92CF92DF92EF92FF920F93C5
:1012E0001F93CF93DF93D82F6A017B0148015901E7
:1012F0000E947406C3E1811101C0C0E0ED2FF0E04F
:10130000EE0FFF1FE253FE4F0190F081E02D868526
:1013100081113DC0A081B1810D90BC91A02D50964E
:101320004D915D916D917C9153974C0D5D1D6E1D9E
:101330007F1D14968D919D910D90BC91A02D8417C9
:101340009507A607B70740F4481B590B6A0B7B0BA0
:101350004150510961097109428753876487758734
:1013600086829782A086B18681E08687CF010E941F
:10137000D1048C2FDF91CF911F910F91FF90EF90AF
:10138000DF90CF90BF90AF909F908F900895C7E06F
:10139000F0CF8F929F92AF92BF92CF92DF92EF9257
:1013A000FF920F931F93CF93DF93C82F4A015B01E6
:1013B000680179010E947406D3E1811101C0D0E077
:1013C000EC2FF0E0EE0FFF1FE253FE4F0190F08193
:1013D000E02D868581111BC082869386A486B58602
:1013E000C682D782E086F18681E08687CF010E949F
:1013F000D1048D2FDF91CF911F910F91FF90EF902E
:10140000DF90CF90BF90AF909F908F900895D7E0DE
:10141000F0CF0F931F93CF93DF93C82F0E947406D2
:10142000D3E1811101C0D0E0EC2FF0E0EE0FFF1FFF
:10143000E253FE4F00811181F8018685813059F415
:10144000C8010E945505F80116868D2FDF91CF91B6
:101450001F910F910895D5E0F8CF26E040E052ECBF
:1014600061E070E089E992E00E94100F60E080E0A6
:101470000E940F0B809123020C946806CF93DF9398
:10148000C0911E028C2F0E94D10080E00E944B0B65
:101490008130910539F580917D0281111CC0D1E028
:1014A000D0937D020E94CC0B20917E0230917F026E
:1014B000621B730B6436710544F0633D710514F0D3
:1014C000D093810281E0809380020E94CC0B7093C4
:1014D0007F0260937E028C2F0E94D500DF91CF9116
:1014E0000C94B900892BB9F780917D02882399F378
:1014F00010927D02809183029091840201969093D4
:1015000084028093830280918302909184020A97DF
:1015100021F410928402109283020E94CC0B20913D
:101520007E0230917F02621B730B6C3371056CF28B
:1015300081E080938202C9CFEF92FF921F93CF93F5
:10154000DF93C0911E028C2F0E94D10080918002F7
:1015500081110AC08C2F0E94D500DF91CF911F917D
:10156000FF90EF900C94B900E0908302F090840219
:1015700010918202D0918102109284021092830213
:101580001092820210928102109280028C2F0E948F
:10159000D5004AE050E0B70189E992E00E94B80D19
:1015A000112331F06AEC71E089E992E00E94FA0CB3
:1015B000DD2399F26CEC71E089E992E00E940D0D57
:1015C000CCCF83EA91E00C942A010895833081F016
:1015D00028F4813099F08230A9F008958730A9F07D
:1015E0008830C9F08430B1F4809180008F7D03C0D1
:1015F000809180008F7780938000089584B58F77E5
:1016000084BD089584B58F7DFBCF8091B0008F7726
:101610008093B00008958091B0008F7DF9CFCF9373
:10162000DF9390E0FC01E458FF4F249180579F4FD7
:10163000FC0184918823C9F090E0880F991FFC0178
:10164000E854FF4FA591B491FC01E255FF4FC591BD
:10165000D49161110DC09FB7F8948C91209582238D
:101660008C938881282328839FBFDF91CF91089591
:10167000623051F49FB7F8943C91822F8095832378
:101680008C93E8812E2BEFCF8FB7F894EC912E2B13
:101690002C938FBFEACFCF93DF93282F30E0F9014F
:1016A000E859FF4F8491F901E458FF4FD491F901B3
:1016B000E057FF4FC491CC23A1F081110E94E60AAC
:1016C000EC2FF0E0EE0FFF1FEC55FF4FA591B4910A
:1016D000EC91ED2381E090E009F480E0DF91CF917F
:1016E000089580E090E0FACF1F920F920FB60F920C
:1016F00011242F933F934F935F936F937F938F9317
:101700009F93AF93BF93EF93FF938091900290913B
:101710009102A0919202B091930230918F0223E046
:10172000230F2D3798F50196A11DB11D20938F022F
:101730008093900290939102A0939202B0939302AF
:101740008091940290919502A0919602B091970297
:101750000196A11DB11D8093940290939502A093D0
:101760009602B09397020E94E10AFF91EF91BF9118
:10177000AF919F918F917F916F915F914F913F9129
:101780002F910F900FBE0F901F90189526E8230FF2
:101790000296A11DB11DCACF2FB7F8946091900297
:1017A0007091910280919202909193022FBF0895BF
:1017B00084B5826084BD84B5816084BD85B5826056
:1017C00085BD85B5816085BDEEE6F0E080818160F4
:1017D0008083E1E8F0E010828081826080838081F4
:1017E00081608083E0E8F0E0808181608083E1EBCC
:1017F000F0E0808184608083E0EBF0E080818160B4
:101800008083EAE7F0E08081846080838081826069
:101810008083808181608083808180688083109252
:10182000C1000895FFCFFFCFCF93DF93880F990BAF
:10183000FC01E651FE4FC081D181EC81FD813197E1
:101840008A819B81E80FF91F8D85DF011197823016
:1018500029F581EB90E080839C939E818F81DF014D
:1018600012979C9311978C93CF0104979F01295055
:1018700031091E92A217B307E1F720E8DF011A979A
:101880002C9342971E92A817B907E1F7A881B98156
:101890007797ED93FC93DF91CF9108958DEC90E0D5
:1018A000DACF089578940895F89408957894089577
:1018B000F894089508950E94D80B0E945A0C0E9433
:1018C000E50A0E942D0A809198020E94680690E025
:1018D00080E00895809123028093980208950895EE
:1018E0001F920F920FB60F9211242F933F934F9395
:1018F0005F936F937F938F939F93AF93BF93EF9378
:10190000FF93E091C501F091C6010995FF91EF9118
:10191000BF91AF919F918F917F916F915F914F9107
:101920003F912F910F900FBE0F901F9018951F920F
:101930000F920FB60F9211242F933F934F935F9303
:101940006F937F938F939F93AF93BF93EF93FF9387
:10195000E091C701F091C8010995FF91EF91BF9106
:10196000AF919F918F917F916F915F914F913F9137
:101970002F910F900FBE0F901F901895AF92BF92AE
:10198000CF92DF92EF92FF920F931F93CF93DF934B
:101990006C017B018B01040F151FEB015E01AE187A
:1019A000BF08C017D10759F06991D601ED91FC919C
:1019B0000190F081E02DC6010995892B79F7C501C9
:1019C000DF91CF911F910F91FF90EF90DF90CF901B
:1019D000BF90AF900895FB0101900020E9F7319787
:1019E000AF01461B570BDC01ED91FC910280F381A6
:1019F000E02D09946115710511F00C94EB0C90E049
:101A000080E00895DC01ED91FC910190F081E02DE2
:101A1000099464E572E00C94EB0C0F931F93CF9341
:101A2000DF938C01D0E0C0E06115710519F00E94D0
:101A3000EB0CEC01C8010E94090D8C0F9D1FDF917A
:101A4000CF911F910F9108958F929F92AF92BF9265
:101A5000EF92FF920F931F93CF93DF93CDB7DEB733
:101A6000A1970FB6F894DEBF0FBECDBF7C01FA017F
:101A7000CB0119A2223008F42AE08E010F5D1F4F1E
:101A8000822E912CB12CA12CBF01A50194010E94A2
:101A9000750FF901CA016A300CF5605DD8016E93CB
:101AA0008D01232B242B252B79F790E080E01097D4
:101AB00021F0BD01C7010E94EB0CA1960FB6F8946E
:101AC000DEBF0FBECDBFDF91CF911F910F91FF9071
:101AD000EF90BF90AF909F908F900895695CDECF9C
:101AE000CF92DF92EF92FF920F931F93CF93DF93EA
:101AF0002115310581F4DC01ED91FC910190F0811B
:101B0000E02D642FDF91CF911F910F91FF90EF9007
:101B1000DF90CF9009942A30310501F52AE077FF54
:101B20001DC06A017B01EC016DE20E94020D8C0177
:101B300044275527BA014C195D096E097F092AE02F
:101B4000CE010E94240D800F911FDF91CF911F9134
:101B50000F91FF90EF90DF90CF900895DF91CF919C
:101B60001F910F91FF90EF90DF90CF900C94240D78
:101B70009A01AB01770F660B770B0C94700D1F92D7
:101B80000F920FB60F9211242F938F939F93EF9381
:101B9000FF93E091A902F091AA028081E091AF0247
:101BA000F091B00282FD1BC090818091B2028F5FE4
:101BB0008F732091B302821741F0E091B202F0E0FE
:101BC000E756FD4F958F8093B202FF91EF919F9161
:101BD0008F912F910F900FBE0F901F9018958081BD
:101BE000F4CF1F920F920FB60F9211242F933F93B1
:101BF0004F935F936F937F938F939F93AF93BF9315
:101C0000EF93FF9389E992E00E94810EFF91EF919B
:101C1000BF91AF919F918F917F916F915F914F9104
:101C20003F912F910F900FBE0F901F901895E9E9EB
:101C3000F2E01382128288EE93E0A0E0B0E08483A9
:101C40009583A683B7838BE592E09183808385ECAF
:101C500090E09587848784EC90E09787868780EC76
:101C600090E0918B808B81EC90E0938B828B82EC67
:101C700090E0958B848B86EC90E0978B868B118E11
:101C8000128E138E148E0895FC01918D228D892F52
:101C900090E0805C9F4F821B91098F739927089574
:101CA000FC01918D828D981731F0828DE80FF11D26
:101CB000858D90E008958FEF9FEF0895FC01918D41
:101CC000828D981761F0A28DAE0FBF2FB11D5D966A
:101CD0008C91928D9F5F9F73928F90E008958FEF0C
:101CE0009FEF0895FC01538D448D252F30E0842F04
:101CF00090E0821B930B541710F0CF960895019734
:101D00000895FC01A48DA80FB92FB11DA35ABF4F90
:101D10002C91848D90E001968F739927848FA689EA
:101D2000B7892C93A089B1898C91837080648C933E
:101D3000938D848D981306C00288F389E02D8081ED
:101D40008F7D80830895CF93DF93EC01888D882366
:101D5000B9F0AA89BB89E889F9898C9185FD03C00E
:101D6000808186FD0DC00FB607FCF7CF8C9185FFF3
:101D7000F2CF808185FFEDCFCE010E94810EE9CFA9
:101D8000DF91CF910895EF92FF920F931F93CF931E
:101D9000DF93EC0181E0888F9B8D8C8D98131AC0A6
:101DA000E889F989808185FF15C09FB7F894EE898D
:101DB000FF896083E889F9898081837080648083EA
:101DC0009FBF81E090E0DF91CF911F910F91FF9035
:101DD000EF900895F62E0B8D10E00F5F1F4F0F73DD
:101DE0001127E02E8C8D8E110CC00FB607FCFACF98
:101DF000E889F989808185FFF5CFCE010E94810EA7
:101E0000F1CFEB8DEC0FFD2FF11DE35AFF4FF08268
:101E10009FB7F8940B8FEA89FB8980818062CFCFCE
:101E2000CF92DF92EF92FF921F93CF93DF93EC015B
:101E30006A017B01122FE889F98982E08083C1144D
:101E400081EED806E104F104A1F060E079E08DE3D1
:101E500090E0A70196010E94750F215031094109B8
:101E600051095695479537952795211580E13807F3
:101E700098F0E889F989108260E874E88EE190E0D2
:101E8000A70196010E94750F21503109410951099E
:101E90005695479537952795EC85FD853083EE85DA
:101EA000FF852083188EEC89FD891083EA89FB89E0
:101EB000808180618083EA89FB898081886080835A
:101EC000EA89FB89808180688083EA89FB89808137
:101ED0008F7D8083DF91CF911F91FF90EF90DF90F6
:101EE000CF900895F8940C949D0FA1E21A2EAA1B8E
:101EF000BB1BFD010DC0AA1FBB1FEE1FFF1FA217BA
:101F0000B307E407F50720F0A21BB30BE40BF50BB6
:101F1000661F771F881F991F1A9469F7609570953F
:101F2000809590959B01AC01BD01CF010895EE0F06
:0E1F3000FF1F0590F491E02D0994F894FFCF67
:101F3E000000000000000000000000000000000093
:101F4E000000000000000000000000000000000083
:101F5E000000000000000000000000000000000073
:101F6E000000000000000000000000000000000063
:101F7E000000000000000000000000000000000053
:101F8E000000000000000000000000000000000043
:101F9E000000000000000000FF00000C0200008A9C
:101FAE0002FFFFFFFFFFFFFFFF0000D20100000056
:101FBE0000320000000100000002DB010000000002
:101FCE0005000000010000000200000002040000F5
:101FDE0000010401000000FFFF00000100000000EE
:101FEE0000000000000000000000000300FF0000E1
:101FFE000300FF00006F0C6F0CFF2A002F008A01F8
:10200E007B01A301D508D801550600A301D508E12F
:10201E00015506019E0199018A02FE01F0010C0292
:10202E003803C60380003E0A000001020100360399
:10203E00440380009C0A000000010100C403460412
:10204E005000120C000002000100C001BB01000193
:10205E00010101006B07390742071B07BA04B806D6
:10206E00A704E106BD075E0666067408AD07AC0858
:10207E00D507DE081F08150959066709F807C909AB
:10208E00090A3E080D0A0000000000C30EBE0C72C5
:0A209E000EA30E440E5E0E500E005D
:00000001FF
