:100000000C945E000C94BC0C0C94E30C0C948600D5
:100010000C9486000C9486000C9486000C94860048
:100020000C9486000C9486000C9486000C94860038
:100030000C9486000C9486000C9486000C94860028
:100040000C94B10B0C9486000C94150E0C94470E76
:100050000C9486000C9486000C9486000C94860008
:100060000C9486000C948600000000080002010039
:100070000003040700000000000000000102040863
:100080001020408001020408102001020408102002
:10009000040404040404040402020202020203032E
:1000A0000303030300000000250028002B000000CC
:1000B0000000240027002A00B60C6D0E11241FBE7C
:1000C000CFEFD8E0DEBFCDBF12E0A0E0B1E0EAEEB6
:1000D000FFE102C005900D92A23FB107D9F725E0DC
:1000E000A2EFB2E001C01D92AC3AB207E1F710E016
:1000F000CEE5D0E004C02197FE010E94ED0FCC3583
:10010000D107C9F70E94A70C0C94C80F0C940000EB
:10011000E2E10E942D010895E9E00E942D01089579
:10012000EAE00E942D010895E1E00E942D0108956A
:10013000E3E00E942D010895E7E00E942D0108955B
:10014000E5E00E942D010895E0E00E942D01089550
:10015000E2E00E942D010895E4E00E942D0108953F
:10016000ECE00E942D010895E8E00E942D01089521
:10017000EEE00E942D010895E4E10E942D01089512
:10018000E0E10E942D010895E7E10E942D0108950C
:10019000E6E00E942D010895EBE00E942D010895F4
:1001A000EDE00E942D010895EFE00E942D010895D9
:1001B000E1E10E942D010895E3E10E942D010895DF
:1001C000E5E10E942D010895E6E10E942D010895C8
:1001D00021968A929A92AA92BA92CA92DA92EA9254
:1001E000FA920A931A932197E0916901F0916A01BA
:1001F0000080F181E02DC083D1830895C0916B010F
:10020000D0916C01E881F981C081D1812196199149
:100210000991F990E990D990C990B990A9909990D5
:100220008990219708952F903F90E7E6F1E0CDB7B0
:10023000DEB7EDBFFEBF3F922F9208952F903F9003
:10024000CDBFDEBF3F922F920895E0E80E942D01BE
:100250000895E0E40E942D0108952F923F924F925D
:100260005F926F927F922FB62F92CF93DF937E2E65
:10027000F894E0910001EF5FE0930001E13011F4A8
:100280000E941301E0E0E0937901E72DE07849F066
:100290000E948D05F0917A01F17071F00E941A04AC
:1002A0000BC0E72DEC3140F4EE0FF0E0E355FD4FCD
:1002B0000190F081E02D0995F0917901EF2FE17027
:1002C00059F0F27011F00E94E8008F938F2F0E9476
:1002D00064038F910E94FE00209100012150209321
:1002E0000001222311F40E941E01DF91CF912F9073
:1002F0002FBE7F906F905F904F903F902F9008950A
:10030000FC014081FB013081842F8F7090E0B0E0D0
:10031000A0E0B695A795979587958A5E9C4FFC01BE
:100320008081242F281B21704E70242B832F8F70E7
:1003300090E0B0E0A0E0B695A795979587958A5E86
:100340009C4FFC018081932F981B91703E70932BE2
:1003500041E050E0291710F050E040E0CA01089554
:100360008F929F92AF92BF92EF92FF920F931F9343
:10037000CF93DF937C014A015B01B694A7949794D5
:100380008794423051056105710580F0440F551F77
:100390008701040F151FE401CC0FDD1FCE0DDF1DFB
:1003A000B801CE010E948001892B59F4DF91CF91D1
:1003B0001F910F91FF90EF90BF90AF909F908F9003
:1003C0000895F801908181812881398131832083CA
:1003D00098838983B501A401D0CF4F925F926F9229
:1003E0007F928F929F92AF92BF92CF92DF92EF92C5
:1003F000FF920F931F93CF93DF9300D000D000D0D4
:10040000CDB7DEB78C016A017B01DC018C91282F0E
:1004100030E050E040E029833A834B835C8346011F
:100420005701880C991CAA1CBB1C29813A814B815D
:100430005C81281539054A055B05B8F426960FB688
:10044000F894DEBF0FBECDBFDF91CF911F910F910A
:10045000FF90EF90DF90CF90BF90AF909F908F90E4
:100460007F906F905F904F900895240135013FEF8A
:10047000431A530A630A730A89819A81AB81BC814A
:1004800084159505A605B70580F0B201660F771FA4
:10049000600F711FC401880F991F800F911F0E9468
:1004A0008001892B11F0530142013401660C771C45
:1004B000600E711ECC0CDD1CD801AC0DBD1DBE83C1
:1004C000AD83B301CD010E948001892B09F4B6CF21
:1004D000ED81FE8190818181D3012D913C91119715
:1004E000318320839C9311968C937501640197CF7F
:1004F000EAE4F4E040814F5F408350E070E060E068
:10050000E82FEE0FFF0BE05AFD4F0190F081E02D38
:10051000238530E0F901EA5EFC4F90819150908391
:10052000FA01EE0FFF1FE65BFB4F220F331F9170A6
:10053000922B908381838AE494E00C94B001EAE4E6
:10054000F4E040814F5F408350E070E060E0FA01EA
:10055000EE0FFF1FE65BFB4FA82FAA0FBB0BA85A9D
:10056000BD4F0D90BC91A02D13969C9190838183DB
:100570008AE494E00C94B001CF93DF93EAE4F4E0D2
:1005800080819FEF980F9083D281C38190E0880F84
:10059000991F865B9B4FDC018D919C919383828395
:1005A00041E050E060E070E0CF010E94ED018D2F4E
:1005B0009C2FDF91CF9108958091F202811114C098
:1005C0008091710190917201A0917301B0917401B9
:1005D0008F3F2FEF9207A207B20741F00397A105C3
:1005E000B10534F481E0089584E0089580E0089531
:1005F00082E00895CF93DF93880F990BFC01E05AB6
:10060000FD4F0190F081E02D0084F185E02D3097C1
:10061000E1F02281211119C021E02283885A9D4FE7
:10062000EC01A881B98113968C9113978183208165
:1006300030E0F901EA5EFC4F808181508083220F17
:10064000331F8170822B13968C93DF91CF91089585
:10065000CF93DF93880F990BFC01E05AFD4F019077
:10066000F081E02D0084F185E02D309761F022814A
:10067000213049F41282885A9D4FEC01A881B9813A
:10068000818113968C93DF91CF91089580917501AC
:1006900090917601A0917701B0917801409171011C
:1006A000509172016091730170917401481759075C
:1006B0006A077B0741F0E0916F01F091700121E042
:1006C00024830C949F020895CF93DF93D0E0C0E081
:1006D000882389F0C0916901D0916A01E0916D0190
:1006E000F0916E018481833031F081E084838091C8
:1006F00071010E949F02E0916F01F0917001F093EF
:100700006E01E0936D0180916B0190916C0190936B
:100710006A01809369018091750130917601209181
:100720007701909178018093710130937201209349
:1007300073019093740192E094830E94FA02CE01B7
:10074000DF91CF910895809171010E942803E0917B
:100750006D01F0916E018281882319F085E0848318
:10076000089514820895CF93DF93282F220F330B1F
:10077000F901E85AFD4FC081D1819A81205A3D4F3D
:10078000D901ED91FC912485921780F4911105C057
:1007900095E09C8391E090937A010E9478028A818F
:1007A0008F5F8A8380E0DF91CF91089584E0FBCF53
:1007B000E82FEE0FFF0BE85AFD4F0190F081E02D7E
:1007C000118210820C94600C1F93CF93DF930E94D0
:1007D000BC02182F892F492F092E000C550B660BD0
:1007E000770B409375015093760160937701709376
:1007F0007801292F220F330BF901E85AFD4FC081F0
:10080000D181D0937001C0936F01205A3D4FF901FF
:100810002081318130936C0120936B019C81953054
:1008200019F40E94D8031B8310927A01DF91CF91B3
:100830001F910895E0917501F0917601EE0FFF1F71
:10084000E85AFD4F0190F081E02D90914C04838196
:10085000891740F40E9446030E94E40383E08093DA
:100860007901089580E0FBCF81E0809379010C94B9
:10087000E403EF92FF920F931F93CF93DF93C1E0B6
:1008800001C0CC0F8A95EAF7209166023091670289
:1008900080915E0290915F0210924A0410926A0168
:1008A0001092690130936C0120936B0110926E01DC
:1008B00010926D019093700180936F018FEF9FEF05
:1008C000DC018093710190937201A0937301B09346
:1008D00074018093750190937601A0937701B09392
:1008E00078011092790110927A0183E00E94B3039B
:1008F00009EA12E0D0E0F80181918F018C2319F010
:100900008D2F0E94B303DF5FD330A9F706EA12E010
:1009100087E3E82E82E0F82ED1E0F80181918F0183
:100920008C2339F0F70180819181FC01D6870E94E8
:10093000D104F2E0EF0EF11C82E0093A180769F7E2
:10094000DF91CF911F910F91FF90EF9008950E943A
:10095000740681110E949506E0916D01F0916E017F
:1009600080819181892B21F0809171010E945A0828
:100970000C94BD070E94740681110E949506E091B7
:100980006D01F0916E0180819181892B21F0809120
:1009900071010E945A080C94A50781E08093F3022C
:1009A0000895CF92DF92EF92FF920F931F93CF9310
:1009B000DF93FC01A081B1810D90BC91A02D5496D4
:1009C0008D919C915597009709F445C042855385B8
:1009D0006485758530E020E0EC01CA84DB84EC841A
:1009E000FD844C155D056E057F0508F049C08C013E
:1009F00013830283358324830115110519F0E8015F
:100A0000FD83EC832115310509F444C0E901FB8322
:100A1000EA835696CD91DC9157970A851B852C85E4
:100A20003D855096CD90DD90ED90FC9053970C1540
:100A30001D052E053F0598F5C416D506E606F706F2
:100A400028F0401751076207730788F45796FC9304
:100A5000EE9356970CC05596FC93EE935497579689
:100A6000FC93EE9356971582148213821282DF91C3
:100A7000CF911F910F91FF90EF90DF90CF9008954D
:100A8000EC010A811B819C010115110509F4B0CF0D
:100A9000C801A2CF5596FC93EE935497BACFC416D3
:100AA000D506E606F70668F2E2CFCF93DF93DC01C6
:100AB000ED91FC9111970190F081E02D8489958949
:100AC0001296CD91DC9113978A179B0711F4D58B61
:100AD000C48B868997898A179B0711F4D78BC68B9D
:100AE000209731F014968D919C9115979D838C835E
:100AF00014960D90BC91A02D109721F01396DC93C5
:100B0000CE93129786899789892B21F484899589B8
:100B1000978B868BDF91CF910895EF92FF920F9381
:100B20001F93CF93DF93FC018091F302882309F494
:100B3000ACC084859585A685B7850196A11DB11D9C
:100B400084879587A687B7874081518162817381A9
:100B500084179507A607B70709F097C08089918980
:100B6000A289B3890196A11DB11D44815581668179
:100B70007781481759076A077B0718F480E090E0EF
:100B8000DC01808B918BA28BB38B14861586168625
:100B90001786C689D789209709F477C04A855B856F
:100BA0006C857D85481759076A077B0709F06DC07A
:100BB000CE01DC011296ED90FC90E114F10469F095
:100BC000D7011A960D911D912D913C911D974017BB
:100BD00051076207730709F45FC02C813D8121151D
:100BE000310529F0D9011396FC92EE921297E11487
:100BF000F10429F0D70115963C932E93149724897C
:100C00003589C217D30711F4F58AE48AE114F10497
:100C100009F444C0F78AE68A8F01FC01138212822C
:100C2000EA80FB80E881F9810280F381E02DCE012A
:100C300009958E819F81A885B9850097A105B10589
:100C400091F14A855B856C857D85840F951FA61F74
:100C5000B71FF8014481558166817781481759078C
:100C60006A077B0740F44095509560957095840F16
:100C7000951FA61FB71F8A879B87AC87BD87CE01AC
:100C80000E94D104E701209759F6DF91CF911F917F
:100C90000F91FF90EF900895C7018BCF248935897C
:100CA000378B268BB9CF1E86EDCFFC0182810C9449
:100CB000B3030E94740680916801089580936801CF
:100CC0000E9439040E94CD040C9434040C945F0CEF
:100CD000CF93C82F0E94DC02811102C00E949D0C9C
:100CE0008C2FCF910C948C00809100038130D9F02F
:100CF0008091F8029091F902A091FA02B091FB0262
:100D0000892B8A2B8B2B79F481E04091FC02509146
:100D1000FD026091FE027091FF02452B462B472B8E
:100D200019F480E0089581E0089510920003109274
:100D3000FC021092FD021092FE021092FF0210922D
:100D4000F8021092F9021092FA021092FB028091BE
:100D5000F4029091F502A091F602B091F70280930F
:100D6000010390930203A0930303B0930403089537
:100D70000E94A00C8091010390910203A0910303B3
:100D8000B09104030196A11DB11D809301039093BE
:100D90000203A0930303B09304038091FC0290919B
:100DA000FD02A091FE02B091FF020196A11DB11DAE
:100DB0008093FC029093FD02A093FE02B093FF0289
:100DC00008958091FC029091FD02A091FE02B091E5
:100DD000FF020097A105B10569F14091010350910F
:100DE00002036091030370910403415051096109AA
:100DF00071094093010350930203609303037093BE
:100E000004030197A109B1098093FC029093FD02AC
:100E1000A093FE02B093FF02809101039091020320
:100E2000A0910303B0910403892B8A2B8B2B11F41F
:100E30000C949E0C08958091FC029091FD02A0916B
:100E4000FE02B091FF02892B8A2B8B2B89F48091B3
:100E5000F8029091F902A091FA02B091FB02892B5D
:100E60008A2B8B2B29F40E94A00C81E08093000335
:100E7000089580910003882321F0109200030C94C0
:100E80009E0C08950E94A40C80910103909102038E
:100E9000A0910303B09104030196A11DB11D80939D
:100EA000010390930203A0930303B0930403809182
:100EB000F8029091F902A091FA02B091FB0201961A
:100EC000A11DB11D8093F8029093F902A093FA023C
:100ED000B093FB0208958091F8029091F902A091DD
:100EE000FA02B091FB020097A105B10569F14091AA
:100EF0000103509102036091030370910403415078
:100F000051096109710940930103509302036093F1
:100F10000303709304030197A109B1098093F802B8
:100F20009093F902A093FA02B093FB02809101031F
:100F300090910203A0910303B0910403892B8A2BA3
:100F40008B2B11F40C94A20C08950E947406882334
:100F500011F083E1089580E00895CF93C82F0E9497
:100F600074068C2F0E94B303C82F80917A018111DF
:100F70000E941A048C2FCF910895CF930E9474067B
:100F8000C3E1811101C0C0E0E0916D01F0916E01FB
:100F90008281815082830E94A30381E08093790142
:100FA0000E94E4038C2FCF910895CF93C82F0E9405
:100FB0007406E0916D01F0916E018281815082830F
:100FC0008C2F0E94B303C82F81110AC00E94A30373
:100FD00081E0809379010E94E4038C2FCF910895E2
:100FE000E0916D01F0916E0182818F5F8283F5CF78
:100FF000CF930E947406C3E1811101C0C0E08091CB
:1010000071010E9428030E941A048091710190913D
:101010007201A0917301B0917401409175015091DA
:101020007601609177017091780184179507A60782
:10103000B70711F40E94FA028C2FCF910895CF9335
:10104000DF93EC010E947406882391F083E14091C4
:10105000710150917201609173017091740143307C
:1010600051056105710534F44883DF91CF910895EE
:1010700080E0EDCF9091DE019883F7CF0F931F931F
:10108000CF93C82F8B010E947406882389F083E1D7
:10109000EC2FEE0FFF0BE85AFD4F0190F081E02D91
:1010A00094819370F8019083CF911F910F910895CF
:1010B00080E0EECF880F990BFC01E85AFD4FA0812C
:1010C000B181ED91FC911197309769F01D921C92BE
:1010D0002091DE0193818481228314821382E92F7F
:1010E000F82F3097B9F70895CF93C82F0E94740650
:1010F000882381F183E1EC2FF0E0EE0FFF1FE05633
:10110000FD4F0190F081E02D909171019283A091AB
:101110006D01B0916E012D913C9111973483238321
:101120001196FC93EE9313969C91139791832081D3
:101130009695921768F430E0F901EA5EFC4F9081D1
:1011400091509083220F331F9170922B13969C9392
:10115000CF91089580E0CFCFCF93DF93C82F0E9427
:101160007406D3E1811101C0D0E0EC2FF0E0EE0F66
:10117000FF1FE056FD4F0190F081E02DA0916D0121
:10118000B0916E01818113968C9313978381948122
:101190008D939C93148213828091DE0182830E943E
:1011A0001A048D2FDF91CF910895DC01ED91FC9110
:1011B00084819581DC01ED91FC9109941F93CF937B
:1011C000DF93182FEB010E947406882361F183E1FD
:1011D000E12FF0E0EE0FFF1FE95CFD4F0190F08181
:1011E000E02D0190F081E02D0190F081E02D408113
:1011F0005181628173814C835D836E837F834481DF
:10120000558166817781488359836A837B834085D2
:10121000518562857385488759876A877B87DF9107
:10122000CF911F91089580E0D3CF8F929F92AF927C
:10123000BF92CF92DF92EF92FF920F931F93CF93C3
:10124000C82F8B010E9474068823E9F183E1EC2FFB
:10125000F0E0EE0FFF1FE95CFD4F0190F081E02D03
:101260009685913091F54285538564857585019009
:10127000F081E02D0190F081E02DC088D188E288D6
:10128000F3884C155D056E057F0540F484809580DC
:10129000A680B780480D591D6A1D7B1D4C195D093C
:1012A0006E097F09F8014083518362837383CF9174
:1012B0001F910F91FF90EF90DF90CF90BF90AF9074
:1012C0009F908F90089580E0C2CF85E0F0CF8F92FD
:1012D0009F92AF92BF92CF92DF92EF92FF920F93C5
:1012E0001F93CF93DF93D82F6A017B0148015901E7
:1012F0000E947406C3E1811101C0C0E0ED2FF0E04F
:10130000EE0FFF1FE95CFD4F0190F081E02D868517
:1013100081113DC0A081B1810D90BC91A02D50964E
:101320004D915D916D917C9153974C0D5D1D6E1D9E
:101330007F1D14968D919D910D90BC91A02D8417C9
:101340009507A607B70740F4481B590B6A0B7B0BA0
:101350004150510961097109428753876487758734
:1013600086829782A086B18681E08687CF010E941F
:10137000D1048C2FDF91CF911F910F91FF90EF90AF
:10138000DF90CF90BF90AF909F908F900895C7E06F
:10139000F0CF8F929F92AF92BF92CF92DF92EF9257
:1013A000FF920F931F93CF93DF93C82F4A015B01E6
:1013B000680179010E947406D3E1811101C0D0E077
:1013C000EC2FF0E0EE0FFF1FE95CFD4F0190F08184
:1013D000E02D868581111BC082869386A486B58602
:1013E000C682D782E086F18681E08687CF010E949F
:1013F000D1048D2FDF91CF911F910F91FF90EF902E
:10140000DF90CF90BF90AF909F908F900895D7E0DE
:10141000F0CF0F931F93CF93DF93C82F0E947406D2
:10142000D3E1811101C0D0E0EC2FF0E0EE0FFF1FFF
:10143000E95CFD4F00811181F8018685813059F406
:10144000C8010E945505F80116868D2FDF91CF91B6
:101450001F910F910895D5E0F8CF26E040E052ECBF
:1014600061E070E08BE293E00E94660F60E08EE046
:101470000E94470B61E08DE00E94470B8091AC0217
:101480000C9468061F93CF93DF938EE00E94430C69
:10149000EC011091A502812F0E94CC004AE050E09F
:1014A000BE018BE293E00E94030E809106039091AF
:1014B000070385309105F4F4FC01EE0FFF1FE85F90
:1014C000FC4FD183C083019690930703809306035A
:1014D0002A97CC3ED34030F081E090E09093150302
:1014E00080931403812F0E94D000DF91CF911F9130
:1014F0000C94B40010920703109206038091080325
:1015000090910903EAE0F3E09C0141915191841725
:1015100095070CF4CA01421753070CF49A0143E0F3
:10152000E231F40791F72B303105E4F2853F43E0D7
:101530009407C4F6821B930B853F91408CF06FEDAE
:1015400071E08BE293E00E94510D1092150310920E
:10155000140381E090E09093130380931203C2CFB1
:101560001092150310921403109213031092120399
:10157000B9CFEF92FF920F931F93CF93C091A50223
:101580008C2F0E94CC000091120310911303E09065
:101590001403F09015038C2F0E94D000EA94EF28DA
:1015A000E9F4C091A4028C2F0E94E4000DE710E042
:1015B00020E030E04DE750E060E070E08C2F0E94CA
:1015C000DC0064EF71E08BE293E00E94510DCF915B
:1015D0001F910F91FF90EF900C94B4000130110512
:1015E00099F4C091A4028C2F0E94E40004EF11E052
:1015F00020E030E044EF51E060E070E08C2F0E948A
:10160000DC0065E072E0DFCF80E00E94E40060E093
:101610008DE00E94830B6EE172E0D5CF60910503EF
:1016200081E06827609305038DE00E94830B0C9492
:10163000B40087EB91E00C9425010895833081F08C
:1016400028F4813099F08230A9F008958730A9F00C
:101650008830C9F08430B1F4809180008F7D03C060
:10166000809180008F7780938000089584B58F7774
:1016700084BD089584B58F7DFBCF8091B0008F77B6
:101680008093B00008958091B0008F7DF9CFCF9303
:10169000DF9390E0FC01E458FF4F249180579F4F67
:1016A000FC0184918823C9F090E0880F991FFC0108
:1016B000E255FF4FA591B491FC01EC55FF4FC59148
:1016C000D49161110DC09FB7F8948C91209582231D
:1016D0008C938881282328839FBFDF91CF91089521
:1016E000623051F49FB7F8943C91822F8095832308
:1016F0008C93E8812E2BEFCF8FB7F894EC912E2BA3
:101700002C938FBFEACF1F93CF93DF93282F30E026
:10171000F901E859FF4F8491F901E458FF4FD49142
:10172000F901E057FF4FC491CC23A9F0162F811186
:101730000E941E0BEC2FF0E0EE0FFF1FEC55FF4F49
:10174000A591B4918FB7F894EC91111108C0D09580
:10175000DE23DC938FBFDF91CF911F910895DE2BA5
:10176000F8CF1F920F920FB60F9211242F933F9331
:101770004F935F936F937F938F939F93AF93BF9399
:10178000EF93FF938091220390912303A091240370
:10179000B09125033091210323E0230F2D3798F5D5
:1017A0000196A11DB11D20932103809322039093E4
:1017B0002303A0932403B0932503809126039091E3
:1017C0002703A0912803B09129030196A11DB11D03
:1017D0008093260390932703A0932803B0932903B3
:1017E0000E94190BFF91EF91BF91AF919F918F9143
:1017F0007F916F915F914F913F912F910F900FBE0D
:101800000F901F90189526E8230F0296A11DB11D79
:10181000CACF84B5826084BD84B5816084BD85B53E
:10182000826085BD85B5816085BDEEE6F0E0808192
:1018300081608083E1E8F0E01082808182608083B3
:10184000808181608083E0E8F0E080818160808336
:10185000E1EBF0E0808184608083E0EBF0E0808168
:1018600081608083EAE7F0E080818460808380810A
:1018700082608083808181608083808180688083B2
:101880001092C10008958E3008F08E502091D90139
:1018900090E4299F900111248770822B80937C0013
:1018A00080917A00806480937A0080917A0086FD2E
:1018B000FCCF80917800909179000895FFCFFFCF01
:1018C000CF93DF93880F990BFC01E05AFD4FC08145
:1018D000D181EC81FD8131978A819B81E80FF91FCD
:1018E0008D85DF011197823029F58CEA90E08083A5
:1018F0009C939E818F81DF0112979C9311978C930B
:10190000CF0104979F01295031091E92A217B307F6
:10191000E1F720E8DF011A972C9342971E92A8174F
:10192000B907E1F7A881B9817797ED93FC93DF912F
:10193000CF91089588EC90E0DACF089578940895D7
:10194000F894089578940895F894089508950E945D
:10195000090C0E94A60C0E941D0B0E942D0A80916A
:101960002A030E94680690E080E008958091AC020E
:1019700080932A03089508951F920F920FB60F9235
:1019800011242F933F934F935F936F937F938F9384
:101990009F93AF93BF93EF93FF93E091DA01F091A0
:1019A000DB010995FF91EF91BF91AF919F918F91CD
:1019B0007F916F915F914F913F912F910F900FBE4B
:1019C0000F901F9018951F920F920FB60F9211242F
:1019D0002F933F934F935F936F937F938F939F9337
:1019E000AF93BF93EF93FF93E091DC01F091DD01A2
:1019F0000995FF91EF91BF91AF919F918F917F9149
:101A00006F915F914F913F912F910F900FBE0F906B
:101A10001F901895AF92BF92CF92DF92EF92FF92F4
:101A20000F931F93CF93DF936C017B018B01040F06
:101A3000151FEB015E01AE18BF08C017D10759F0A2
:101A40006991D601ED91FC910190F081E02DC601E4
:101A50000995892B79F7C501DF91CF911F910F91DE
:101A6000FF90EF90DF90CF90BF90AF900895FB0173
:101A700001900020E9F73197AF01461B570BDC01BD
:101A8000ED91FC910280F381E02D0994DC01ED9150
:101A9000FC910190F081E02D09946DED72E00C94C1
:101AA000370D0F931F93CF93DF938C01D0E0C0E0ED
:101AB0006115710519F00E94370DEC01C8010E94F3
:101AC0004D0D8C0F9D1FDF91CF911F910F910895A8
:101AD0008F929F92AF92BF92EF92FF920F931F93BC
:101AE000CF93DF93CDB7DEB7A1970FB6F894DEBFE3
:101AF0000FBECDBF7C01FA01CB0119A2223008F440
:101B00002AE08E010F5D1F4F822E912CB12CA12C4B
:101B1000BF01A50194010E94CB0FF901CA016A30EF
:101B20000CF5605DD8016E938D01232B242B252BA2
:101B300079F790E080E0109721F0BD01C7010E9485
:101B4000370DA1960FB6F894DEBF0FBECDBFDF9163
:101B5000CF911F910F91FF90EF90BF90AF909F900A
:101B60008F900895695CDECFCF92DF92EF92FF9263
:101B70000F931F93CF93DF932115310581F4DC017F
:101B8000ED91FC910190F081E02D642FDF91CF91D8
:101B90001F910F91FF90EF90DF90CF9009942A3022
:101BA000310501F52AE077FF1DC06A017B01EC01D8
:101BB0006DE20E94460D8C0144275527BA014C194D
:101BC0005D096E097F092AE0CE010E94680D800F31
:101BD000911FDF91CF911F910F91FF90EF90DF90B8
:101BE000CF900895DF91CF911F910F91FF90EF90CB
:101BF000DF90CF900C94680D9A01AB01770F660BC4
:101C0000770B0C94B40D0F931F93CF93DF93EC01DC
:101C10000E94FC0D8C01CE010E944D0D800F911F82
:101C2000DF91CF911F910F9108951F920F920FB6E0
:101C30000F9211242F938F939F93EF93FF93E09133
:101C40003B03F0913C038081E0914103F09142031A
:101C500082FD1BC09081809144038F5F8F73209120
:101C60004503821741F0E0914403F0E0E55DFC4F4D
:101C7000958F80934403FF91EF919F918F912F91C6
:101C80000F900FBE0F901F9018958081F4CF1F9278
:101C90000F920FB60F9211242F933F934F935F93A0
:101CA0006F937F938F939F93AF93BF93EF93FF9324
:101CB0008BE293E00E94D70EFF91EF91BF91AF911D
:101CC0009F918F917F916F915F914F913F912F9154
:101CD0000F900FBE0F901F901895EBE2F3E0138268
:101CE000128288EE93E0A0E0B0E084839583A6831F
:101CF000B78384EE92E09183808385EC90E09587B2
:101D0000848784EC90E09787868780EC90E0918BC5
:101D1000808B81EC90E0938B828B82EC90E0958BB2
:101D2000848B86EC90E0978B868B118E128E138EAF
:101D3000148E0895FC01918D228D892F90E0805C96
:101D40009F4F821B91098F7399270895FC01918DF4
:101D5000828D981731F0828DE80FF11D858D90E00E
:101D600008958FEF9FEF0895FC01918D828D981754
:101D700061F0A28DAE0FBF2FB11D5D968C91928D3B
:101D80009F5F9F73928F90E008958FEF9FEF08956C
:101D9000FC01538D448D252F30E0842F90E0821B71
:101DA000930B541710F0CF96089501970895FC01F6
:101DB000A48DA80FB92FB11DA35ABF4F2C91848DAC
:101DC00090E001968F739927848FA689B7892C9309
:101DD000A089B1898C91837080648C93938D848D5C
:101DE000981306C00288F389E02D80818F7D80835F
:101DF0000895CF93DF93EC01888D8823B9F0AA89E9
:101E0000BB89E889F9898C9185FD03C0808186FDB5
:101E10000DC00FB607FCF7CF8C9185FFF2CF808104
:101E200085FFEDCFCE010E94D70EE9CFDF91CF9194
:101E30000895EF92FF920F931F93CF93DF93EC01DE
:101E400081E0888F9B8D8C8D98131AC0E889F98961
:101E5000808185FF15C09FB7F894EE89FF89608364
:101E6000E889F98980818370806480839FBF81E0E5
:101E700090E0DF91CF911F910F91FF90EF90089527
:101E8000F62E0B8D10E00F5F1F4F0F731127E02E02
:101E90008C8D8E110CC00FB607FCFACFE889F9893A
:101EA000808185FFF5CFCE010E94D70EF1CFEB8D5B
:101EB000EC0FFD2FF11DE35AFF4FF0829FB7F8940E
:101EC0000B8FEA89FB8980818062CFCFCF92DF922E
:101ED000EF92FF921F93CF93DF93EC016A017B0196
:101EE000122FE889F98982E08083C11481EED80637
:101EF000E104F104A1F060E079E08DE390E0A70156
:101F000096010E94CB0F2150310941095109569584
:101F1000479537952795211580E1380798F0E8898E
:101F2000F989108260E874E88EE190E0A7019601DB
:101F30000E94CB0F2150310941095109569547950F
:101F400037952795EC85FD853083EE85FF852083C9
:101F5000188EEC89FD891083EA89FB898081806174
:101F60008083EA89FB89808188608083EA89FB8994
:101F7000808180688083EA89FB8980818F7D80836E
:101F8000DF91CF911F91FF90EF90DF90CF90089558
:101F9000F8940C94F30FA1E21A2EAA1BBB1BFD01AF
:101FA0000DC0AA1FBB1FEE1FFF1FA217B307E40738
:101FB000F50720F0A21BB30BE40BF50B661F771F90
:101FC000881F991F1A9469F7609570958095909570
:101FD0009B01AC01BD01CF010895EE0FFF1F0590DD
:0A1FE000F491E02D0994F894FFCF6E
:101FEA0000000000000000000000000000000000E7
:101FFA0000000000000000000000000000000000D7
:10200A0000000000000000000000000000000000C6
:10201A0000000000000000000000000000000000B6
:10202A0000000000000000000000000000000000A6
:10203A000000000000000000000000000000000096
:10204A000000000000000000FF0000920200001CD7
:10205A0003FFFFFFFFFFFFFFFF00003D020000003C
:10206A00007D0000007D0000000246020000000022
:10207A006400000064000000024F0200000000003B
:10208A00000000000000000000000003040000003F
:10209A000204000000010001000000FFFF0000012F
:1020AA000000000000000000000000000000000422
:1020BA0000FF00000400FF000001BB0CBB0CFF4D39
:1020CA00202D204E203E203530302C20616C61724C
:1020DA006D20310056454C4F43452C206572726F76
:1020EA0072652031004C454E544F2C206572726F38
:1020FA00726520302C20616C61726D203100535062
:10210A00454E544F2C206572726F726520652061AE
:10211A006C61726D20300099018A017B01B701D58B
:10212A00084302550601B701D5084C02550602B705
:10213A0001D5085502550600B201AD01A8011C03DC
:10214A008402760268029202C803CA038000420A25
:10215A00000002030100AA052A058000B90A00004E
:10216A0001020100D604560480000E0B0000000193
:10217A000100D804DA0450005E0C000003000100DC
:10218A00D401CF010000000101000101006B0739F1
:10219A000742071B07BA04B806A704E106BD075E93
:1021AA000666067408AD07AC08D507DE081F0815D1
:1021BA000959066709F807C909090A3E080D0A00FC
:1021CA0000000000190F0A0DC80EF90E9A0EB40E7F
:0221DA00A60E4F
:00000001FF
