:100000000C9462000C94940E0C94BB0E0C948A0019
:100010000C948A000C948A000C948A000C948A0038
:100020000C948A000C948A000C948A000C948A0028
:100030000C948A000C948A000C948A000C948A0018
:100040000C94890D0C948A000C948A000C948A00FC
:100050000C948A000C948A000C948A000C948A00F8
:100060000C948A000C948A00000000080002010031
:100070000003040700000000000000000102040863
:100080001020408001020408102001020408102002
:10009000040404040404040402020202020203032E
:1000A00003030303000000002300260029000000D2
:1000B0000000250028002B0000000000240027007D
:1000C0002A008E0E11241FBECFEFD8E0DEBFCDBFB9
:1000D00012E0A0E0B1E0EAEDFDE102C005900D9272
:1000E000A43EB107D9F726E0A4EEB2E001C01D920C
:1000F000AA30B207E1F710E0C2E6D0E004C02197D1
:10010000FE010E94E50EC136D107C9F70E947F0E9D
:100110000C94E20E0C940000E4E10E944101089569
:10012000E2E10E9441010895EAE00E944101089540
:10013000E1E00E9441010895E3E00E944101089539
:10014000E7E00E9441010895E5E00E944101089521
:10015000E0E00E9441010895E2E00E94410108951B
:10016000E4E00E9441010895ECE00E9441010895FD
:10017000EBE10E9441010895EEE00E9441010895E3
:10018000E8E00E9441010895E0E10E9441010895E4
:10019000EAE10E9441010895E6E00E9441010895CC
:1001A000E8E10E9441010895E9E00E9441010895BB
:1001B000EBE00E9441010895EDE00E9441010895A5
:1001C000EFE00E9441010895E1E10E94410108959C
:1001D000E3E10E9441010895E5E10E944101089593
:1001E000E7E10E9441010895E9E10E94410108957B
:1001F000E6E10E944101089521968A929A92AA927C
:10020000BA92CA92DA92EA92FA920A931A932197D0
:10021000E0916B01F0916C010080F181E02DC083D1
:10022000D1830895C0916D01D0916E01E881F9816B
:10023000C081D181219619910991F990E990D990C5
:10024000C990B990A99099908990219708952F907D
:100250003F90E7E6F1E0CDB7DEB7EDBFFEBF3F92DE
:100260002F9208952F903F90CDBFDEBF3F922F92E7
:100270000895E0E80E9441010895E0E40E944101F0
:1002800008952F923F924F925F926F927F922FB676
:100290002F92CF93DF937E2EF894E0910001EF5FD1
:1002A000E0930001E13011F40E942701E0E0E093C7
:1002B0007B01E72DE07849F00E94AB05F0917C01CD
:1002C000F17071F00E942E040BC0E72DEC3140F468
:1002D000EE0FF0E0E555FD4F0190F081E02D09951E
:1002E000F0917B01EF2FE17059F0F27011F00E9454
:1002F000FC008F938F2F0E9478038F910E94120130
:1003000020910001215020930001222311F40E942A
:100310003201DF91CF912F902FBE7F906F905F9031
:100320004F903F902F900895FC014081FB01308158
:10033000842F8F7090E0B0E0A0E0B695A7959795D8
:10034000879584509D4FFC018081242F281B2170AC
:100350004E70242B832F8F7090E0B0E0A0E0B69514
:10036000A7959795879584509D4FFC018081932F89
:10037000981B91703E70932B41E050E0291710F0CC
:1003800050E040E0CA0108958F929F92AF92BF92D1
:10039000EF92FF920F931F93CF93DF937C014A015B
:1003A0005B01B694A79497948794423051056105F8
:1003B000710580F0440F551F8701040F151FE401DC
:1003C000CC0FDD1FCE0DDF1DB801CE010E949401C0
:1003D000892B59F4DF91CF911F910F91FF90EF90EE
:1003E000BF90AF909F908F900895F8019081818188
:1003F000288139813183208398838983B501A401C1
:10040000D0CF4F925F926F927F928F929F92AF92D6
:10041000BF92CF92DF92EF92FF920F931F93CF93F1
:10042000DF9300D000D000D0CDB7DEB78C016A01D9
:100430007B01DC018C91282F30E050E040E02983E3
:100440003A834B835C8346015701880C991CAA1C94
:10045000BB1C29813A814B815C81281539054A05ED
:100460005B05B8F426960FB6F894DEBF0FBECDBF7D
:10047000DF91CF911F910F91FF90EF90DF90CF9080
:10048000BF90AF909F908F907F906F905F904F90B4
:100490000895240135013FEF431A530A630A730A92
:1004A00089819A81AB81BC8184159505A605B70524
:1004B00080F0B201660F771F600F711FC401880FB3
:1004C000991F800F911F0E949401892B11F05301F5
:1004D00042013401660C771C600E711ECC0CDD1CD1
:1004E000D801AC0DBD1DBE83AD83B301CD010E940B
:1004F0009401892B09F4B6CFED81FE819081818131
:10050000D3012D913C911197318320839C931196B7
:100510008C937501640197CFE2EAF3E040814F5F6D
:10052000408350E070E060E0E82FEE0FFF0BE95CE5
:10053000FD4F0190F081E02D238530E0F901E4507A
:10054000FD4F908191509083FA01EE0FFF1FEE5501
:10055000FC4F220F331F9170922B9083818382EA8C
:1005600093E00C94C401E2EAF3E040814F5F4083E2
:1005700050E070E060E0FA01EE0FFF1FEE55FC4F17
:10058000A82FAA0FBB0BA55DBD4F0D90BC91A02D50
:1005900013969C919083818382EA93E00C94C4012A
:1005A000CF93DF93E2EAF3E080819FEF980F90838F
:1005B000D281C38190E0880F991F8E559C4FDC013A
:1005C0008D919C919383828341E050E060E070E0E4
:1005D000CF010E9401028D2F9C2FDF91CF910895B2
:1005E0008091E402811114C0809173019091740193
:1005F000A0917501B09176018F3F2FEF9207A2076E
:10060000B20741F00597A105B10534F481E00895E2
:1006100084E0089580E0089582E00895CF93DF9309
:10062000880F990BFC01E95CFD4F0190F081E02DF2
:100630000084F185E02D3097E1F02281211119C06D
:1006400021E02283855D9D4FEC01A881B98113963D
:100650008C9113978183208130E0F901E450FD4FA4
:10066000808181508083220F331F8170822B1396EB
:100670008C93DF91CF910895CF93DF93880F990BDF
:10068000FC01E95CFD4F0190F081E02D0084F185D3
:10069000E02D309761F02281213049F41282855D8E
:1006A0009D4FEC01A881B981818113968C93DF91D4
:1006B000CF9108958091770190917801A09179016F
:1006C000B0917A014091730150917401609175016C
:1006D00070917601481759076A077B0741F0E0914E
:1006E0007101F091720121E024830C94B30208950A
:1006F000CF93DF93D0E0C0E0882389F0C0916B01F5
:10070000D0916C01E0916F01F09170018481833090
:1007100031F081E08483809173010E94B302E09103
:100720007101F0917201F0937001E0936F0180917B
:100730006D0190916E0190936C0180936B0180919B
:100740007701309178012091790190917A0180931D
:10075000730130937401209375019093760192E0B8
:1007600094830E940E03CE01DF91CF910895809172
:1007700073010E943C03E0916F01F091700182814E
:10078000882319F085E08483089514820895CF9317
:10079000DF93282F220F330BF901E55DFD4FC08158
:1007A000D1819A81295C3D4FD901ED91FC9124853D
:1007B000921780F4911105C095E09C8391E090938D
:1007C0007C010E948C028A818F5F8A8380E0DF91A6
:1007D000CF91089584E0FBCFE82FEE0FFF0BE55D8E
:1007E000FD4F0190F081E02D118210820C94380EA3
:1007F0001F93CF93DF930E94D002182F892F492F88
:10080000092E000C550B660B770B40937701509324
:1008100078016093790170937A01292F220F330BAD
:10082000F901E55DFD4FC081D181D0937201C09384
:100830007101295C3D4FF9012081318130936E01B6
:1008400020936D019C81953019F40E94EC031B8369
:1008500010927C01DF91CF911F910895E091770173
:10086000F0917801EE0FFF1FE55DFD4F0190F081E3
:10087000E02D9091A4038381891740F40E945A03CC
:100880000E94F80383E080937B01089580E0FBCF12
:1008900081E080937B010C94F803EF92FF920F9319
:1008A0001F93CF93DF93C1E0D0E001C0CC0F8A95B6
:1008B000EAF70C2F209141023091420280913502DB
:1008C000909136021092A20310926C0110926B016B
:1008D00030936E0120936D011092700110926F01A0
:1008E00090937201809371018FEF9FEFDC018093F1
:1008F000730190937401A0937501B0937601809376
:10090000770190937801A0937901B0937A011092C6
:100910007B0110927C0185E00E94C70385EAE82EE6
:1009200082E0F82E10E0F70181917F01802319F019
:10093000812F0E94C7031F5F1530A9F78091A30282
:100940008C2349F0809115029091160221E0FC0160
:1009500026870E94EF048091A402C82379F0809139
:1009600017029091180221E0FC012687DF91CF91B8
:100970001F910F91FF90EF900C94EF04DF91CF91B6
:100980001F910F91FF90EF9008950E94A50781118C
:100990000E94C607E0916F01F09170018081918102
:1009A000892B21F0809173010E948B090C94EE0831
:1009B0000E94A50781110E94C607E0916F01F09186
:1009C000700180819181892B21F0809173010E94B7
:1009D0008B090C94D60881E08093E5020895CF92AC
:1009E000DF92EF92FF920F931F93CF93DF93FC015F
:1009F000A081B1810D90BC91A02D54968D919C91B8
:100A00005597009709F445C04285538564857585DF
:100A100030E020E0EC01CA84DB84EC84FD844C15DA
:100A20005D056E057F0508F049C08C0113830283C4
:100A3000358324830115110519F0E801FD83EC834A
:100A40002115310509F444C0E901FB83EA83569678
:100A5000CD91DC9157970A851B852C853D85509655
:100A6000CD90DD90ED90FC9053970C151D052E0553
:100A70003F0598F5C416D506E606F70628F0401798
:100A800051076207730788F45796FC93EE935697C5
:100A90000CC05596FC93EE9354975796FC93EE93A7
:100AA00056971582148213821282DF91CF911F9183
:100AB0000F91FF90EF90DF90CF900895EC010A81A5
:100AC0001B819C010115110509F4B0CFC801A2CF0B
:100AD0005596FC93EE935497BACFC416D506E60606
:100AE000F70668F2E2CFCF93DF93DC01ED91FC9142
:100AF00011970190F081E02D848995891296CD910E
:100B0000DC9113978A179B0711F4D58BC48B8689C8
:100B100097898A179B0711F4D78BC68B209731F0E2
:100B200014968D919C9115979D838C8314960D90AE
:100B3000BC91A02D109721F01396DC93CE931297C1
:100B400086899789892B21F484899589978B868B4F
:100B5000DF91CF910895EF92FF920F931F93CF9360
:100B6000DF93FC018091E502882309F4ACC0848501
:100B70009585A685B7850196A11DB11D84879587AA
:100B8000A687B78740815181628173818417950759
:100B9000A607B70709F097C080899189A289B38910
:100BA0000196A11DB11D4481558166817781481749
:100BB00059076A077B0718F480E090E0DC01808B1E
:100BC000918BA28BB38B1486158616861786C689E1
:100BD000D789209709F477C04A855B856C857D8528
:100BE000481759076A077B0709F06DC0CE01DC0181
:100BF0001296ED90FC90E114F10469F0D7011A9679
:100C00000D911D912D913C911D9740175107620741
:100C1000730709F45FC02C813D812115310529F04E
:100C2000D9011396FC92EE921297E114F10429F087
:100C3000D70115963C932E93149724893589C217B2
:100C4000D30711F4F58AE48AE114F10409F444C0ED
:100C5000F78AE68A8F01FC0113821282EA80FB8008
:100C6000E881F9810280F381E02DCE0109958E8122
:100C70009F81A885B9850097A105B10591F14A85A5
:100C80005B856C857D85840F951FA61FB71FF801B6
:100C90004481558166817781481759076A077B0728
:100CA00040F44095509560957095840F951FA61F50
:100CB000B71F8A879B87AC87BD87CE010E94EF0450
:100CC000E701209759F6DF91CF911F910F91FF9087
:100CD000EF900895C7018BCF24893589378B268BF8
:100CE000B9CF1E86EDCFFC0182810C94C703EF9231
:100CF000FF920F931F93CF93DF937C018B01FB0136
:100D0000C285D385CB010A960E947807009711F11E
:100D1000F8012585FC01D7011216C4F0F80185857C
:100D20009881981B98839981890F89839485891765
:100D300008F019828A81882379F01A828CE0DF9189
:100D4000CF911F910F91FF90EF90089581918D9316
:100D50002150E2CF8DE0F3CF80E0F1CFDA011097A0
:100D600049F0ED91FC911197309721F0AB01BC0156
:100D7000CD01099481E0089581E00895EF92FF92FA
:100D80001F93CF93DF937B01DC011296CD91DC9111
:100D9000209711F410E017C0EC81FD81B701CE015E
:100DA0000995182F81110DC088819981009721F430
:100DB0000A80DB81C02DECCFDC01ED91FC9109951F
:100DC000F7CF8E30A9F380E00E943607812FDF91A4
:100DD000CF911F91FF90EF900895CF92DF92EF9205
:100DE000FF920F931F93CF93DF93EC016B010A8562
:100DF0001B85E888F98848855985C7010E94AE0699
:100E0000882391F1CE010A960E943C07009739F1A0
:100E10002D85022E000C330BF601A701BC01121622
:100E200013067CF0F80180819D85890F808380E026
:100E3000DF91CF911F910F91FF90EF90DF90CF90B6
:100E400008958191DA018D93AD01CF010197DC0105
:100E50008C91DB018D93BD0121503109E0CF81E000
:100E6000D80112968C93E3CF8EE0E2CF80917C0183
:100E700081110C942E040895CF92DF92EF92FF928D
:100E80000F931F93FC01A081B1814C9150E011960A
:100E90008C919A01280F311D6901032E000CEE0878
:100EA000FF080281602F70E0CB01841B950BAC0121
:100EB0008381082E000C990B48175907B4F0448120
:100EC0005581C90110E030E020E0C016D106E206ED
:100ED000F30610F0861B970B840F951F1F910F913F
:100EE000FF90EF90DF90CF90089590E080E0F6CFF4
:100EF000FC01A081B1818C91882349F011969C91CD
:100F000024813581A901490F511DCA01089590E03E
:100F100080E008950E94A50780916801089580935C
:100F200068010E944D040E94EB040C9448040C9448
:100F3000370ECF93C82F0E94F002811102C00E9489
:100F4000750E8C2FCF910C9490008091F20281301D
:100F5000D9F08091EA029091EB02A091EC02B0915D
:100F6000ED02892B8A2B8B2B79F481E04091EE02E4
:100F70005091EF026091F0027091F102452B462BE7
:100F8000472B19F480E0089581E008951092F20251
:100F90001092EE021092EF021092F0021092F10203
:100FA0001092EA021092EB021092EC021092ED0203
:100FB0008091E6029091E702A091E802B091E902E7
:100FC0008093F3029093F402A093F502B093F6029B
:100FD00008950E94780E8091F3029091F402A091FE
:100FE000F502B091F6020196A11DB11D8093F302A6
:100FF0009093F402A093F502B093F6028091EE0272
:101000009091EF02A091F002B091F1020196A11D22
:10101000B11D8093EE029093EF02A093F002B09383
:10102000F10208958091EE029091EF02A091F002FA
:10103000B091F1020097A105B10569F14091F30269
:101040005091F4026091F5027091F60241505109FD
:10105000610971094093F3025093F4026093F50221
:101060007093F6020197A109B1098093EE02909363
:10107000EF02A093F002B093F1028091F3029091FD
:10108000F402A091F502B091F602892B8A2B8B2BEA
:1010900011F40C94760E08958091EE029091EF0277
:1010A000A091F002B091F102892B8A2B8B2B89F44D
:1010B0008091EA029091EB02A091EC02B091ED02D6
:1010C000892B8A2B8B2B29F40E94780E81E0809348
:1010D000F20208958091F202882321F01092F20228
:1010E0000C94760E08950E947C0E8091F3029091EC
:1010F000F402A091F502B091F6020196A11DB11D76
:101100008093F3029093F402A093F502B093F60259
:101110008091EA029091EB02A091EC02B091ED0275
:101120000196A11DB11D8093EA029093EB02A0935A
:10113000EC02B093ED0208958091EA029091EB02E7
:10114000A091EC02B091ED020097A105B10569F103
:101150004091F3025091F4026091F5027091F60211
:1011600041505109610971094093F3025093F4020F
:101170006093F5027093F6020197A109B10980937B
:10118000EA029093EB02A093EC02B093ED028091FF
:10119000F3029091F402A091F502B091F602892B2E
:1011A0008A2B8B2B11F40C947A0E08950E94A507BC
:1011B000882311F083E1089580E00895CF93C82F2C
:1011C0000E94A5078C2F0E94C703C82F80917C0125
:1011D00081110E942E048C2FCF910895CF930E94ED
:1011E000A507C3E1811101C0C0E0E0916F01F0915A
:1011F00070018281815082830E94B70381E08093D5
:101200007B010E94F8038C2FCF910895CF93C82FB4
:101210000E94A507E0916F01F091700182818150D9
:1012200082838C2F0E94C703C82F81110AC00E949D
:10123000B70381E080937B010E94F8038C2FCF914C
:101240000895E0916F01F091700182818F5F828338
:10125000F5CFCF930E94A507C3E1811101C0C0E083
:10126000809173010E943C030E942E0480917301BF
:1012700090917401A0917501B09176014091770130
:10128000509178016091790170917A0184179507E6
:10129000A607B70711F40E940E038C2FCF91089573
:1012A000CF93DF93EC010E94A507882391F083E19F
:1012B00040917301509174016091750170917601B4
:1012C000453051056105710534F44883DF91CF91B4
:1012D000089580E0EDCF9091DA019883F7CF0F93D6
:1012E0001F93CF93C82F8B010E94A507882389F0F5
:1012F00083E1EC2FEE0FFF0BE55DFD4F0190F081D8
:10130000E02D94819370F8019083CF911F910F91FC
:10131000089580E0EECF880F990BFC01E55DFD4F4D
:10132000A081B181ED91FC911197309769F01D92E8
:101330001C922091DA01938184812283148213828A
:10134000E92FF82F3097B9F70895CF93C82F0E944F
:10135000A507882381F183E1EC2FF0E0EE0FFF1F5A
:10136000E956FD4F0190F081E02D90917301928339
:10137000A0916F01B09170012D913C911197348330
:1013800023831196FC93EE9313969C91139791836C
:1013900020819695921768F430E0F901E450FD4FF2
:1013A000908191509083220F331F9170922B13964E
:1013B0009C93CF91089580E0CFCFCF93DF93C82F38
:1013C0000E94A507D3E1811101C0D0E0EC2FF0E02D
:1013D000EE0FFF1FE956FD4F0190F081E02DA09127
:1013E0006F01B0917001818113968C931397838163
:1013F00094818D939C93148213828091DA0182836D
:101400000E942E048D2FDF91CF910895DC01ED9184
:10141000FC9184819581DC01ED91FC9109941F93ED
:10142000CF93DF93182FEB010E94A507882361F16A
:1014300083E1E12FF0E0EE0FFF1FEB5EFD4F019027
:10144000F081E02D0190F081E02D0190F081E02D00
:1014500040815181628173814C835D836E837F8380
:101460004481558166817781488359836A837B8370
:101470004085518562857385488759876A877B8750
:10148000DF91CF911F91089580E0D3CF8F929F92EB
:10149000AF92BF92CF92DF92EF92FF920F931F9382
:1014A000CF93C82F8B010E94A5078823E9F183E120
:1014B000EC2FF0E0EE0FFF1FEB5EFD4F0190F0818F
:1014C000E02D9685913091F542855385648575852B
:1014D0000190F081E02D0190F081E02DC088D1884D
:1014E000E288F3884C155D056E057F0540F4848025
:1014F0009580A680B780480D591D6A1D7B1D4C192B
:101500005D096E097F09F80140835183628373830B
:10151000CF911F910F91FF90EF90DF90CF90BF90F0
:10152000AF909F908F90089580E0C2CF85E0F0CF7C
:101530008F929F92AF92BF92CF92DF92EF92FF92E3
:101540000F931F93CF93DF93D82F6A017B0148013C
:1015500059010E94A507C3E1811101C0C0E0ED2F30
:10156000F0E0EE0FFF1FEB5EFD4F0190F081E02DEC
:10157000868581113DC0A081B1810D90BC91A02DC7
:1015800050964D915D916D917C9153974C0D5D1DE1
:101590006E1D7F1D14968D919D910D90BC91A02D77
:1015A00084179507A607B70740F4481B590B6A0B29
:1015B0007B0B415051096109710942875387648748
:1015C000758786829782A086B18681E08687CF0163
:1015D0000E94EF048C2FDF91CF911F910F91FF900C
:1015E000EF90DF90CF90BF90AF909F908F90089535
:1015F000C7E0F0CF8F929F92AF92BF92CF92DF92CF
:10160000EF92FF920F931F93CF93DF93C82F4A015E
:101610005B01680179010E94A507D3E1811101C036
:10162000D0E0EC2FF0E0EE0FFF1FEB5EFD4F0190DE
:10163000F081E02D868581111BC082869386A48669
:10164000B586C682D782E086F18681E08687CF01A3
:101650000E94EF048D2FDF91CF911F910F91FF908A
:10166000EF90DF90CF90BF90AF909F908F900895B4
:10167000D7E0F0CF0F931F93CF93DF93C82F0E9433
:10168000A507D3E1811101C0D0E0EC2FF0E0EE0F0F
:10169000FF1FEB5EFD4F00811181F80186858130CF
:1016A00059F4C8010E947305F80116868D2FDF9149
:1016B000CF911F910F910895D5E0F8CFCF93DF938D
:1016C000880F991FFC01E951FE4F0190F081E02D38
:1016D0008585882379F0C285D385CF010A960E943B
:1016E0007807892B49F08A81882341F08CE0DF91CB
:1016F000CF9108958AE0FBCF8DE0F9CF80E0F7CF5E
:10170000880F991FFC01E552FE4F80819181DC0119
:10171000ED91FC9109949B01880F991FFC01E951FF
:10172000FE4F60817181DB011696ED91FC91C9013C
:101730000994880F991FFC01E552FE4F8081918129
:10174000DC01ED91FC9170E060E0099580E0089586
:101750000E94E10D61E08DE00E94F60C62E08CE0F9
:101760000E94F60C60E08EE00E94F60C8091AA02C6
:101770000C949907CF93DF938EE00E941B0EEC012F
:101780008CE00E94600D892B29F58091F90281116E
:1017900010C081E08093F9021092FB021092FA02CD
:1017A000CE0193702091F80221119061DF91CF91C9
:1017B00008958091FA029091FB028C599F4F90936B
:1017C000FB028093FA02883E934050F381E08093BD
:1017D000F802E6CF1092F9021092F802E1CFAC01C4
:1017E0009C0133708827907154FF07C030936A01C1
:1017F0002093690190E080E0089540916901509143
:101800006A014F3F540791F0241B350B37FF03C08B
:10181000319521953109243131055CF081E090E06A
:101820002832310534F082E090E0089583E090E0C2
:1018300008950895CF93DF9300D0CDB7DEB70E940F
:10184000BA0B9A838983BE016F5F7F4F80919B02A1
:1018500090919C020E94EC000E94B8000F900F90A3
:10186000DF91CF910895CF93DF9300D000D0CDB713
:10187000DEB7BE016D5F7F4F80919F029091A00205
:101880000E94F0008B819C810E94EF0B9A838983D8
:10189000019649F0BE016F5F7F4F80919902909150
:1018A0009A020E94EC000E94B8000F900F900F90D7
:1018B0000F90DF91CF910895FF920F931F93CF93D5
:1018C000DF9300D0CDB7DEB7BE016F5F7F4F809151
:1018D0009D0290919E020E94F00089819A8100975A
:1018E00049F48091A2020E94E80060E08DE00E942D
:1018F000320D13C081309105D1F4F090A2028F2DEA
:101900000E94E80004EF11E020E030E044EF51E0F5
:1019100060E070E08F2D0E94E0000E94B8000F9000
:101920000F90DF91CF911F910F91FF90089582301A
:10193000910571F4F090A2028F2D0E94E8000DE74E
:1019400010E020E030E04DE750E060E070E0E2CFF2
:10195000039719F78091A2020E94E80061E0C6CFC8
:101960006091F70281E068276093F7028DE00E94A2
:10197000320D0C94B8008091A2020E94E800809180
:10198000A1020E94E80080E00E9494000C94B8003C
:1019900088EB91E00C9439010895833081F028F4AC
:1019A000813099F08230A9F008958730A9F088300D
:1019B000C9F08430B1F4809180008F7D03C08091A4
:1019C00080008F7780938000089584B58F7784BDE1
:1019D000089584B58F7DFBCF8091B0008F77809381
:1019E000B00008958091B0008F7DF9CFCF93DF9341
:1019F00090E0FC01E458FF4F249180579F4FFC0179
:101A000084918823C9F090E0880F991FFC01E85465
:101A1000FF4FA591B491FC01E255FF4FC591D491C0
:101A200061110DC09FB7F8948C91209582238C93FF
:101A30008881282328839FBFDF91CF91089562304A
:101A400051F49FB7F8943C91822F809583238C9317
:101A5000E8812E2BEFCF8FB7F894EC912E2B2C939F
:101A60008FBFEACF1F93CF93DF93282F30E0F90188
:101A7000E859FF4F8491F901E458FF4FD491F901DF
:101A8000E057FF4FC491CC23A9F0162F81110E947B
:101A9000CD0CEC2FF0E0EE0FFF1FE255FF4FA591AC
:101AA000B4918FB7F894EC91111108C0D095DE2352
:101AB000DC938FBFDF91CF911F910895DE2BF8CF7C
:101AC000CF93DF93282F30E0F901E859FF4F84913D
:101AD000F901E458FF4FD491F901E057FF4FC49149
:101AE000CC23A1F081110E94CD0CEC2FF0E0EE0F81
:101AF000FF1FEC55FF4FA591B491EC91ED2381E0D0
:101B000090E009F480E0DF91CF91089580E090E0CB
:101B1000FACF1F920F920FB60F9211242F933F937B
:101B20004F935F936F937F938F939F93AF93BF93E5
:101B3000EF93FF9380910F0390911003A0911103F5
:101B4000B091120330910E0323E0230F2D3798F547
:101B50000196A11DB11D20930E0380930F03909356
:101B60001003A0931103B09312038091130390917B
:101B70001403A0911503B09116030196A11DB11D88
:101B80008093130390931403A0931503B09316034B
:101B90000E94C80CFF91EF91BF91AF919F918F91DF
:101BA0007F916F915F914F913F912F910F900FBE59
:101BB0000F901F90189526E8230F0296A11DB11DC6
:101BC000CACF84B5826084BD84B5816084BD85B58B
:101BD000826085BD85B5816085BDEEE6F0E08081DF
:101BE00081608083E1E8F0E0108280818260808300
:101BF000808181608083E0E8F0E080818160808383
:101C0000E1EBF0E0808184608083E0EBF0E08081B4
:101C100081608083EAE7F0E0808184608083808156
:101C200082608083808181608083808180688083FE
:101C30001092C10008958E3008F08E502091D50189
:101C400090E4299F900111248770822B80937C005F
:101C500080917A00806480937A0080917A0086FD7A
:101C6000FCCF80917800909179000895FFCFFFCF4D
:101C7000CF93DF93880F990BFC01E95CFD4FC08186
:101C8000D181EC81FD8131978A819B81E80FF91F19
:101C90008D85DF011197823029F580EB90E08083FC
:101CA0009C939E818F81DF0112979C9311978C9357
:101CB000CF0104979F01295031091E92A217B30743
:101CC000E1F720E8DF011A972C9342971E92A8179C
:101CD000B907E1F7A881B9817797ED93FC93DF917C
:101CE000CF9108958CEC90E0DACF08957894089520
:101CF000F894089578940895F894089508950E94AA
:101D0000E10D0E947E0E0E94CC0C0E94A80B8091D7
:101D100017030E94990790E080E008958091AA023D
:101D200080931703089508951F920F920FB60F9294
:101D300011242F933F934F935F936F937F938F93D0
:101D40009F93AF93BF93EF93FF93E091D601F091F0
:101D5000D7010995FF91EF91BF91AF919F918F911D
:101D60007F916F915F914F913F912F910F900FBE97
:101D70000F901F9018951F920F920FB60F9211247B
:101D80002F933F934F935F936F937F938F939F9383
:101D9000AF93BF93EF93FF93E091D801F091D901F6
:101DA0000995FF91EF91BF91AF919F918F917F9195
:101DB0006F915F914F913F912F910F900FBE0F90B8
:101DC0001F901895F8940C94EB0EEE0FFF1F0590E2
:0A1DD000F491E02D0994F894FFCF80
:101DDA0000000000000000000000000000000000F9
:101DEA0000000000000000000000000000000000E9
:101DFA0000000000000000000000000000000000D9
:101E0A0000000000000000000000000000000000C8
:101E1A0000000000000000000000000000000000B8
:101E2A0000000000000000000000000000000000A8
:101E3A000000000000000000FFFFFF000089020010
:101E4A00000903FFFFFFFFFFFFFFFF0000BC06BC06
:101E5A0006190200000000640000000100000002F0
:101E6A002202000000000000000000000000000044
:101E7A000000050000000004040000000304000044
:101E8A00000200000000010001000000FFFF000046
:101E9A000100000000000000000000000000000037
:101EAA000600FF000001930E930EFFE301DF01BE5F
:101EBA0006EB01BE0600020002EB01FD010000ED87
:101ECA000677067D010303020284059E0373060159
:101EDA0012020000ED0677067F01060302029A034A
:101EEA00980373060290018101B801060A1F027362
:101EFA000603B801060A2802730600B301AE01A957
:101F0A0001A4019F0109037B026D025F0251024392
:101F1A00028902A00384048000BB0C0000040501AE
:101F2A00009C03880580001A0C0000030401008647
:101F3A000518038000330C000002030100080604A0
:101F4A000580005C0C0000010201003004B003802F
:101F5A0000B00C00000001010032043404500036C5
:101F6A000E000005000100D0010100000001000080
:101F7A0000010000010000010100009C086A0873CA
:101F8A00084C08D804E907C50412082909DD09978D
:101F9A00070F0ADE08460A0609980A5009FA0A8F44
:101FAA00073A0B8A07800B5E0B8B0BA509990B6FFF
:041FBA0009EE080024
:00000001FF
