:100000000C9462000C94DC0E0C94030F0C948A0088
:100010000C948A000C948A000C948A000C948A0038
:100020000C948A000C948A000C948A000C948A0028
:100030000C948A000C948A000C948A000C948A0018
:100040000C94D10D0C948A000C948A000C948A00B4
:100050000C948A000C948A000C948A000C948A00F8
:100060000C948A000C948A00000000080002010031
:100070000003040700000000000000000102040863
:100080001020408001020408102001020408102002
:10009000040404040404040402020202020203032E
:1000A00003030303000000002300260029000000D2
:1000B0000000250028002B0000000000240027007D
:1000C0002A00D60E11241FBECFEFD8E0DEBFCDBF71
:1000D00013E0A0E0B1E0EAEBFEE102C005900D9272
:1000E000AE36B107D9F728E0AEE6B3E001C01D9205
:1000F000A432B207E1F710E0C2E6D0E004C02197D5
:10010000FE010E94550FC136D107C9F70E94C70EE4
:100110000C942A0F0C940000E4E10E944101089520
:10012000E2E10E9441010895EAE00E944101089540
:10013000E1E00E9441010895E3E00E944101089539
:10014000E7E00E9441010895E5E00E944101089521
:10015000E0E00E9441010895E2E00E94410108951B
:10016000E4E00E9441010895ECE00E9441010895FD
:10017000EBE10E9441010895EEE00E9441010895E3
:10018000E8E00E9441010895E0E10E9441010895E4
:10019000EAE10E9441010895E6E00E9441010895CC
:1001A000E8E10E9441010895E9E00E9441010895BB
:1001B000EBE00E9441010895EDE00E9441010895A5
:1001C000EFE00E9441010895E1E10E94410108959C
:1001D000E3E10E9441010895E5E10E944101089593
:1001E000E7E10E9441010895E9E10E94410108957B
:1001F000E6E10E944101089521968A929A92AA927C
:10020000BA92CA92DA92EA92FA920A931A932197D0
:10021000E0916D01F0916E010080F181E02DC083CD
:10022000D1830895C0916F01D0917001E881F98167
:10023000C081D181219619910991F990E990D990C5
:10024000C990B990A99099908990219708952F907D
:100250003F90E7E6F1E0CDB7DEB7EDBFFEBF3F92DE
:100260002F9208952F903F90CDBFDEBF3F922F92E7
:100270000895E0E80E9441010895E0E40E944101F0
:1002800008952F923F924F925F926F927F922FB676
:100290002F92CF93DF937E2EF894E0910001EF5FD1
:1002A000E0930001E13011F40E942701E0E0E093C7
:1002B0007D01E72DE07849F00E94AD05F0917E01C7
:1002C000F17071F00E943A040BC0E72DEC3140F45C
:1002D000EE0FF0E0EA5CFC4F0190F081E02D099513
:1002E000F0917D01EF2FE17059F0F27011F00E9452
:1002F000FC008F938F2F0E9484038F910E94120124
:1003000020910001215020930001222311F40E942A
:100310003201DF91CF912F902FBE7F906F905F9031
:100320004F903F902F900895FC014081FB01308158
:10033000842F8F7390E0B0E0A0E023E0B695A795FE
:10034000979587952A95D1F789579C4FFC01808115
:10035000242F281B27704873242B832F8F7390E042
:10036000B0E0A0E043E0B695A795979587954A95AC
:10037000D1F789579C4FFC018081932F981B977070
:100380003873932B41E050E0291710F050E040E023
:10039000CA0108958F929F92AF92BF92EF92FF92FF
:1003A0000F931F93CF93DF937C014A015B01B694B7
:1003B000A79497948794423051056105710580F0A8
:1003C000440F551F8701040F151FE401CC0FDD1FDB
:1003D000CE0DDF1DB801CE010E949401892B59F486
:1003E000DF91CF911F910F91FF90EF90BF90AF9051
:1003F0009F908F900895F8019081818128813981A3
:100400003183208398838983B501A401D0CF4F9293
:100410005F926F927F928F929F92AF92BF92CF9294
:10042000DF92EF92FF920F931F93CF93DF9300D051
:1004300000D000D0CDB7DEB78C016A017B01DC01B2
:100440008C91282F30E050E040E029833A834B83A1
:100450005C8346015701880C991CAA1CBB1C29818E
:100460003A814B815C81281539054A055B05B8F452
:1004700026960FB6F894DEBF0FBECDBFDF91CF91A9
:100480001F910F91FF90EF90DF90CF90BF90AF90B2
:100490009F908F907F906F905F904F900895240170
:1004A00035013FEF431A530A630A730A89819A811F
:1004B000AB81BC8184159505A605B70580F0B20116
:1004C000660F771F600F711FC401880F991F800F7F
:1004D000911F0E949401892B11F0530142013401B4
:1004E000660C771C600E711ECC0CDD1CD801AC0DA7
:1004F000BD1DBE83AD83B301CD010E949401892B44
:1005000009F4B6CFED81FE8190818181D3012D91D7
:100510003C911197318320839C9311968C937501A4
:10052000640197CFE0EBF5E040814F5F408350E0FE
:1005300070E060E0E82FEE0FFF0BE957FD4F0190F0
:10054000F081E02D238530E0F901E957FC4F9081DF
:1005500091509083FA01EE0FFF1FE055FA4FB3E080
:10056000220F331FBA95E1F79770922B9083818306
:1005700080EB95E00C94CA01E0EBF5E040814F5F21
:10058000408350E070E060E0FA01EE0FFF1FE0559D
:10059000FA4FA82FAA0FBB0BAB58BD4F0D90BC91C3
:1005A000A02D13969C919083818380EB95E00C9411
:1005B000CA01CF93DF93E0EBF5E080819FEF980FC6
:1005C0009083D281C38190E0880F991F80559A4F04
:1005D000DC018D919C919383828341E050E060E047
:1005E00070E0CF010E9407028D2F9C2FDF91CF91E9
:1005F000089580916E03811114C0809175019091CE
:100600007601A0917701B09178018F3F2FEF92078B
:10061000A207B20741F00897A105B10534F481E0C3
:10062000089584E0089580E0089582E00895CF93CE
:10063000DF93880F990BFC01E957FD4F0190F08182
:10064000E02D0084F185E02D3097F9F02281211111
:100650001CC021E022838B589D4FEC01A881B981F9
:1006600013968C9113978183208130E0F901E9572B
:10067000FC4F80818150808393E0220F331F9A9535
:10068000E1F78770822B13968C93DF91CF910895B9
:10069000CF93DF93880F990BFC01E957FD4F019031
:1006A000F081E02D0084F185E02D309761F022810A
:1006B000213049F412828B589D4FEC01A881B981F9
:1006C000818113968C93DF91CF9108958091790168
:1006D00090917A01A0917B01B0917C0140917501CC
:1006E0005091760160917701709178014817590710
:1006F0006A077B0741F0E0917301F091740121E0FA
:1007000024830C94BC020895CF93DF93D0E0C0E023
:10071000882389F0C0916D01D0916E01E091710143
:10072000F09172018481833031F081E08483809183
:1007300075010E94BC02E0917301F0917401F09385
:100740007201E093710180916F019091700190931B
:100750006E0180936D018091790130917A01209131
:100760007B0190917C0180937501309376012093F9
:1007700077019093780192E094830E941703CE0151
:10078000DF91CF910895809175010E944803E09117
:100790007101F09172018281882319F085E08483D0
:1007A000089514820895CF93DF93282F220F330BDF
:1007B000F901EB58FD4FC081D1819A8129573D4FF6
:1007C000D901ED91FC912485921780F4911105C017
:1007D00095E09C8391E090937E010E9492028A8131
:1007E0008F5F8A8380E0DF91CF91089584E0FBCF13
:1007F000E82FEE0FFF0BEB58FD4F0190F081E02D3D
:10080000118210820C94800E1F93CF93DF930E946D
:10081000D902182F892F492F092E000C550B660B72
:10082000770B4093790150937A0160937B01709329
:100830007C01292F220F330BF901EB58FD4FC081AA
:10084000D181D0937401C093730129573D4FF901B1
:10085000208131813093700120936F019C8195300C
:1008600019F40E94F8031B8310927E01DF91CF914F
:100870001F910895E0917901F0917A01EE0FFF1F29
:10088000EB58FD4F0190F081E02D9091B2058381EE
:10089000891740F40E9466030E94040483E0809359
:1008A0007D01089580E0FBCF81E080937D010C9471
:1008B0000404EF92FF920F931F93CF93DF93C1E055
:1008C00001C0CC0F8A95EAF72091970230919802E7
:1008D00080918502909186021092B00510926E016F
:1008E00010926D013093700120936F01109272018C
:1008F0001092710190937401809373018FEF9FEFB9
:10090000DC018093750190937601A0937701B093F9
:1009100078018093790190937A01A0937B01B09341
:100920007C0110927D0110927E0188E00E94D30329
:100930000DE213E0D0E0F80181918F018C2319F0D2
:100940008D2F0E94D303DF5FD830A9F709E213E0AF
:1009500089E4E82E82E0F82ED1E0F80181918F0140
:100960008C2339F0F70180819181FC01D6870E94A8
:10097000F104F2E0EF0EF11C83E00D32180769F785
:10098000DF91CF911F910F91FF90EF9008950E94FA
:10099000A70781110E94C807E0917101F0917201CF
:1009A00080819181892B21F0809175010E948D09B0
:1009B0000C94F0080E94A70781110E94C807E091DB
:1009C0007101F091720180819181892B21F08091D8
:1009D00075010E948D090C94D80881E080936F0303
:1009E0000895CF92DF92EF92FF920F931F93CF93D0
:1009F000DF93FC01A081B1810D90BC91A02D549694
:100A00008D919C915597009709F445C04285538577
:100A10006485758530E020E0EC01CA84DB84EC84D9
:100A2000FD844C155D056E057F0508F049C08C01FD
:100A300013830283358324830115110519F0E8011E
:100A4000FD83EC832115310509F444C0E901FB83E2
:100A5000EA835696CD91DC9157970A851B852C85A4
:100A60003D855096CD90DD90ED90FC9053970C1500
:100A70001D052E053F0598F5C416D506E606F706B2
:100A800028F0401751076207730788F45796FC93C4
:100A9000EE9356970CC05596FC93EE935497579649
:100AA000FC93EE9356971582148213821282DF9183
:100AB000CF911F910F91FF90EF90DF90CF9008950D
:100AC000EC010A811B819C010115110509F4B0CFCD
:100AD000C801A2CF5596FC93EE935497BACFC41693
:100AE000D506E606F70668F2E2CFCF93DF93DC0186
:100AF000ED91FC9111970190F081E02D8489958909
:100B00001296CD91DC9113978A179B0711F4D58B20
:100B1000C48B868997898A179B0711F4D78BC68B5C
:100B2000209731F014968D919C9115979D838C831D
:100B300014960D90BC91A02D109721F01396DC9384
:100B4000CE93129786899789892B21F48489958978
:100B5000978B868BDF91CF910895EF92FF920F9341
:100B60001F93CF93DF93FC0180916F03882309F4D7
:100B7000ACC084859585A685B7850196A11DB11D5C
:100B800084879587A687B787408151816281738169
:100B900084179507A607B70709F097C08089918940
:100BA000A289B3890196A11DB11D44815581668139
:100BB0007781481759076A077B0718F480E090E0AF
:100BC000DC01808B918BA28BB38B148615861686E5
:100BD0001786C689D789209709F477C04A855B852F
:100BE0006C857D85481759076A077B0709F06DC03A
:100BF000CE01DC011296ED90FC90E114F10469F055
:100C0000D7011A960D911D912D913C911D9740177A
:100C100051076207730709F45FC02C813D812115DC
:100C2000310529F0D9011396FC92EE921297E11446
:100C3000F10429F0D70115963C932E93149724893B
:100C40003589C217D30711F4F58AE48AE114F10457
:100C500009F444C0F78AE68A8F01FC0113821282EC
:100C6000EA80FB80E881F9810280F381E02DCE01EA
:100C700009958E819F81A885B9850097A105B10549
:100C800091F14A855B856C857D85840F951FA61F34
:100C9000B71FF8014481558166817781481759074C
:100CA0006A077B0740F44095509560957095840FD6
:100CB000951FA61FB71F8A879B87AC87BD87CE016C
:100CC0000E94F104E701209759F6DF91CF911F911F
:100CD0000F91FF90EF900895C7018BCF248935893C
:100CE000378B268BB9CF1E86EDCFFC0182810C9409
:100CF000D303EF92FF920F931F93CF93DF937C0167
:100D00008B01FB01C285D385CB010A960E947A072D
:100D1000009711F1F8012585FC01D7011216C4F0E6
:100D2000F80185859881981B98839981890F89831B
:100D30009485891708F019828A81882379F01A82AC
:100D40008CE0DF91CF911F910F91FF90EF9008956C
:100D500081918D932150E2CF8DE0F3CF80E0F1CFF0
:100D6000DA01109749F0ED91FC911197309721F03D
:100D7000AB01BC01CD01099481E0089581E00895A3
:100D8000EF92FF921F93CF93DF937B01DC011296CA
:100D9000CD91DC91209711F410E017C0EC81FD811A
:100DA000B701CE010995182F81110DC08881998155
:100DB000009721F40A80DB81C02DECCFDC01ED919E
:100DC000FC910995F7CF8E30A9F380E00E94380797
:100DD000812FDF91CF911F91FF90EF900895CF92D7
:100DE000DF92EF92FF920F931F93CF93DF93EC016B
:100DF0006B010A851B85E888F98848855985C701F4
:100E00000E94B006882391F1CE010A960E943E0707
:100E1000009739F12D85022E000C330BF601A70146
:100E2000BC01121613067CF0F80180819D85890FA4
:100E3000808380E0DF91CF911F910F91FF90EF9021
:100E4000DF90CF9008958191DA018D93AD01CF01AC
:100E50000197DC018C91DB018D93BD01215031099B
:100E6000E0CF81E0D80112968C93E3CF8EE0E2CF01
:100E700080917E0181110C943A040895CF92DF9203
:100E8000EF92FF920F931F93FC01A081B1814C91CF
:100E900050E011968C919A01280F311D6901032EA3
:100EA000000CEE08FF080281602F70E0CB01841B6C
:100EB000950BAC018381082E000C990B481759073C
:100EC000B4F044815581C90110E030E020E0C01643
:100ED000D106E206F30610F0861B970B840F951FD0
:100EE0001F910F91FF90EF90DF90CF90089590E0C9
:100EF00080E0F6CFFC01A081B1818C91882349F07C
:100F000011969C9124813581A901490F511DCA0177
:100F1000089590E080E008950E94A70780916801FD
:100F20000895809368010E9459040E94ED040C9476
:100F300054040C947F0ECF93C82F0E94F9028111A4
:100F400002C00E94BD0E8C2FCF910C949000809116
:100F50007C038130D9F08091740390917503A09146
:100F60007603B0917703892B8A2B8B2B79F481E060
:100F7000409178035091790360917A0370917B03DB
:100F8000452B462B472B19F480E0089581E0089506
:100F900010927C03109278031092790310927A03D6
:100FA00010927B03109274031092750310927603D3
:100FB000109277038091700390917103A091720356
:100FC000B091730380937D0390937E03A0937F037E
:100FD000B093800308950E94C00E80917D0390918C
:100FE0007E03A0917F03B09180030196A11DB11DE6
:100FF00080937D0390937E03A0937F03B09380033F
:101000008091780390917903A0917A03B0917B034A
:101010000196A11DB11D8093780390937903A0934D
:101020007A03B0937B0308958091780390917903BC
:10103000A0917A03B0917B030097A105B10569F1F6
:1010400040917D0350917E0360917F0370918003F6
:10105000415051096109710940937D0350937E030A
:1010600060937F03709380030197A109B109809376
:10107000780390937903A0937A03B0937B038091D4
:101080007D0390917E03A0917F03B0918003892B13
:101090008A2B8B2B11F40C94BE0E0895809178034B
:1010A00090917903A0917A03B0917B03892B8A2BCD
:1010B0008B2B89F48091740390917503A091760332
:1010C000B0917703892B8A2B8B2B29F40E94C00EB9
:1010D00081E080937C03089580917C03882321F034
:1010E00010927C030C94BE0E08950E94C40E809151
:1010F0007D0390917E03A0917F03B09180030196C0
:10110000A11DB11D80937D0390937E03A0937F0367
:10111000B09380038091740390917503A09176033E
:10112000B09177030196A11DB11D80937403909334
:101130007503A0937603B0937703089580917403A9
:1011400090917503A0917603B09177030097A10564
:10115000B10569F140917D0350917E0360917F0359
:1011600070918003415051096109710940937D03D9
:1011700050937E0360937F03709380030197A109CE
:10118000B1098093740390937503A0937603B09391
:10119000770380917D0390917E03A0917F03B091AE
:1011A0008003892B8A2B8B2B11F40C94C20E08958B
:1011B0000E94A707882311F083E1089580E0089535
:1011C000CF93C82F0E94A7078C2F0E94D303C82F4C
:1011D00080917E0181110E943A048C2FCF91089555
:1011E000CF930E94A707C3E1811101C0C0E0E09145
:1011F0007101F09172018281815082830E94C30348
:1012000081E080937D010E9404048C2FCF9108958A
:10121000CF93C82F0E94A707E0917101F09172014E
:101220008281815082838C2F0E94D303C82F811129
:101230000AC00E94C30381E080937D010E940404E0
:101240008C2FCF910895E0917101F091720182810C
:101250008F5F8283F5CFCF930E94A707C3E18111EF
:1012600001C0C0E0809175010E9448030E943A04C9
:101270008091750190917601A0917701B0917801EC
:101280004091790150917A0160917B0170917C01CC
:1012900084179507A607B70711F40E9417038C2F30
:1012A000CF910895CF93DF93EC010E94A707882385
:1012B00091F083E140917501509176016091770141
:1012C00070917801483051056105710534F4488307
:1012D000DF91CF91089580E0EDCF90910E02988339
:1012E000F7CF0F931F93CF93C82F8B010E94A707AF
:1012F000882389F083E1EC2FEE0FFF0BEB58FD4FB5
:101300000190F081E02D94819370F8019083CF914A
:101310001F910F91089580E0EECF880F990BFC018B
:10132000EB58FD4FA081B181ED91FC911197309761
:1013300069F01D921C9220910E0293818481228378
:1013400014821382E92FF82F3097B9F70895CF93BD
:10135000C82F0E94A7078823A9F183E1EC2FF0E0B2
:10136000EE0FFF1FE95EFC4F0190F081E02D9091A0
:1013700075019283A0917101B09172012D913C9100
:101380001197348323831196FC93EE9313969C91CB
:10139000139791832081969596959695921780F450
:1013A00030E0F901E957FC4F90819150908343E080
:1013B000220F331F4A95E1F79770922B13969C9357
:1013C000CF91089580E0CACFCF93DF93C82F0E94BA
:1013D000A707D3E1811101C0D0E0EC2FF0E0EE0FC0
:1013E000FF1FE95EFC4F0190F081E02DA09171019B
:1013F000B0917201818113968C93139783819481AC
:101400008D939C931482138280910E0282830E949A
:101410003A048D2FDF91CF910895DC01ED91FC917D
:1014200084819581DC01ED91FC9109941F93CF9308
:10143000DF93182FEB010E94A707882361F183E156
:10144000E12FF0E0EE0FFF1FE75BFD4F0190F08111
:10145000E02D0190F081E02D0190F081E02D4081A0
:101460005181628173814C835D836E837F8344816C
:10147000558166817781488359836A837B83408560
:10148000518562857385488759876A877B87DF9195
:10149000CF911F91089580E0D3CF8F929F92AF920A
:1014A000BF92CF92DF92EF92FF920F931F93CF9351
:1014B000C82F8B010E94A7078823E9F183E1EC2F55
:1014C000F0E0EE0FFF1FE75BFD4F0190F081E02D94
:1014D0009685913091F54285538564857585019097
:1014E000F081E02D0190F081E02DC088D188E28864
:1014F000F3884C155D056E057F0540F4848095806A
:10150000A680B780480D591D6A1D7B1D4C195D09C9
:101510006E097F09F8014083518362837383CF9101
:101520001F910F91FF90EF90DF90CF90BF90AF9001
:101530009F908F90089580E0C2CF85E0F0CF8F928A
:101540009F92AF92BF92CF92DF92EF92FF920F9352
:101550001F93CF93DF93D82F6A017B014801590174
:101560000E94A707C3E1811101C0C0E0ED2FF0E0A8
:10157000EE0FFF1FE75BFD4F0190F081E02D8685A8
:1015800081113DC0A081B1810D90BC91A02D5096DC
:101590004D915D916D917C9153974C0D5D1D6E1D2C
:1015A0007F1D14968D919D910D90BC91A02D841757
:1015B0009507A607B70740F4481B590B6A0B7B0B2E
:1015C00041505109610971094287538764877587C2
:1015D00086829782A086B18681E08687CF010E94AD
:1015E000F1048C2FDF91CF911F910F91FF90EF901D
:1015F000DF90CF90BF90AF909F908F900895C7E0FD
:10160000F0CF8F929F92AF92BF92CF92DF92EF92E4
:10161000FF920F931F93CF93DF93C82F4A015B0173
:10162000680179010E94A707D3E1811101C0D0E0D0
:10163000EC2FF0E0EE0FFF1FE75BFD4F0190F08114
:10164000E02D868581111BC082869386A486B5868F
:10165000C682D782E086F18681E08687CF010E942C
:10166000F1048D2FDF91CF911F910F91FF90EF909B
:10167000DF90CF90BF90AF909F908F900895D7E06C
:10168000F0CF0F931F93CF93DF93C82F0E94A7072C
:10169000D3E1811101C0D0E0EC2FF0E0EE0FFF1F8D
:1016A000E75BFD4F00811181F8018685813059F497
:1016B000C8010E947505F80116868D2FDF91CF9124
:1016C0001F910F910895D5E0F8CFCF93DF93880F46
:1016D000991FFC01E55EFD4F0190F081E02D8585AD
:1016E000882379F0C285D385CF010A960E947A07B4
:1016F000892B49F08A81882341F08CE0DF91CF91DA
:1017000008958AE0FBCF8DE0F9CF80E0F7CF880F16
:10171000991FFC01E15FFD4F80819181DC01ED911A
:10172000FC9109949B01880F991FFC01E55EFD4F18
:1017300060817181DB011696ED91FC91C9010994DC
:10174000880F991FFC01E15FFD4F80819181DC01D1
:10175000ED91FC9170E060E0099580E008950E94B1
:10176000290E61E08DE00E943E0D62E08CE00E9457
:101770003E0D60E08EE00E943E0D809135030C949A
:101780009B07CF93DF938EE00E94630E25E0AC01B0
:10179000249FC001259F900D11246FEF73E00E94DC
:1017A0002D0FEB018CE00E94A80D019729F5809187
:1017B0008403811110C081E080938403109286031A
:1017C00010928503CE0193702091830321119061C3
:1017D000DF91CF91089580918503909186038C5974
:1017E0009F4F9093860380938503883E934050F3E8
:1017F00081E080938303E6CF1092840310928603E6
:101800001092850310928303DDCFAC019C013370ED
:101810008827907154FF09C030936C0120936B01AD
:101820008091690190916A01089540916B015091F6
:101830006C014F3F540739F483E090E090936A01C4
:10184000809369010895241B350B37FF03C0319540
:1018500021953109243631052CF410926A01109239
:101860006901089581E090E0283C31053CF382E075
:1018700090E0E4CFCF93DF9300D0CDB7DEB70E94E6
:10188000C10B9A838983BE016F5F7F4F80911D03D7
:1018900090911E030E94EC000E94B8000F900F90E0
:1018A000DF91CF910895CF93DF9300D000D0CDB7D3
:1018B000DEB7BE016D5F7F4F8091210390912203BF
:1018C0000E94F0008B819C810E94050C9A83898381
:1018D000019649F0BE016F5F7F4F80911B0390918D
:1018E0001C030E94EC000E94B8000F900F900F9014
:1018F0000F90DF91CF9108950F931F93CF93DF93B4
:1019000000D0CDB7DEB7BE016F5F7F4F80911F0360
:10191000909120030E94F00089819A81009769F4D8
:10192000809125030E94E800809126030E94E80030
:10193000809127030E94B40013C081309105B9F44F
:10194000809126030E94E80004E610E020E030E0E9
:1019500044E650E060E070E0809125030E94E000E2
:101960000F900F90DF91CF911F910F9108958230CA
:10197000910579F4809125030E94E80009E110E0C7
:1019800020E030E049E150E060E070E08091260323
:10199000E5CF039759F4809125030E94E8008091D8
:1019A00026030E94E80080912803C4CF0E94B8005B
:1019B000D7CF60E08DE00E947A0D0C94B800609162
:1019C000820381E06827609382038DE00E947A0D94
:1019D0000C94B8006091810381E0682760938103D3
:1019E0008DE00E947A0D0C94B80061E08DE00E94B9
:1019F0007A0D0C94B800809125030E94E800809134
:101A000023030E94E800809126030E94E800809151
:101A100024030E94E80080E00E9494000C94B80027
:101A200087EE91E00C9439010895833081F028F419
:101A3000813099F08230A9F008958730A9F088307C
:101A4000C9F08430B1F4809180008F7D03C0809113
:101A500080008F7780938000089584B58F7784BD50
:101A6000089584B58F7DFBCF8091B0008F778093F0
:101A7000B00008958091B0008F7DF9CFCF93DF93B0
:101A800090E0FC01E458FF4F249180579F4FFC01E8
:101A900084918823C9F090E0880F991FFC01E854D5
:101AA000FF4FA591B491FC01E255FF4FC591D49130
:101AB00061110DC09FB7F8948C91209582238C936F
:101AC0008881282328839FBFDF91CF9108956230BA
:101AD00051F49FB7F8943C91822F809583238C9387
:101AE000E8812E2BEFCF8FB7F894EC912E2B2C930F
:101AF0008FBFEACF1F93CF93DF93282F30E0F901F8
:101B0000E859FF4F8491F901E458FF4FD491F9014E
:101B1000E057FF4FC491CC23A9F0162F81110E94EA
:101B2000150DEC2FF0E0EE0FFF1FE255FF4FA591D2
:101B3000B4918FB7F894EC91111108C0D095DE23C1
:101B4000DC938FBFDF91CF911F910895DE2BF8CFEB
:101B5000CF93DF93282F30E0F901E859FF4F8491AC
:101B6000F901E458FF4FD491F901E057FF4FC491B8
:101B7000CC23A1F081110E94150DEC2FF0E0EE0FA7
:101B8000FF1FEC55FF4FA591B491EC91ED2381E03F
:101B900090E009F480E0DF91CF91089580E090E03B
:101BA000FACF1F920F920FB60F9211242F933F93EB
:101BB0004F935F936F937F938F939F93AF93BF9355
:101BC000EF93FF9380919B0390919C03A0919D03C1
:101BD000B0919E0330919A0323E0230F2D3798F59F
:101BE0000196A11DB11D20939A0380939B039093AE
:101BF0009C03A0939D03B0939E0380919F039091BB
:101C0000A003A091A103B091A2030196A11DB11D53
:101C100080939F039093A003A093A103B093A2038A
:101C20000E94100DFF91EF91BF91AF919F918F9105
:101C30007F916F915F914F913F912F910F900FBEC8
:101C40000F901F90189526E8230F0296A11DB11D35
:101C5000CACF84B5826084BD84B5816084BD85B5FA
:101C6000826085BD85B5816085BDEEE6F0E080814E
:101C700081608083E1E8F0E010828081826080836F
:101C8000808181608083E0E8F0E0808181608083F2
:101C9000E1EBF0E0808184608083E0EBF0E0808124
:101CA00081608083EAE7F0E08081846080838081C6
:101CB000826080838081816080838081806880836E
:101CC0001092C10008958E3008F08E5020910902C4
:101CD00090E4299F900111248770822B80937C00CF
:101CE00080917A00806480937A0080917A0086FDEA
:101CF000FCCF80917800909179000895FFCFFFCFBD
:101D0000CF93DF93880F990BFC01E957FD4FC081FA
:101D1000D181EC81FD8131978A819B81E80FF91F88
:101D20008D85DF011197823029F580EB90E080836B
:101D30009C939E818F81DF0112979C9311978C93C6
:101D4000CF0104979F01295031091E92A217B307B2
:101D5000E1F720E8DF011A972C9342971E92A8170B
:101D6000B907E1F7A881B9817797ED93FC93DF91EB
:101D7000CF9108958CEC90E0DACF0895789408958F
:101D8000F894089578940895F894089508950E9419
:101D9000290E0E94C60E0E94140D0E94AF0B809166
:101DA000A3030E949B0790E080E008958091350393
:101DB0008093A303089508951F920F920FB60F9278
:101DC00011242F933F934F935F936F937F938F9340
:101DD0009F93AF93BF93EF93FF93E0910A02F0912B
:101DE0000B020995FF91EF91BF91AF919F918F9158
:101DF0007F916F915F914F913F912F910F900FBE07
:101E00000F901F9018951F920F920FB60F921124EA
:101E10002F933F934F935F936F937F938F939F93F2
:101E2000AF93BF93EF93FF93E0910C02F0910D02FB
:101E30000995FF91EF91BF91AF919F918F917F9104
:101E40006F915F914F913F912F910F900FBE0F9027
:101E50001F901895F8940C945B0F97FB072E16F4BF
:101E6000009407D077FD09D00E94410F07FC05D0F0
:101E70003EF4909581959F4F0895709561957F4FA1
:101E80000895AA1BBB1B51E107C0AA1FBB1FA617C1
:101E9000B70710F0A61BB70B881F991F5A95A9F713
:101EA00080959095BC01CD010895EE0FFF1F059020
:0A1EB000F491E02D0994F894FFCF9F
:101EBA000000000000000000000000000000000018
:101ECA000000000000000000000000000000000008
:101EDA0000000000000000000000000000000000F8
:101EEA0000000000000000000000000000000000E8
:101EFA0000000000000000000000000000000000D8
:101F0A0000000000000000000000000000000000C7
:101F1A000000000000000000FFFFFFFFFF000009B3
:101F2A000300009503FFFFFFFFFFFFFFFF0000BE56
:101F3A0006BE06510200000000F401000000000085
:101F4A0000025A02000000006400000000000000C5
:101F5A000263020000000000000000000000000010
:101F6A006C020000000000000000000000000000F9
:101F7A000000060000000005040000000404000040
:101F8A000003000000000100000000010000000042
:101F9A000100000000010001000000FFFF00000135
:101FAA000000000000000000000000000000000720
:101FBA0000FF00000200FF000001DB0EDB0EFF172E
:101FCA00021302C0061F02C006340234021F023185
:101FDA00020000EF0679067F018F0302021E07AC9A
:101FEA000575060446020000EF0679068101920390
:101FFA000202A8052405750605B001A10192018314
:10200A0001E7010D0A5702750605E7010D0A60028C
:10201A00750606E7010D0A6902750603E7010D0A4E
:10202A007202750602E201DD01D801D301CE01C9AF
:10203A0001C401BF019503FB02ED02DF02D102C315
:10204A0002B502A70299020903AE051E068000FB2B
:10205A000C000007060100AA05A20780003A0C003E
:10206A0000060501002007A4048000530C000005A7
:10207A0004010022089E0680007C0C000004030173
:10208A00001C0626058000DF0C000003010100C6C3
:10209A0005A4038000EA0C000002010100A6052441
:1020AA00048000D90C000001010100CA0522078042
:1020BA0000F50C000000010100C805CC0550007EA7
:1020CA000E0000080001000402FF010100000001E7
:1020DA0000000003020100010000000101000000ED
:1020EA000000010100009E086C0875084E08DA0419
:1020FA00EB07C70414082B09E4099907160AE00834
:10210A004D0A08099F0A5209010B9107410B8C07D6
:0E211A00870B650B920BA709A00B7109F0084B
:00000001FF
