:100000000C9462000C94950E0C94BC0E0C948A0017
:100010000C948A000C948A000C948A000C948A0038
:100020000C948A000C948A000C948A000C948A0028
:100030000C948A000C948A000C948A000C948A0018
:100040000C948A0D0C948A000C948A000C948A00FB
:100050000C948A000C948A000C948A000C948A00F8
:100060000C948A000C948A00000000080002010031
:100070000003040700000000000000000102040863
:100080001020408001020408102001020408102002
:10009000040404040404040402020202020203032E
:1000A00003030303000000002300260029000000D2
:1000B0000000250028002B0000000000240027007D
:1000C0002A008F0E11241FBECFEFD8E0DEBFCDBFB8
:1000D00012E0A0E0B1E0ECEDFDE102C005900D9270
:1000E000AE3FB107D9F726E0AEEFB2E001C01D92F6
:1000F000A432B207E1F710E0C2E6D0E004C02197D5
:10010000FE010E94E60EC136D107C9F70E94800E9B
:100110000C94E30E0C940000E4E10E944101089568
:10012000E2E10E9441010895EAE00E944101089540
:10013000E1E00E9441010895E3E00E944101089539
:10014000E7E00E9441010895E5E00E944101089521
:10015000E0E00E9441010895E2E00E94410108951B
:10016000E4E00E9441010895ECE00E9441010895FD
:10017000EBE10E9441010895EEE00E9441010895E3
:10018000E8E00E9441010895E0E10E9441010895E4
:10019000EAE10E9441010895E6E00E9441010895CC
:1001A000E8E10E9441010895E9E00E9441010895BB
:1001B000EBE00E9441010895EDE00E9441010895A5
:1001C000EFE00E9441010895E1E10E94410108959C
:1001D000E3E10E9441010895E5E10E944101089593
:1001E000E7E10E9441010895E9E10E94410108957B
:1001F000E6E10E944101089521968A929A92AA927C
:10020000BA92CA92DA92EA92FA920A931A932197D0
:10021000E0916D01F0916E010080F181E02DC083CD
:10022000D1830895C0916F01D0917001E881F98167
:10023000C081D181219619910991F990E990D990C5
:10024000C990B990A99099908990219708952F907D
:100250003F90E7E6F1E0CDB7DEB7EDBFFEBF3F92DE
:100260002F9208952F903F90CDBFDEBF3F922F92E7
:100270000895E0E80E9441010895E0E40E944101F0
:1002800008952F923F924F925F926F927F922FB676
:100290002F92CF93DF937E2EF894E0910001EF5FD1
:1002A000E0930001E13011F40E942701E0E0E093C7
:1002B0007D01E72DE07849F00E94A105F0917E01D3
:1002C000F17071F00E942E040BC0E72DEC3140F468
:1002D000EE0FF0E0EA53FD4F0190F081E02D09951B
:1002E000F0917D01EF2FE17059F0F27011F00E9452
:1002F000FC008F938F2F0E9478038F910E94120130
:1003000020910001215020930001222311F40E942A
:100310003201DF91CF912F902FBE7F906F905F9031
:100320004F903F902F900895FC014081FB01308158
:10033000842F8F7090E0B0E0A0E0B695A7959795D8
:1003400087958A5E9C4FFC018081242F281B217099
:100350004E70242B832F8F7090E0B0E0A0E0B69514
:10036000A795979587958A5E9C4FFC018081932F76
:10037000981B91703E70932B41E050E0291710F0CC
:1003800050E040E0CA0108958F929F92AF92BF92D1
:10039000EF92FF920F931F93CF93DF937C014A015B
:1003A0005B01B694A79497948794423051056105F8
:1003B000710580F0440F551F8701040F151FE401DC
:1003C000CC0FDD1FCE0DDF1DB801CE010E949401C0
:1003D000892B59F4DF91CF911F910F91FF90EF90EE
:1003E000BF90AF909F908F900895F8019081818188
:1003F000288139813183208398838983B501A401C1
:10040000D0CF4F925F926F927F928F929F92AF92D6
:10041000BF92CF92DF92EF92FF920F931F93CF93F1
:10042000DF9300D000D000D0CDB7DEB78C016A01D9
:100430007B01DC018C91282F30E050E040E02983E3
:100440003A834B835C8346015701880C991CAA1C94
:10045000BB1C29813A814B815C81281539054A05ED
:100460005B05B8F426960FB6F894DEBF0FBECDBF7D
:10047000DF91CF911F910F91FF90EF90DF90CF9080
:10048000BF90AF909F908F907F906F905F904F90B4
:100490000895240135013FEF431A530A630A730A92
:1004A00089819A81AB81BC8184159505A605B70524
:1004B00080F0B201660F771F600F711FC401880FB3
:1004C000991F800F911F0E949401892B11F05301F5
:1004D00042013401660C771C600E711ECC0CDD1CD1
:1004E000D801AC0DBD1DBE83AD83B301CD010E940B
:1004F0009401892B09F4B6CFED81FE819081818131
:10050000D3012D913C911197318320839C931196B7
:100510008C937501640197CFECEBF3E040814F5F62
:10052000408350E070E060E0E82FEE0FFF0BE05BEF
:10053000FD4F0190F081E02D238530E0F901EA5E66
:10054000FC4F908191509083FA01EE0FFF1FE4540D
:10055000FC4F220F331F9170922B908381838CEB81
:1005600093E00C94C401ECEBF3E040814F5F4083D7
:1005700050E070E060E0FA01EE0FFF1FE454FC4F22
:10058000A82FAA0FBB0BAC5BBD4F0D90BC91A02D4B
:1005900013969C91908381838CEB93E00C94C4011F
:1005A000CF93DF93ECEBF3E080819FEF980F908384
:1005B000D281C38190E0880F991F84549C4FDC0145
:1005C0008D919C919383828341E050E060E070E0E4
:1005D000CF010E9401028D2F9C2FDF91CF910895B2
:1005E0008091FE02811114C0809175019091760175
:1005F000A0917701B09178018F3F2FEF9207A2076A
:10060000B20741F00597A105B10534F481E00895E2
:1006100084E0089580E0089582E00895CF93DF9309
:10062000880F990BFC01E05BFD4F0190F081E02DFC
:100630000084F185E02D3097E1F02281211119C06D
:1006400021E022838C5B9D4FEC01A881B981139638
:100650008C9113978183208130E0F901EA5EFC4F91
:10066000808181508083220F331F8170822B1396EB
:100670008C93DF91CF910895CF93DF93880F990BDF
:10068000FC01E05BFD4F0190F081E02D0084F185DD
:10069000E02D309761F02281213049F412828C5B89
:1006A0009D4FEC01A881B981818113968C93DF91D4
:1006B000CF9108958091790190917A01A0917B0169
:1006C000B0917C0140917501509176016091770164
:1006D00070917801481759076A077B0741F0E0914C
:1006E0007301F091740121E024830C94B302089506
:1006F000CF93DF93D0E0C0E0882389F0C0916D01F3
:10070000D0916E01E0917101F0917201848183308A
:1007100031F081E08483809175010E94B302E09101
:100720007301F0917401F0937201E0937101809173
:100730006F019091700190936E0180936D01809193
:10074000790130917A0120917B0190917C01809315
:10075000750130937601209377019093780192E0B0
:1007600094830E940E03CE01DF91CF910895809172
:1007700075010E943C03E0917101F0917201828148
:10078000882319F085E08483089514820895CF9317
:10079000DF93282F220F330BF901EC5BFD4FC08153
:1007A000D1819A81205B3D4FD901ED91FC91248547
:1007B000921780F4911105C095E09C8391E090938D
:1007C0007E010E948C028A818F5F8A8380E0DF91A4
:1007D000CF91089584E0FBCFE82FEE0FFF0BEC5B89
:1007E000FD4F0190F081E02D118210820C94390EA2
:1007F0001F93CF93DF930E94D002182F892F492F88
:10080000092E000C550B660B770B40937901509322
:100810007A0160937B0170937C01292F220F330BA7
:10082000F901EC5BFD4FC081D181D0937401C0937D
:100830007301205B3D4FF9012081318130937001BC
:1008400020936F019C81953019F40E94EC031B8367
:1008500010927E01DF91CF911F910895E09179016F
:10086000F0917A01EE0FFF1FEC5BFD4F0190F081DC
:10087000E02D9091BE038381891740F40E945A03B2
:100880000E94F80383E080937D01089580E0FBCF10
:1008900081E080937D010C94F803EF92FF920F9317
:1008A0001F93CF93DF93C1E001C0CC0F8A95EAF785
:1008B00020915A0230915B0280914E0290914F023A
:1008C0001092BC0310926E0110926D013093700172
:1008D00020936F0110927201109271019093740134
:1008E000809373018FEF9FEFDC01809375019093EC
:1008F0007601A0937701B09378018093790190936A
:100900007A01A0937B01B0937C0110927D0110923B
:100910007E0185E00E94C70300EC12E0D0E0F80100
:1009200081918F018C2319F08D2F0E94C703DF5F07
:10093000D530A9F70DEB12E083E2E82E82E0F82E25
:10094000D1E0F80181918F018C2339F0F70180818A
:100950009181FC01D6870E94E504F2E0EF0EF11CC4
:1009600082E0003C180769F7DF91CF911F910F914A
:10097000FF90EF9008950E949B0781110E94BC0791
:10098000E0917101F091720180819181892B21F0B8
:10099000809175010E9481090C94E4080E949B07D4
:1009A00081110E94BC07E0917101F0917201808178
:1009B0009181892B21F0809175010E9481090C940D
:1009C000CC0881E08093FF020895CF92DF92EF92EE
:1009D000FF920F931F93CF93DF93FC01A081B1810E
:1009E0000D90BC91A02D54968D919C915597009798
:1009F00009F445C0428553856485758530E020E063
:100A0000EC01CA84DB84EC84FD844C155D056E0525
:100A10007F0508F049C08C0113830283358324834A
:100A20000115110519F0E801FD83EC83211531054D
:100A300009F444C0E901FB83EA835696CD91DC9129
:100A400057970A851B852C853D855096CD90DD9066
:100A5000ED90FC9053970C151D052E053F0598F55C
:100A6000C416D506E606F70628F0401751076207B8
:100A7000730788F45796FC93EE9356970CC05596DF
:100A8000FC93EE9354975796FC93EE9356971582EA
:100A9000148213821282DF91CF911F910F91FF90E8
:100AA000EF90DF90CF900895EC010A811B819C01AB
:100AB0000115110509F4B0CFC801A2CF5596FC93DA
:100AC000EE935497BACFC416D506E606F70668F239
:100AD000E2CFCF93DF93DC01ED91FC911197019070
:100AE000F081E02D848995891296CD91DC91139740
:100AF0008A179B0711F4D58BC48B868997898A172F
:100B00009B0711F4D78BC68B209731F014968D91EB
:100B10009C9115979D838C8314960D90BC91A02D6C
:100B2000109721F01396DC93CE93129786899789BC
:100B3000892B21F484899589978B868BDF91CF91BE
:100B40000895EF92FF920F931F93CF93DF93FC01D1
:100B50008091FF02882309F4ACC084859585A68521
:100B6000B7850196A11DB11D84879587A687B78794
:100B7000408151816281738184179507A607B70769
:100B800009F097C080899189A289B3890196A11D36
:100B9000B11D4481558166817781481759076A07DD
:100BA0007B0718F480E090E0DC01808B918BA28BB6
:100BB000B38B1486158616861786C689D789209723
:100BC00009F477C04A855B856C857D854817590790
:100BD0006A077B0709F06DC0CE01DC011296ED902B
:100BE000FC90E114F10469F0D7011A960D911D9162
:100BF0002D913C911D97401751076207730709F427
:100C00005FC02C813D812115310529F0D901139652
:100C1000FC92EE921297E114F10429F0D701159697
:100C20003C932E93149724893589C217D30711F466
:100C3000F58AE48AE114F10409F444C0F78AE68AEB
:100C40008F01FC0113821282EA80FB80E881F98126
:100C50000280F381E02DCE0109958E819F81A885C8
:100C6000B9850097A105B10591F14A855B856C8531
:100C70007D85840F951FA61FB71FF80144815581FC
:100C800066817781481759076A077B0740F44095CA
:100C9000509560957095840F951FA61FB71F8A8782
:100CA0009B87AC87BD87CE010E94E504E7012097B2
:100CB00059F6DF91CF911F910F91FF90EF9008951A
:100CC000C7018BCF24893589378B268BB9CF1E86F8
:100CD000EDCFFC0182810C94C703EF92FF920F933A
:100CE0001F93CF93DF937C018B01FB01C285D385DA
:100CF000CB010A960E946E07009711F1F801258535
:100D0000FC01D7011216C4F0F80185859881981B63
:100D100098839981890F89839485891708F01982AE
:100D20008A81882379F01A828CE0DF91CF911F911C
:100D30000F91FF90EF90089581918D932150E2CF14
:100D40008DE0F3CF80E0F1CFDA01109749F0ED911B
:100D5000FC911197309721F0AB01BC01CD010994B2
:100D600081E0089581E00895EF92FF921F93CF9361
:100D7000DF937B01DC011296CD91DC91209711F479
:100D800010E017C0EC81FD81B701CE010995182F45
:100D900081110DC088819981009721F40A80DB813F
:100DA000C02DECCFDC01ED91FC910995F7CF8E3091
:100DB000A9F380E00E942C07812FDF91CF911F9132
:100DC000FF90EF900895CF92DF92EF92FF920F93F2
:100DD0001F93CF93DF93EC016B010A851B85E88895
:100DE000F98848855985C7010E94A406882391F196
:100DF000CE010A960E943207009739F12D85022E06
:100E0000000C330BF601A701BC01121613067CF08F
:100E1000F80180819D85890F808380E0DF91CF91EB
:100E20001F910F91FF90EF90DF90CF9008958191E7
:100E3000DA018D93AD01CF010197DC018C91DB01CB
:100E40008D93BD0121503109E0CF81E0D801129688
:100E50008C93E3CF8EE0E2CF80917E0181110C94E0
:100E60002E040895CF92DF92EF92FF920F931F937B
:100E7000FC01A081B1814C9150E011968C919A01B6
:100E8000280F311D6901032E000CEE08FF080281B6
:100E9000602F70E0CB01841B950BAC018381082E81
:100EA000000C990B48175907B4F044815581C901CA
:100EB00010E030E020E0C016D106E206F30610F0A4
:100EC000861B970B840F951F1F910F91FF90EF903A
:100ED000DF90CF90089590E080E0F6CFFC01A081F4
:100EE000B1818C91882349F011969C9124813581A0
:100EF000A901490F511DCA01089590E080E00895AD
:100F00000E949B07809168010895809368010E9468
:100F10004D040E94E1040C9448040C94380ECF93C5
:100F2000C82F0E94F002811102C00E94760E8C2F01
:100F3000CF910C94900080910C038130D9F0809176
:100F4000040390910503A0910603B0910703892B38
:100F50008A2B8B2B79F481E040910803509109038F
:100F600060910A0370910B03452B462B472B19F414
:100F700080E0089581E0089510920C031092080318
:100F80001092090310920A0310920B0310920403AB
:100F9000109205031092060310920703809100033C
:100FA00090910103A0910203B091030380930D037C
:100FB00090930E03A0930F03B093100308950E9423
:100FC000790E80910D0390910E03A0910F03B091C3
:100FD00010030196A11DB11D80930D0390930E0384
:100FE000A0930F03B093100380910803909109031D
:100FF000A0910A03B0910B030196A11DB11D80932E
:10100000080390930903A0930A03B0930B03089578
:101010008091080390910903A0910A03B0910B03FA
:101020000097A105B10569F140910D0350910E03A0
:1010300060910F03709110034150510961097109CA
:1010400040930D0350930E0360930F0370931003AE
:101050000197A109B1098093080390930903A09314
:101060000A03B0930B0380910D0390910E03A0919E
:101070000F03B0911003892B8A2B8B2B11F40C9446
:10108000770E08958091080390910903A0910A03B7
:10109000B0910B03892B8A2B8B2B89F4809104034D
:1010A00090910503A0910603B0910703892B8A2B29
:1010B0008B2B29F40E94790E81E080930C03089514
:1010C00080910C03882321F010920C030C94770E6E
:1010D00008950E947D0E80910D0390910E03A091C2
:1010E0000F03B09110030196A11DB11D80930D0354
:1010F00090930E03A0930F03B09310038091040309
:1011000090910503A0910603B09107030196A11DDC
:10111000B11D8093040390930503A0930603B0933D
:10112000070308958091040390910503A09106039D
:10113000B09107030097A105B10569F140910D0336
:1011400050910E0360910F037091100341505109AB
:101150006109710940930D0350930E0360930F03CF
:10116000709310030197A109B10980930403909330
:101170000503A0930603B093070380910D0390919C
:101180000E03A0910F03B0911003892B8A2B8B2B98
:1011900011F40C947B0E08950E949B07882311F094
:1011A00083E1089580E00895CF93C82F0E949B07A4
:1011B0008C2F0E94C703C82F80917E0181110E944D
:1011C0002E048C2FCF910895CF930E949B07C3E1EB
:1011D000811101C0C0E0E0917101F0917201828142
:1011E000815082830E94B70381E080937D010E9439
:1011F000F8038C2FCF910895CF93C82F0E949B079F
:10120000E0917101F09172018281815082838C2F73
:101210000E94C703C82F81110AC00E94B70381E052
:1012200080937D010E94F8038C2FCF910895E09167
:101230007101F091720182818F5F8283F5CFCF932C
:101240000E949B07C3E1811101C0C0E0809175013C
:101250000E943C030E942E048091750190917601BA
:10126000A0917701B09178014091790150917A0174
:1012700060917B0170917C0184179507A607B707E1
:1012800011F40E940E038C2FCF910895CF93DF931A
:10129000EC010E949B07882391F083E14091750146
:1012A0005091760160917701709178014530510538
:1012B0006105710534F44883DF91CF91089580E092
:1012C000EDCF9091EB019883F7CF0F931F93CF93BE
:1012D000C82F8B010E949B07882389F083E1EC2FA4
:1012E000EE0FFF0BEC5BFD4F0190F081E02D948140
:1012F0009370F8019083CF911F910F91089580E032
:10130000EECF880F990BFC01EC5BFD4FA081B18102
:10131000ED91FC911197309769F01D921C922091EC
:10132000EB0193818481228314821382E92FF82FA9
:101330003097B9F70895CF93C82F0E949B07882351
:1013400081F183E1EC2FF0E0EE0FFF1FE055FD4F40
:101350000190F081E02D909175019283A09171012F
:10136000B09172012D913C91119734832383119692
:10137000FC93EE9313969C911397918320819695FD
:10138000921768F430E0F901EA5EFC4F90819150C9
:101390009083220F331F9170922B13969C93CF91C1
:1013A000089580E0CFCFCF93DF93C82F0E949B0793
:1013B000D3E1811101C0D0E0EC2FF0E0EE0FFF1F70
:1013C000E055FD4F0190F081E02DA0917101B091A9
:1013D0007201818113968C931397838194818D93ED
:1013E0009C93148213828091EB0182830E942E04CD
:1013F0008D2FDF91CF910895DC01ED91FC918481D7
:101400009581DC01ED91FC9109941F93CF93DF93BB
:10141000182FEB010E949B07882361F183E1E12FE4
:10142000F0E0EE0FFF1FED5DFD4F0190F081E02D2C
:101430000190F081E02D0190F081E02D40815181FB
:10144000628173814C835D836E837F834481558188
:1014500066817781488359836A837B834085518580
:1014600062857385488759876A877B87DF91CF912B
:101470001F91089580E0D3CF8F929F92AF92BF9239
:10148000CF92DF92EF92FF920F931F93CF93C82FCB
:101490008B010E949B078823E9F183E1EC2FF0E0A8
:1014A000EE0FFF1FED5DFD4F0190F081E02D968561
:1014B000913091F542855385648575850190F08161
:1014C000E02D0190F081E02DC088D188E288F3887A
:1014D0004C155D056E057F0540F484809580A680DF
:1014E000B780480D591D6A1D7B1D4C195D096E0999
:1014F0007F09F8014083518362837383CF911F91E9
:101500000F91FF90EF90DF90CF90BF90AF909F90A2
:101510008F90089580E0C2CF85E0F0CF8F929F92A8
:10152000AF92BF92CF92DF92EF92FF920F931F93F1
:10153000CF93DF93D82F6A017B01480159010E94A4
:101540009B07C3E1811101C0C0E0ED2FF0E0EE0F79
:10155000FF1FED5DFD4F0190F081E02D868581112B
:101560003DC0A081B1810D90BC91A02D50964D91B0
:101570005D916D917C9153974C0D5D1D6E1D7F1D8E
:1015800014968D919D910D90BC91A02D8417950777
:10159000A607B70740F4481B590B6A0B7B0B415059
:1015A000510961097109428753876487758786826B
:1015B0009782A086B18681E08687CF010E94E504EC
:1015C0008C2FDF91CF911F910F91FF90EF90DF90C3
:1015D000CF90BF90AF909F908F900895C7E0F0CFCD
:1015E0008F929F92AF92BF92CF92DF92EF92FF9233
:1015F0000F931F93CF93DF93C82F4A015B016801BC
:1016000079010E949B07D3E1811101C0D0E0EC2F4A
:10161000F0E0EE0FFF1FED5DFD4F0190F081E02D3A
:10162000868581111BC082869386A486B586C68274
:10163000D782E086F18681E08687CF010E94E504AB
:101640008D2FDF91CF911F910F91FF90EF90DF9041
:10165000CF90BF90AF909F908F900895D7E0F0CF3C
:101660000F931F93CF93DF93C82F0E949B07D3E163
:10167000811101C0D0E0EC2FF0E0EE0FFF1FED5D17
:10168000FD4F00811181F8018685813059F4C80130
:101690000E946905F80116868D2FDF91CF911F9169
:1016A0000F910895D5E0F8CFCF93DF93880F991F5E
:1016B000FC01E850FE4F0190F081E02D85858823E4
:1016C00079F0C285D385CF010A960E946E07892BD7
:1016D00049F08A81882341F08CE0DF91CF91089511
:1016E0008AE0FBCF8DE0F9CF80E0F7CF880F991F1C
:1016F000FC01E451FE4F80819181DC01ED91FC9170
:1017000009949B01880F991FFC01E850FE4F6081EE
:101710007181DB011696ED91FC91C9010994880F46
:10172000991FFC01E451FE4F80819181DC01ED9114
:10173000FC9170E060E0099580E008950E94E20D60
:1017400061E08DE00E94F70C62E08CE00E94F70CF3
:1017500060E08EE00E94F70C8091C5020C948F0728
:10176000CF93DF938EE00E941C0EEC018CE00E9470
:10177000610D892B29F580911303811110C081E03F
:10178000809313031092150310921403CE019370EB
:101790002091120321119061DF91CF9108958091E2
:1017A0001403909115038C599F4F909315038093C8
:1017B0001403883E934050F381E080931203E6CFF8
:1017C0001092130310921203E1CFAC019C0133700D
:1017D0008827907154FF07C030936C0120936B01F0
:1017E00090E080E0089540916B0150916C014F3F73
:1017F000540791F0241B350B37FF03C03195219519
:101800003109243131055CF081E090E02832310566
:1018100034F082E090E0089583E090E00895089528
:10182000CF93DF9300D0CDB7DEB70E94B00B9A8381
:101830008983BE016F5F7F4F8091B4029091B502A2
:101840000E94EC000E94B8000F900F90DF91CF91A2
:101850000895CF93DF9300D000D0CDB7DEB7BE019F
:101860006D5F7F4F8091B8029091B9020E94F000A5
:101870008B819C810E94E50B9A8389832091690169
:1018800030916A018217930769F090936A018093FF
:101890006901BE016F5F7F4F8091B2029091B302E8
:1018A0000E94EC000F900F900F900F90DF91CF915E
:1018B0000895FF920F931F93CF93DF9300D0CDB77E
:1018C000DEB7BE016F5F7F4F8091B6029091B70285
:1018D0000E94F00089819A81009749F48091BC02AE
:1018E0000E94E80060E08DE00E94330D13C081305B
:1018F0009105D1F4F090BC028F2D0E94E80004EF16
:1019000011E020E030E044EF51E060E070E08F2D26
:101910000E94E0000E94B8000F900F90DF91CF91DD
:101920001F910F91FF9008958230910571F4F0900E
:10193000BC028F2D0E94E8000DE710E020E030E0AF
:101940004DE750E060E070E0E2CF039719F7809137
:10195000BC020E94E80061E0C6CF6091110381E003
:101960006827609311038DE00E94330D0C94B8003A
:101970008091BC020E94E8008091BA020E94E800B7
:101980008091BB020E94E80080E00E9494000C94C9
:10199000B80089EC91E00C9439010895833081F00E
:1019A00028F4813099F08230A9F008958730A9F0A9
:1019B0008830C9F08430B1F4809180008F7D03C0FD
:1019C000809180008F7780938000089584B58F7711
:1019D00084BD089584B58F7DFBCF8091B0008F7753
:1019E0008093B00008958091B0008F7DF9CFCF93A0
:1019F000DF9390E0FC01E458FF4F249180579F4F04
:101A0000FC0184918823C9F090E0880F991FFC01A4
:101A1000E854FF4FA591B491FC01E255FF4FC591E9
:101A2000D49161110DC09FB7F8948C9120958223B9
:101A30008C938881282328839FBFDF91CF910895BD
:101A4000623051F49FB7F8943C91822F80958323A4
:101A50008C93E8812E2BEFCF8FB7F894EC912E2B3F
:101A60002C938FBFEACF1F93CF93DF93282F30E0C3
:101A7000F901E859FF4F8491F901E458FF4FD491DF
:101A8000F901E057FF4FC491CC23A9F0162F811123
:101A90000E94CE0CEC2FF0E0EE0FFF1FE255FF4F3F
:101AA000A591B4918FB7F894EC91111108C0D0951D
:101AB000DE23DC938FBFDF91CF911F910895DE2B42
:101AC000F8CFCF93DF93282F30E0F901E859FF4F8B
:101AD0008491F901E458FF4FD491F901E057FF4F89
:101AE000C491CC23A1F081110E94CE0CEC2FF0E028
:101AF000EE0FFF1FEC55FF4FA591B491EC91ED2334
:101B000081E090E009F480E0DF91CF91089580E0DA
:101B100090E0FACF1F920F920FB60F9211242F93DD
:101B20003F934F935F936F937F938F939F93AF9365
:101B3000BF93EF93FF938091290390912A03A09183
:101B40002B03B0912C033091280323E0230F2D3772
:101B500098F50196A11DB11D2093280380932903B8
:101B600090932A03A0932B03B0932C0380912D0311
:101B700090912E03A0912F03B09130030196A11DE7
:101B8000B11D80932D0390932E03A0932F03B09348
:101B900030030E94C90CFF91EF91BF91AF919F91CB
:101BA0008F917F916F915F914F913F912F910F9006
:101BB0000FBE0F901F90189526E8230F0296A11DC7
:101BC000B11DCACF84B5826084BD84B5816084BDF7
:101BD00085B5826085BD85B5816085BDEEE6F0E0A6
:101BE000808181608083E1E8F0E010828081826002
:101BF0008083808181608083E0E8F0E08081816083
:101C00008083E1EBF0E0808184608083E0EBF0E0B2
:101C1000808181608083EAE7F0E080818460808356
:101C20008081826080838081816080838081806800
:101C300080831092C10008958E3008F08E5020915C
:101C4000E60190E4299F900111248770822B8093F4
:101C50007C0080917A00806480937A0080917A0081
:101C600086FDFCCF80917800909179000895FFCF98
:101C7000FFCFCF93DF93880F990BFC01E05BFD4F03
:101C8000C081D181EC81FD8131978A819B81E80FF0
:101C9000F91F8D85DF011197823029F580EB90E0E7
:101CA00080839C939E818F81DF0112979C93119773
:101CB0008C93CF0104979F01295031091E92A217DE
:101CC000B307E1F720E8DF011A972C9342971E92A1
:101CD000A817B907E1F7A881B9817797ED93FC932D
:101CE000DF91CF9108958CEC90E0DACF089578944D
:101CF0000895F894089578940895F89408950895AF
:101D00000E94E20D0E947F0E0E94CD0C0E949E0B4D
:101D1000809131030E948F0790E080E008958091C8
:101D2000C50280933103089508951F920F920FB654
:101D30000F9211242F933F934F935F936F937F9351
:101D40008F939F93AF93BF93EF93FF93E091E7013E
:101D5000F091E8010995FF91EF91BF91AF919F91AB
:101D60008F917F916F915F914F913F912F910F9044
:101D70000FBE0F901F9018951F920F920FB60F92E3
:101D800011242F933F934F935F936F937F938F9380
:101D90009F93AF93BF93EF93FF93E091E901F0918D
:101DA000EA010995FF91EF91BF91AF919F918F91BA
:101DB0007F916F915F914F913F912F910F900FBE47
:101DC0000F901F901895F8940C94EC0EEE0FFF1FD7
:0C1DD0000590F491E02D0994F894FFCFE9
:101DDC0000000000000000000000000000000000F7
:101DEC0000000000000000000000000000000000E7
:101DFC0000000000000000000000000000000000D7
:101E0C0000000000000000000000000000000000C6
:101E1C0000000000000000000000000000000000B6
:101E2C0000000000000000000000000000000000A6
:101E3C000000000000000000FFFFFFFFFF0000A2F9
:101E4C000200002303FFFFFFFFFFFFFFFF0000B2B4
:101E5C0006B206290200000000F4010000F50100A2
:101E6C0000023202000000006400000001000000CB
:101E7C00023B020000000000000000000000000017
:101E8C000000000500000000040400000003040032
:101E9C0000000200000000010001000000FFFF0034
:101EAC000001000000000000000000000000000025
:101EBC00000600FF000001940E940EFFF401F001E7
:101ECC00B406FC01B40611021102FC010E02000062
:101EDC00E3066D067F011D0302029E05B803690629
:101EEC000100000000E3066D06810120030202B42C
:101EFC0003B203A10192018301C901FC092F0269FC
:101F0C000602C901FC093802690603C901FC094132
:101F1C0002690600C401BF01BA01B501B001230377
:101F2C009402860278026A025C02A202BA039E0440
:101F3C008000B80C000004050100B603A205800067
:101F4C00100C000003040100A00532038000290CD2
:101F5C0000000203010022061E058000590C00003F
:101F6C00010201004A04CA038000AD0C000000010C
:101F7C0001004C044E045000370E00000500010017
:101F8C00E10101000000010000000201000001015C
:101F9C000000010100009208600869084208CE04A4
:101FAC00DF07BB0408081F09D3098D07050AD408ED
:101FBC003C0AFC088E0A4609F00A8507300B80079C
:0E1FCC00760B540B810B9B098F0B6509E40803
:00000001FF
