:100000000C9462000C94D00E0C94F70E0C948A00A1
:100010000C948A000C948A000C948A000C948A0038
:100020000C948A000C948A000C948A000C948A0028
:100030000C948A000C948A000C948A000C948A0018
:100040000C94C50D0C948A000C948A000C948A00C0
:100050000C948A000C948A000C948A000C948A00F8
:100060000C948A000C948A00000000080002010031
:100070000003040700000000000000000102040863
:100080001020408001020408102001020408102002
:10009000040404040404040402020202020203032E
:1000A00003030303000000002300260029000000D2
:1000B0000000250028002B0000000000240027007D
:1000C0002A00CA0E11241FBECFEFD8E0DEBFCDBF7D
:1000D00013E0A0E0B1E0E2E5FEE102C005900D9280
:1000E000AC36B107D9F728E0ACE6B3E001C01D9209
:1000F000A232B207E1F710E0C2E6D0E004C02197D7
:10010000FE010E94210FC136D107C9F70E94BB0E24
:100110000C941E0F0C940000E4E10E94410108952C
:10012000E2E10E9441010895EAE00E944101089540
:10013000E1E00E9441010895E3E00E944101089539
:10014000E7E00E9441010895E5E00E944101089521
:10015000E0E00E9441010895E2E00E94410108951B
:10016000E4E00E9441010895ECE00E9441010895FD
:10017000EBE10E9441010895EEE00E9441010895E3
:10018000E8E00E9441010895E0E10E9441010895E4
:10019000EAE10E9441010895E6E00E9441010895CC
:1001A000E8E10E9441010895E9E00E9441010895BB
:1001B000EBE00E9441010895EDE00E9441010895A5
:1001C000EFE00E9441010895E1E10E94410108959C
:1001D000E3E10E9441010895E5E10E944101089593
:1001E000E7E10E9441010895E9E10E94410108957B
:1001F000E6E10E944101089521968A929A92AA927C
:10020000BA92CA92DA92EA92FA920A931A932197D0
:10021000E0916D01F0916E010080F181E02DC083CD
:10022000D1830895C0916F01D0917001E881F98167
:10023000C081D181219619910991F990E990D990C5
:10024000C990B990A99099908990219708952F907D
:100250003F90E7E6F1E0CDB7DEB7EDBFFEBF3F92DE
:100260002F9208952F903F90CDBFDEBF3F922F92E7
:100270000895E0E80E9441010895E0E40E944101F0
:1002800008952F923F924F925F926F927F922FB676
:100290002F92CF93DF937E2EF894E0910001EF5FD1
:1002A000E0930001E13011F40E942701E0E0E093C7
:1002B0007D01E72DE07849F00E94AD05F0917E01C7
:1002C000F17071F00E943A040BC0E72DEC3140F45C
:1002D000EE0FF0E0ED5CFC4F0190F081E02D099510
:1002E000F0917D01EF2FE17059F0F27011F00E9452
:1002F000FC008F938F2F0E9484038F910E94120124
:1003000020910001215020930001222311F40E942A
:100310003201DF91CF912F902FBE7F906F905F9031
:100320004F903F902F900895FC014081FB01308158
:10033000842F8F7390E0B0E0A0E023E0B695A795FE
:10034000979587952A95D1F78B579C4FFC01808113
:10035000242F281B27704873242B832F8F7390E042
:10036000B0E0A0E043E0B695A795979587954A95AC
:10037000D1F78B579C4FFC018081932F981B97706E
:100380003873932B41E050E0291710F050E040E023
:10039000CA0108958F929F92AF92BF92EF92FF92FF
:1003A0000F931F93CF93DF937C014A015B01B694B7
:1003B000A79497948794423051056105710580F0A8
:1003C000440F551F8701040F151FE401CC0FDD1FDB
:1003D000CE0DDF1DB801CE010E949401892B59F486
:1003E000DF91CF911F910F91FF90EF90BF90AF9051
:1003F0009F908F900895F8019081818128813981A3
:100400003183208398838983B501A401D0CF4F9293
:100410005F926F927F928F929F92AF92BF92CF9294
:10042000DF92EF92FF920F931F93CF93DF9300D051
:1004300000D000D0CDB7DEB78C016A017B01DC01B2
:100440008C91282F30E050E040E029833A834B83A1
:100450005C8346015701880C991CAA1CBB1C29818E
:100460003A814B815C81281539054A055B05B8F452
:1004700026960FB6F894DEBF0FBECDBFDF91CF91A9
:100480001F910F91FF90EF90DF90CF90BF90AF90B2
:100490009F908F907F906F905F904F900895240170
:1004A00035013FEF431A530A630A730A89819A811F
:1004B000AB81BC8184159505A605B70580F0B20116
:1004C000660F771F600F711FC401880F991F800F7F
:1004D000911F0E949401892B11F0530142013401B4
:1004E000660C771C600E711ECC0CDD1CD801AC0DA7
:1004F000BD1DBE83AD83B301CD010E949401892B44
:1005000009F4B6CFED81FE8190818181D3012D91D7
:100510003C911197318320839C9311968C937501A4
:10052000640197CFEEEAF5E040814F5F408350E0F1
:1005300070E060E0E82FEE0FFF0BEC57FD4F0190ED
:10054000F081E02D238530E0F901EB57FC4F9081DD
:1005500091509083FA01EE0FFF1FE255FA4FB3E07E
:10056000220F331FBA95E1F79770922B9083818306
:100570008EEA95E00C94CA01EEEAF5E040814F5F07
:10058000408350E070E060E0FA01EE0FFF1FE2559B
:10059000FA4FA82FAA0FBB0BAE58BD4F0D90BC91C0
:1005A000A02D13969C91908381838EEA95E00C9404
:1005B000CA01CF93DF93EEEAF5E080819FEF980FB9
:1005C0009083D281C38190E0880F991F82559A4F02
:1005D000DC018D919C919383828341E050E060E047
:1005E00070E0CF010E9407028D2F9C2FDF91CF91E9
:1005F000089580916C03811114C0809175019091D0
:100600007601A0917701B09178018F3F2FEF92078B
:10061000A207B20741F00897A105B10534F481E0C3
:10062000089584E0089580E0089582E00895CF93CE
:10063000DF93880F990BFC01EC57FD4F0190F0817F
:10064000E02D0084F185E02D3097F9F02281211111
:100650001CC021E022838E589D4FEC01A881B981F6
:1006600013968C9113978183208130E0F901EB5729
:10067000FC4F80818150808393E0220F331F9A9535
:10068000E1F78770822B13968C93DF91CF910895B9
:10069000CF93DF93880F990BFC01EC57FD4F01902E
:1006A000F081E02D0084F185E02D309761F022810A
:1006B000213049F412828E589D4FEC01A881B981F6
:1006C000818113968C93DF91CF9108958091790168
:1006D00090917A01A0917B01B0917C0140917501CC
:1006E0005091760160917701709178014817590710
:1006F0006A077B0741F0E0917301F091740121E0FA
:1007000024830C94BC020895CF93DF93D0E0C0E023
:10071000882389F0C0916D01D0916E01E091710143
:10072000F09172018481833031F081E08483809183
:1007300075010E94BC02E0917301F0917401F09385
:100740007201E093710180916F019091700190931B
:100750006E0180936D018091790130917A01209131
:100760007B0190917C0180937501309376012093F9
:1007700077019093780192E094830E941703CE0151
:10078000DF91CF910895809175010E944803E09117
:100790007101F09172018281882319F085E08483D0
:1007A000089514820895CF93DF93282F220F330BDF
:1007B000F901EE58FD4FC081D1819A812C573D4FF0
:1007C000D901ED91FC912485921780F4911105C017
:1007D00095E09C8391E090937E010E9492028A8131
:1007E0008F5F8A8380E0DF91CF91089584E0FBCF13
:1007F000E82FEE0FFF0BEE58FD4F0190F081E02D3A
:10080000118210820C94740E1F93CF93DF930E9479
:10081000D902182F892F492F092E000C550B660B72
:10082000770B4093790150937A0160937B01709329
:100830007C01292F220F330BF901EE58FD4FC081A7
:10084000D181D0937401C09373012C573D4FF901AE
:10085000208131813093700120936F019C8195300C
:1008600019F40E94F8031B8310927E01DF91CF914F
:100870001F910895E0917901F0917A01EE0FFF1F29
:10088000EE58FD4F0190F081E02D9091B0058381ED
:10089000891740F40E9466030E94040483E0809359
:1008A0007D01089580E0FBCF81E080937D010C9471
:1008B0000404EF92FF920F931F93CF93DF93C1E055
:1008C00001C0CC0F8A95EAF72091940230919502ED
:1008D00080918202909183021092AE0510926E0177
:1008E00010926D013093700120936F01109272018C
:1008F0001092710190937401809373018FEF9FEFB9
:10090000DC018093750190937601A0937701B093F9
:1009100078018093790190937A01A0937B01B09341
:100920007C0110927D0110927E0188E00E94D30329
:100930000AE213E0D0E0F80181918F018C2319F0D5
:100940008D2F0E94D303DF5FD830A9F706E213E0B2
:1009500086E4E82E82E0F82ED1E0F80181918F0143
:100960008C2339F0F70180819181FC01D6870E94A8
:10097000F104F2E0EF0EF11C83E00A32180769F788
:10098000DF91CF911F910F91FF90EF9008950E94FA
:10099000A70781110E94C807E0917101F0917201CF
:1009A00080819181892B21F0809175010E948D09B0
:1009B0000C94F0080E94A70781110E94C807E091DB
:1009C0007101F091720180819181892B21F08091D8
:1009D00075010E948D090C94D80881E080936D0305
:1009E0000895CF92DF92EF92FF920F931F93CF93D0
:1009F000DF93FC01A081B1810D90BC91A02D549694
:100A00008D919C915597009709F445C04285538577
:100A10006485758530E020E0EC01CA84DB84EC84D9
:100A2000FD844C155D056E057F0508F049C08C01FD
:100A300013830283358324830115110519F0E8011E
:100A4000FD83EC832115310509F444C0E901FB83E2
:100A5000EA835696CD91DC9157970A851B852C85A4
:100A60003D855096CD90DD90ED90FC9053970C1500
:100A70001D052E053F0598F5C416D506E606F706B2
:100A800028F0401751076207730788F45796FC93C4
:100A9000EE9356970CC05596FC93EE935497579649
:100AA000FC93EE9356971582148213821282DF9183
:100AB000CF911F910F91FF90EF90DF90CF9008950D
:100AC000EC010A811B819C010115110509F4B0CFCD
:100AD000C801A2CF5596FC93EE935497BACFC41693
:100AE000D506E606F70668F2E2CFCF93DF93DC0186
:100AF000ED91FC9111970190F081E02D8489958909
:100B00001296CD91DC9113978A179B0711F4D58B20
:100B1000C48B868997898A179B0711F4D78BC68B5C
:100B2000209731F014968D919C9115979D838C831D
:100B300014960D90BC91A02D109721F01396DC9384
:100B4000CE93129786899789892B21F48489958978
:100B5000978B868BDF91CF910895EF92FF920F9341
:100B60001F93CF93DF93FC0180916D03882309F4D9
:100B7000ACC084859585A685B7850196A11DB11D5C
:100B800084879587A687B787408151816281738169
:100B900084179507A607B70709F097C08089918940
:100BA000A289B3890196A11DB11D44815581668139
:100BB0007781481759076A077B0718F480E090E0AF
:100BC000DC01808B918BA28BB38B148615861686E5
:100BD0001786C689D789209709F477C04A855B852F
:100BE0006C857D85481759076A077B0709F06DC03A
:100BF000CE01DC011296ED90FC90E114F10469F055
:100C0000D7011A960D911D912D913C911D9740177A
:100C100051076207730709F45FC02C813D812115DC
:100C2000310529F0D9011396FC92EE921297E11446
:100C3000F10429F0D70115963C932E93149724893B
:100C40003589C217D30711F4F58AE48AE114F10457
:100C500009F444C0F78AE68A8F01FC0113821282EC
:100C6000EA80FB80E881F9810280F381E02DCE01EA
:100C700009958E819F81A885B9850097A105B10549
:100C800091F14A855B856C857D85840F951FA61F34
:100C9000B71FF8014481558166817781481759074C
:100CA0006A077B0740F44095509560957095840FD6
:100CB000951FA61FB71F8A879B87AC87BD87CE016C
:100CC0000E94F104E701209759F6DF91CF911F911F
:100CD0000F91FF90EF900895C7018BCF248935893C
:100CE000378B268BB9CF1E86EDCFFC0182810C9409
:100CF000D303EF92FF920F931F93CF93DF937C0167
:100D00008B01FB01C285D385CB010A960E947A072D
:100D1000009711F1F8012585FC01D7011216C4F0E6
:100D2000F80185859881981B98839981890F89831B
:100D30009485891708F019828A81882379F01A82AC
:100D40008CE0DF91CF911F910F91FF90EF9008956C
:100D500081918D932150E2CF8DE0F3CF80E0F1CFF0
:100D6000DA01109749F0ED91FC911197309721F03D
:100D7000AB01BC01CD01099481E0089581E00895A3
:100D8000EF92FF921F93CF93DF937B01DC011296CA
:100D9000CD91DC91209711F410E017C0EC81FD811A
:100DA000B701CE010995182F81110DC08881998155
:100DB000009721F40A80DB81C02DECCFDC01ED919E
:100DC000FC910995F7CF8E30A9F380E00E94380797
:100DD000812FDF91CF911F91FF90EF900895CF92D7
:100DE000DF92EF92FF920F931F93CF93DF93EC016B
:100DF0006B010A851B85E888F98848855985C701F4
:100E00000E94B006882391F1CE010A960E943E0707
:100E1000009739F12D85022E000C330BF601A70146
:100E2000BC01121613067CF0F80180819D85890FA4
:100E3000808380E0DF91CF911F910F91FF90EF9021
:100E4000DF90CF9008958191DA018D93AD01CF01AC
:100E50000197DC018C91DB018D93BD01215031099B
:100E6000E0CF81E0D80112968C93E3CF8EE0E2CF01
:100E700080917E0181110C943A040895CF92DF9203
:100E8000EF92FF920F931F93FC01A081B1814C91CF
:100E900050E011968C919A01280F311D6901032EA3
:100EA000000CEE08FF080281602F70E0CB01841B6C
:100EB000950BAC018381082E000C990B481759073C
:100EC000B4F044815581C90110E030E020E0C01643
:100ED000D106E206F30610F0861B970B840F951FD0
:100EE0001F910F91FF90EF90DF90CF90089590E0C9
:100EF00080E0F6CFFC01A081B1818C91882349F07C
:100F000011969C9124813581A901490F511DCA0177
:100F1000089590E080E008950E94A70780916801FD
:100F20000895809368010E9459040E94ED040C9476
:100F300054040C94730ECF93C82F0E94F9028111B0
:100F400002C00E94B10E8C2FCF910C949000809122
:100F50007A038130D9F08091720390917303A0914C
:100F60007403B0917503892B8A2B8B2B79F481E064
:100F700040917603509177036091780370917903E3
:100F8000452B462B472B19F480E0089581E0089506
:100F900010927A03109276031092770310927803DE
:100FA00010927903109272031092730310927403DB
:100FB0001092750380916E0390916F03A09170035E
:100FC000B091710380937B0390937C03A0937D0386
:100FD000B0937E0308950E94B40E80917B0390919C
:100FE0007C03A0917D03B0917E030196A11DB11DEC
:100FF00080937B0390937C03A0937D03B0937E0347
:101000008091760390917703A0917803B091790352
:101010000196A11DB11D8093760390937703A09351
:101020007803B093790308958091760390917703C4
:10103000A0917803B09179030097A105B10569F1FA
:1010400040917B0350917C0360917D0370917E03FE
:10105000415051096109710940937B0350937C030E
:1010600060937D0370937E030197A109B10980937A
:10107000760390937703A0937803B09379038091DC
:101080007B0390917C03A0917D03B0917E03892B1B
:101090008A2B8B2B11F40C94B20E08958091760359
:1010A00090917703A0917803B0917903892B8A2BD3
:1010B0008B2B89F48091720390917303A091740338
:1010C000B0917503892B8A2B8B2B29F40E94B40EC7
:1010D00081E080937A03089580917A03882321F038
:1010E00010927A030C94B20E08950E94B80E80916B
:1010F0007B0390917C03A0917D03B0917E030196C8
:10110000A11DB11D80937B0390937C03A0937D036D
:10111000B0937E038091720390917303A091740346
:10112000B09175030196A11DB11D80937203909338
:101130007303A0937403B0937503089580917203B1
:1011400090917303A0917403B09175030097A1056A
:10115000B10569F140917B0350917C0360917D035F
:1011600070917E03415051096109710940937B03DD
:1011700050937C0360937D0370937E030197A109D4
:10118000B1098093720390937303A0937403B09397
:10119000750380917B0390917C03A0917D03B091B6
:1011A0007E03892B8A2B8B2B11F40C94B60E089599
:1011B0000E94A707882311F083E1089580E0089535
:1011C000CF93C82F0E94A7078C2F0E94D303C82F4C
:1011D00080917E0181110E943A048C2FCF91089555
:1011E000CF930E94A707C3E1811101C0C0E0E09145
:1011F0007101F09172018281815082830E94C30348
:1012000081E080937D010E9404048C2FCF9108958A
:10121000CF93C82F0E94A707E0917101F09172014E
:101220008281815082838C2F0E94D303C82F811129
:101230000AC00E94C30381E080937D010E940404E0
:101240008C2FCF910895E0917101F091720182810C
:101250008F5F8283F5CFCF930E94A707C3E18111EF
:1012600001C0C0E0809175010E9448030E943A04C9
:101270008091750190917601A0917701B0917801EC
:101280004091790150917A0160917B0170917C01CC
:1012900084179507A607B70711F40E9417038C2F30
:1012A000CF910895CF93DF93EC010E94A707882385
:1012B00091F083E140917501509176016091770141
:1012C00070917801483051056105710534F4488307
:1012D000DF91CF91089580E0EDCF90910E02988339
:1012E000F7CF0F931F93CF93C82F8B010E94A707AF
:1012F000882389F083E1EC2FEE0FFF0BEE58FD4FB2
:101300000190F081E02D94819370F8019083CF914A
:101310001F910F91089580E0EECF880F990BFC018B
:10132000EE58FD4FA081B181ED91FC91119730975E
:1013300069F01D921C9220910E0293818481228378
:1013400014821382E92FF82F3097B9F70895CF93BD
:10135000C82F0E94A7078823A9F183E1EC2FF0E0B2
:10136000EE0FFF1FEC5EFC4F0190F081E02D90919D
:1013700075019283A0917101B09172012D913C9100
:101380001197348323831196FC93EE9313969C91CB
:10139000139791832081969596959695921780F450
:1013A00030E0F901EB57FC4F90819150908343E07E
:1013B000220F331F4A95E1F79770922B13969C9357
:1013C000CF91089580E0CACFCF93DF93C82F0E94BA
:1013D000A707D3E1811101C0D0E0EC2FF0E0EE0FC0
:1013E000FF1FEC5EFC4F0190F081E02DA091710198
:1013F000B0917201818113968C93139783819481AC
:101400008D939C931482138280910E0282830E949A
:101410003A048D2FDF91CF910895DC01ED91FC917D
:1014200084819581DC01ED91FC9109941F93CF9308
:10143000DF93182FEB010E94A707882361F183E156
:10144000E12FF0E0EE0FFF1FEA5BFD4F0190F0810E
:10145000E02D0190F081E02D0190F081E02D4081A0
:101460005181628173814C835D836E837F8344816C
:10147000558166817781488359836A837B83408560
:10148000518562857385488759876A877B87DF9195
:10149000CF911F91089580E0D3CF8F929F92AF920A
:1014A000BF92CF92DF92EF92FF920F931F93CF9351
:1014B000C82F8B010E94A7078823E9F183E1EC2F55
:1014C000F0E0EE0FFF1FEA5BFD4F0190F081E02D91
:1014D0009685913091F54285538564857585019097
:1014E000F081E02D0190F081E02DC088D188E28864
:1014F000F3884C155D056E057F0540F4848095806A
:10150000A680B780480D591D6A1D7B1D4C195D09C9
:101510006E097F09F8014083518362837383CF9101
:101520001F910F91FF90EF90DF90CF90BF90AF9001
:101530009F908F90089580E0C2CF85E0F0CF8F928A
:101540009F92AF92BF92CF92DF92EF92FF920F9352
:101550001F93CF93DF93D82F6A017B014801590174
:101560000E94A707C3E1811101C0C0E0ED2FF0E0A8
:10157000EE0FFF1FEA5BFD4F0190F081E02D8685A5
:1015800081113DC0A081B1810D90BC91A02D5096DC
:101590004D915D916D917C9153974C0D5D1D6E1D2C
:1015A0007F1D14968D919D910D90BC91A02D841757
:1015B0009507A607B70740F4481B590B6A0B7B0B2E
:1015C00041505109610971094287538764877587C2
:1015D00086829782A086B18681E08687CF010E94AD
:1015E000F1048C2FDF91CF911F910F91FF90EF901D
:1015F000DF90CF90BF90AF909F908F900895C7E0FD
:10160000F0CF8F929F92AF92BF92CF92DF92EF92E4
:10161000FF920F931F93CF93DF93C82F4A015B0173
:10162000680179010E94A707D3E1811101C0D0E0D0
:10163000EC2FF0E0EE0FFF1FEA5BFD4F0190F08111
:10164000E02D868581111BC082869386A486B5868F
:10165000C682D782E086F18681E08687CF010E942C
:10166000F1048D2FDF91CF911F910F91FF90EF909B
:10167000DF90CF90BF90AF909F908F900895D7E06C
:10168000F0CF0F931F93CF93DF93C82F0E94A7072C
:10169000D3E1811101C0D0E0EC2FF0E0EE0FFF1F8D
:1016A000EA5BFD4F00811181F8018685813059F494
:1016B000C8010E947505F80116868D2FDF91CF9124
:1016C0001F910F910895D5E0F8CFCF93DF93880F46
:1016D000991FFC01E55EFD4F0190F081E02D8585AD
:1016E000882379F0C285D385CF010A960E947A07B4
:1016F000892B49F08A81882341F08CE0DF91CF91DA
:1017000008958AE0FBCF8DE0F9CF80E0F7CF880F16
:10171000991FFC01E15FFD4F80819181DC01ED911A
:10172000FC9109949B01880F991FFC01E55EFD4F18
:1017300060817181DB011696ED91FC91C9010994DC
:10174000880F991FFC01E15FFD4F80819181DC01D1
:10175000ED91FC9170E060E0099580E008950E94B1
:101760001D0E61E08DE00E94320D62E08CE00E946F
:10177000320D60E08EE00E94320D809132030C94B5
:101780009B07CF93DF938EE00E94570EEC018CE015
:101790000E949C0D019729F580918203811110C050
:1017A00081E0809382031092840310928303CE0120
:1017B00093702091810321119061DF91CF91089561
:1017C00080918303909184038C599F4F909384035D
:1017D00080938303883E934050F381E0809381039C
:1017E000E6CF10928203109284031092830310922A
:1017F0008103DDCF9C01337094FF07C030936C01EF
:1018000020936B0190E080E0089580916B019091AE
:101810006C018F3F9807F9F0281B390B37FF03C085
:10182000319521953109243631054CF410926A0125
:10183000109269018091690190916A01089581E097
:1018400090E0283C310514F082E090E090936A012A
:1018500080936901EFCF83E090E00895CF93DF9309
:1018600000D0CDB7DEB70E94C10B9A838983BE0139
:101870006F5F7F4F80911A0390911B030E94EC00D1
:101880000E94B8000F900F90DF91CF910895CF93F1
:10189000DF9300D000D0CDB7DEB7BE016D5F7F4FC4
:1018A00080911E0390911F030E94F0008B819C8108
:1018B0000E94FA0B9A838983019649F0BE016F5FFB
:1018C0007F4F80911803909119030E94EC000E94B1
:1018D000B8000F900F900F900F90DF91CF91089567
:1018E0000F931F93CF93DF9300D0CDB7DEB7BE0128
:1018F0006F5F7F4F80911C0390911D030E94F00049
:1019000089819A81009769F4809122030E94E800FE
:10191000809123030E94E800809124030E94B40078
:1019200013C081309105B9F4809123030E94E8002F
:1019300004E610E020E030E044E650E060E070E0D3
:10194000809122030E94E0000F900F90DF91CF91D1
:101950001F910F9108958230910579F480912203AF
:101960000E94E80009E110E020E030E049E150E0A9
:1019700060E070E080912303E5CF039759F48091F4
:1019800022030E94E800809123030E94E8008091D6
:101990002503C4CF0E94B800D7CF60E08DE00E943D
:1019A0006E0D0C94B8006091800381E0682760930D
:1019B00080038DE00E946E0D0C94B80060917F034F
:1019C00081E0682760937F038DE00E946E0D0C9488
:1019D000B80061E08DE00E946E0D0C94B80080911B
:1019E00022030E94E800809120030E94E800809179
:1019F00023030E94E800809121030E94E80080E018
:101A00000E9494000C94B80087EE91E00C94390188
:101A10000895833081F028F4813099F08230A9F064
:101A200008958730A9F08830C9F08430B1F48091EE
:101A300080008F7D03C0809180008F77809380002D
:101A4000089584B58F7784BD089584B58F7DFBCFCD
:101A50008091B0008F778093B00008958091B0009E
:101A60008F7DF9CFCF93DF9390E0FC01E458FF4FD7
:101A7000249180579F4FFC0184918823C9F090E006
:101A8000880F991FFC01E854FF4FA591B491FC0108
:101A9000E255FF4FC591D49161110DC09FB7F894E5
:101AA0008C91209582238C938881282328839FBF43
:101AB000DF91CF910895623051F49FB7F8943C9133
:101AC000822F809583238C93E8812E2BEFCF8FB7C5
:101AD000F894EC912E2B2C938FBFEACF1F93CF93CA
:101AE000DF93282F30E0F901E859FF4F8491F90185
:101AF000E458FF4FD491F901E057FF4FC491CC2334
:101B0000A9F0162F81110E94090DEC2FF0E0EE0FC5
:101B1000FF1FE255FF4FA591B4918FB7F894EC9158
:101B2000111108C0D095DE23DC938FBFDF91CF91D8
:101B30001F910895DE2BF8CFCF93DF93282F30E04D
:101B4000F901E859FF4F8491F901E458FF4FD4910E
:101B5000F901E057FF4FC491CC23A1F081110E94FD
:101B6000090DEC2FF0E0EE0FFF1FEC55FF4FA59194
:101B7000B491EC91ED2381E090E009F480E0DF91F5
:101B8000CF91089580E090E0FACF1F920F920FB6A8
:101B90000F9211242F933F934F935F936F937F93F3
:101BA0008F939F93AF93BF93EF93FF93809199038C
:101BB00090919A03A0919B03B0919C03309198035C
:101BC00023E0230F2D3798F50196A11DB11D209319
:101BD00098038093990390939A03A0939B03B093E7
:101BE0009C0380919D0390919E03A0919F03B091CF
:101BF000A0030196A11DB11D80939D0390939E03A8
:101C0000A0939F03B093A0030E94040DFF91EF9156
:101C1000BF91AF919F918F917F916F915F914F9104
:101C20003F912F910F900FBE0F901F90189526E8AF
:101C3000230F0296A11DB11DCACF84B5826084BD59
:101C400084B5816084BD85B5826085BD85B58160C0
:101C500085BDEEE6F0E0808181608083E1E8F0E020
:101C60001082808182608083808181608083E0E84F
:101C7000F0E0808181608083E1EBF0E0808184602E
:101C80008083E0EBF0E0808181608083EAE7F0E030
:101C90008081846080838081826080838081816094
:101CA00080838081806880831092C10008958E3087
:101CB00008F08E502091090290E4299F9001112490
:101CC0008770822B80937C0080917A00806480935F
:101CD0007A0080917A0086FDFCCF80917800909107
:101CE00079000895FFCFFFCFCF93DF93880F990B33
:101CF000FC01EC57FD4FC081D181EC81FD81319712
:101D00008A819B81E80FF91F8D85DF011197823051
:101D100029F580EB90E080839C939E818F81DF0189
:101D200012979C9311978C93CF0104979F01295090
:101D300031091E92A217B307E1F720E8DF011A97D5
:101D40002C9342971E92A817B907E1F7A881B98191
:101D50007797ED93FC93DF91CF9108958CEC90E011
:101D6000DACF089578940895F894089578940895B2
:101D7000F894089508950E941D0E0E94BA0E0E94C4
:101D8000080D0E94AF0B8091A1030E949B0790E079
:101D900080E00895809132038093A103089508950F
:101DA0001F920F920FB60F9211242F933F934F93D0
:101DB0005F936F937F938F939F93AF93BF93EF93B3
:101DC000FF93E0910A02F0910B020995FF91EF91C8
:101DD000BF91AF919F918F917F916F915F914F9143
:101DE0003F912F910F900FBE0F901F9018951F924B
:101DF0000F920FB60F9211242F933F934F935F933F
:101E00006F937F938F939F93AF93BF93EF93FF93C2
:101E1000E0910C02F0910D020995FF91EF91BF91B5
:101E2000AF919F918F917F916F915F914F913F9172
:101E30002F910F900FBE0F901F901895F8940C944F
:101E4000270FEE0FFF1F0590F491E02D0994F894F1
:021E5000FFCFC2
:101E52000000000000000000000000000000000080
:101E62000000000000000000000000000000000070
:101E72000000000000000000000000000000000060
:101E82000000000000000000000000000000000050
:101E92000000000000000000000000000000000040
:101EA2000000000000000000000000000000000030
:101EB2000000000000000000FFFFFFFFFF0000061F
:101EC2000300009303FFFFFFFFFFFFFFFF0000BEC1
:101ED20006BE064E0200000000F4010000320000BF
:101EE2000002570200000000640000000000000031
:101EF200026002000000000000000000000000007C
:101F02006902000000000000000000000000000064
:101F120000000600000000050400000004040000A8
:101F220000030000000001000000000100000000AA
:101F32000100000000010001000000FFFF0000019D
:101F42000000000000000000000000000000000788
:101F520000FF00000200FF000001CF0ECF0EFF17AE
:101F6200021302C0061F02C006340234021F0231ED
:101F7200020000EF0679067F018D0302021C07AA08
:101F82000575060400000000EF0679068101900342
:101F92000202A6052205B001A10192018301E70117
:101FA2000D0A5402750605E7010D0A5D0275060663
:101FB200E7010D0A6602750603E7010D0A6F027555
:101FC2000602E201DD01D801D301CE01C901C4013B
:101FD200BF019303F802EA02DC02CE02C002B2029F
:101FE200A40296020603AC051C068000EF0C00005A
:101FF20007060100A805A00780002E0C00000605B8
:1020020001001E07A2048000470C00000504010025
:1020120020089C068000700C0000040301001A06D0
:1020220024058000D30C000003010100C405A203B3
:102032008000DE0C000002010100A40522048000E1
:10204200CD0C000001010100C80520078000E90C49
:10205200000000010100C605CA055000720E000012
:10206200080001000402FF0101000000010000005D
:102072000302010001000000010100000000000154
:102082000100009E086C0875084E08DA04EB07C7C9
:102092000414082B09E4099907160AE0084D0A08F6
:1020A200099F0A5209010B9107410B8C07870B65A7
:0C20B2000B920BA709A00B7109F00800AD
:00000001FF
