:100000000C9462000C94BB0E0C94E20E0C948A00CB
:100010000C948A000C948A000C948A000C948A0038
:100020000C948A000C948A000C948A000C948A0028
:100030000C948A000C948A000C948A000C948A0018
:100040000C94B00D0C948A000C948A000C948A00D5
:100050000C948A000C948A000C948A000C948A00F8
:100060000C948A000C948A00000000080002010031
:100070000003040700000000000000000102040863
:100080001020408001020408102001020408102002
:10009000040404040404040402020202020203032E
:1000A00003030303000000002300260029000000D2
:1000B0000000250028002B0000000000240027007D
:1000C0002A00B50E11241FBECFEFD8E0DEBFCDBF92
:1000D00013E0A0E0B1E0E8E2FEE102C005900D927D
:1000E000A033B107D9F727E0A0E3B3E001C01D9228
:1000F000A136B207E1F710E0C2E6D0E004C02197D4
:10010000FE010E940C0FC136D107C9F70E94A60E4E
:100110000C94090F0C940000E4E10E944101089541
:10012000E2E10E9441010895EAE00E944101089540
:10013000E1E00E9441010895E3E00E944101089539
:10014000E7E00E9441010895E5E00E944101089521
:10015000E0E00E9441010895E2E00E94410108951B
:10016000E4E00E9441010895ECE00E9441010895FD
:10017000EBE10E9441010895EEE00E9441010895E3
:10018000E8E00E9441010895E0E10E9441010895E4
:10019000EAE10E9441010895E6E00E9441010895CC
:1001A000E8E10E9441010895E9E00E9441010895BB
:1001B000EBE00E9441010895EDE00E9441010895A5
:1001C000EFE00E9441010895E1E10E94410108959C
:1001D000E3E10E9441010895E5E10E944101089593
:1001E000E7E10E9441010895E9E10E94410108957B
:1001F000E6E10E944101089521968A929A92AA927C
:10020000BA92CA92DA92EA92FA920A931A932197D0
:10021000E0916D01F0916E010080F181E02DC083CD
:10022000D1830895C0916F01D0917001E881F98167
:10023000C081D181219619910991F990E990D990C5
:10024000C990B990A99099908990219708952F907D
:100250003F90E7E6F1E0CDB7DEB7EDBFFEBF3F92DE
:100260002F9208952F903F90CDBFDEBF3F922F92E7
:100270000895E0E80E9441010895E0E40E944101F0
:1002800008952F923F924F925F926F927F922FB676
:100290002F92CF93DF937E2EF894E0910001EF5FD1
:1002A000E0930001E13011F40E942701E0E0E093C7
:1002B0007D01E72DE07849F00E94AB05F0917E01C9
:1002C000F17071F00E9438040BC0E72DEC3140F45E
:1002D000EE0FF0E0E850FD4F0190F081E02D099520
:1002E000F0917D01EF2FE17059F0F27011F00E9452
:1002F000FC008F938F2F0E9482038F910E94120126
:1003000020910001215020930001222311F40E942A
:100310003201DF91CF912F902FBE7F906F905F9031
:100320004F903F902F900895FC014081FB01308158
:10033000842F8F7190E0B0E0A0E022E0B695A79501
:10034000979587952A95D1F7855B9C4FFC01808115
:10035000242F281B23704C71242B832F8F7190E046
:10036000B0E0A0E042E0B695A795979587954A95AD
:10037000D1F7855B9C4FFC018081932F981B937074
:100380003C71932B41E050E0291710F050E040E021
:10039000CA0108958F929F92AF92BF92EF92FF92FF
:1003A0000F931F93CF93DF937C014A015B01B694B7
:1003B000A79497948794423051056105710580F0A8
:1003C000440F551F8701040F151FE401CC0FDD1FDB
:1003D000CE0DDF1DB801CE010E949401892B59F486
:1003E000DF91CF911F910F91FF90EF90BF90AF9051
:1003F0009F908F900895F8019081818128813981A3
:100400003183208398838983B501A401D0CF4F9293
:100410005F926F927F928F929F92AF92BF92CF9294
:10042000DF92EF92FF920F931F93CF93DF9300D051
:1004300000D000D0CDB7DEB78C016A017B01DC01B2
:100440008C91282F30E050E040E029833A834B83A1
:100450005C8346015701880C991CAA1CBB1C29818E
:100460003A814B815C81281539054A055B05B8F452
:1004700026960FB6F894DEBF0FBECDBFDF91CF91A9
:100480001F910F91FF90EF90DF90CF90BF90AF90B2
:100490009F908F907F906F905F904F900895240170
:1004A00035013FEF431A530A630A730A89819A811F
:1004B000AB81BC8184159505A605B70580F0B20116
:1004C000660F771F600F711FC401880F991F800F7F
:1004D000911F0E949401892B11F0530142013401B4
:1004E000660C771C600E711ECC0CDD1CD801AC0DA7
:1004F000BD1DBE83AD83B301CD010E949401892B44
:1005000009F4B6CFED81FE8190818181D3012D91D7
:100510003C911197318320839C9311968C937501A4
:10052000640197CFE3E7F4E040814F5F408350E000
:1005300070E060E0E82FEE0FFF0BE25AFD4F0190F4
:10054000F081E02D238530E0F901E55BFC4F9081DF
:1005500091509083FA01EE0FFF1FED58FB4F220FD1
:10056000331F220F331F9370922B9083818383E775
:1005700094E00C94CA01E3E7F4E040814F5F4083CC
:1005800050E070E060E0FA01EE0FFF1FED58FB4F06
:10059000A82FAA0FBB0BA25BBD4F0D90BC91A02D45
:1005A00013969C919083818383E794E00C94CA0115
:1005B000CF93DF93E3E7F4E080819FEF980F908380
:1005C000D281C38190E0880F991F8D589B4FDC0129
:1005D0008D919C919383828341E050E060E070E0D4
:1005E000CF010E9407028D2F9C2FDF91CF9108959C
:1005F00080913003811114C0809175019091760132
:10060000A0917701B09178018F3F2FEF9207A20759
:10061000B20741F00797A105B10534F481E00895D0
:1006200084E0089580E0089582E00895CF93DF93F9
:10063000880F990BFC01E25AFD4F0190F081E02DEB
:100640000084F185E02D3097F1F0228121111BC04B
:1006500021E02283825B9D4FEC01A881B981139632
:100660008C9113978183208130E0F901E55BFC4F89
:10067000808181508083220F331F220F331F8370AC
:10068000822B13968C93DF91CF910895CF93DF93B4
:10069000880F990BFC01E25AFD4F0190F081E02D8B
:1006A0000084F185E02D309761F02281213049F4FA
:1006B0001282825B9D4FEC01A881B98181811396E2
:1006C0008C93DF91CF9108958091790190917A0177
:1006D000A0917B01B0917C01409175015091760110
:1006E0006091770170917801481759076A077B0775
:1006F00041F0E0917301F091740121E024830C94A6
:10070000BB020895CF93DF93D0E0C0E0882389F047
:10071000C0916D01D0916E01E0917101F091720173
:100720008481833031F081E08483809175010E945F
:10073000BB02E0917301F0917401F0937201E093B8
:10074000710180916F019091700190936E0180937F
:100750006D018091790130917A0120917B01909116
:100760007C018093750130937601209377019093FB
:10077000780192E094830E941603CE01DF91CF911D
:100780000895809175010E944603E0917101F091F6
:1007900072018281882319F085E084830895148290
:1007A0000895CF93DF93282F220F330BF901E25BDB
:1007B000FD4FC081D1819A81225A3D4FD901ED91DF
:1007C000FC912485921780F4911105C095E09C83DB
:1007D00091E090937E010E9492028A818F5F8A83CA
:1007E00080E0DF91CF91089584E0FBCFE82FEE0FFA
:1007F000FF0BE25BFD4F0190F081E02D1182108232
:100800000C945F0E1F93CF93DF930E94D802182F92
:10081000892F492F092E000C550B660B770B40933F
:10082000790150937A0160937B0170937C01292FA9
:10083000220F330BF901E25BFD4FC081D181D093D0
:100840007401C0937301225A3D4FF9012081318117
:100850003093700120936F019C81953019F40E94B0
:10086000F6031B8310927E01DF91CF911F910895B3
:10087000E0917901F0917A01EE0FFF1FE25BFD4FED
:100880000190F081E02D909175048381891740F4E7
:100890000E9464030E94020483E080937D01089516
:1008A00080E0FBCF81E080937D010C940204EF9205
:1008B000FF920F931F93CF93DF93C1E001C0CC0F42
:1008C0008A95EAF720916C0230916D0280915C026A
:1008D00090915D021092730410926E0110926D015E
:1008E0003093700120936F01109272011092710188
:1008F00090937401809373018FEF9FEFDC018093DD
:10090000750190937601A0937701B093780180935D
:10091000790190937A01A0937B01B0937C011092AE
:100920007D0110927E0187E00E94D10300EF12E06A
:10093000D0E0F80181918F018C2319F08D2F0E9456
:10094000D103DF5FD730A9F70DEE12E08DE2E82E7C
:1009500082E0F82ED1E0F80181918F018C2339F0EB
:10096000F70180819181FC01D6870E94EF04F2E0BB
:10097000EF0EF11C82E0003F180769F7DF91CF917D
:100980001F910F91FF90EF9008950E94A50781118C
:100990000E94C607E0917101F091720180819181FE
:1009A000892B21F0809175010E948B090C94EE082F
:1009B0000E94A50781110E94C607E0917101F09184
:1009C000720180819181892B21F0809175010E94B3
:1009D0008B090C94D60881E0809331030895CF925F
:1009E000DF92EF92FF920F931F93CF93DF93FC015F
:1009F000A081B1810D90BC91A02D54968D919C91B8
:100A00005597009709F445C04285538564857585DF
:100A100030E020E0EC01CA84DB84EC84FD844C15DA
:100A20005D056E057F0508F049C08C0113830283C4
:100A3000358324830115110519F0E801FD83EC834A
:100A40002115310509F444C0E901FB83EA83569678
:100A5000CD91DC9157970A851B852C853D85509655
:100A6000CD90DD90ED90FC9053970C151D052E0553
:100A70003F0598F5C416D506E606F70628F0401798
:100A800051076207730788F45796FC93EE935697C5
:100A90000CC05596FC93EE9354975796FC93EE93A7
:100AA00056971582148213821282DF91CF911F9183
:100AB0000F91FF90EF90DF90CF900895EC010A81A5
:100AC0001B819C010115110509F4B0CFC801A2CF0B
:100AD0005596FC93EE935497BACFC416D506E60606
:100AE000F70668F2E2CFCF93DF93DC01ED91FC9142
:100AF00011970190F081E02D848995891296CD910E
:100B0000DC9113978A179B0711F4D58BC48B8689C8
:100B100097898A179B0711F4D78BC68B209731F0E2
:100B200014968D919C9115979D838C8314960D90AE
:100B3000BC91A02D109721F01396DC93CE931297C1
:100B400086899789892B21F484899589978B868B4F
:100B5000DF91CF910895EF92FF920F931F93CF9360
:100B6000DF93FC0180913103882309F4ACC08485B4
:100B70009585A685B7850196A11DB11D84879587AA
:100B8000A687B78740815181628173818417950759
:100B9000A607B70709F097C080899189A289B38910
:100BA0000196A11DB11D4481558166817781481749
:100BB00059076A077B0718F480E090E0DC01808B1E
:100BC000918BA28BB38B1486158616861786C689E1
:100BD000D789209709F477C04A855B856C857D8528
:100BE000481759076A077B0709F06DC0CE01DC0181
:100BF0001296ED90FC90E114F10469F0D7011A9679
:100C00000D911D912D913C911D9740175107620741
:100C1000730709F45FC02C813D812115310529F04E
:100C2000D9011396FC92EE921297E114F10429F087
:100C3000D70115963C932E93149724893589C217B2
:100C4000D30711F4F58AE48AE114F10409F444C0ED
:100C5000F78AE68A8F01FC0113821282EA80FB8008
:100C6000E881F9810280F381E02DCE0109958E8122
:100C70009F81A885B9850097A105B10591F14A85A5
:100C80005B856C857D85840F951FA61FB71FF801B6
:100C90004481558166817781481759076A077B0728
:100CA00040F44095509560957095840F951FA61F50
:100CB000B71F8A879B87AC87BD87CE010E94EF0450
:100CC000E701209759F6DF91CF911F910F91FF9087
:100CD000EF900895C7018BCF24893589378B268BF8
:100CE000B9CF1E86EDCFFC0182810C94D103EF9227
:100CF000FF920F931F93CF93DF937C018B01FB0136
:100D0000C285D385CB010A960E947807009711F11E
:100D1000F8012585FC01D7011216C4F0F80185857C
:100D20009881981B98839981890F89839485891765
:100D300008F019828A81882379F01A828CE0DF9189
:100D4000CF911F910F91FF90EF90089581918D9316
:100D50002150E2CF8DE0F3CF80E0F1CFDA011097A0
:100D600049F0ED91FC911197309721F0AB01BC0156
:100D7000CD01099481E0089581E00895EF92FF92FA
:100D80001F93CF93DF937B01DC011296CD91DC9111
:100D9000209711F410E017C0EC81FD81B701CE015E
:100DA0000995182F81110DC088819981009721F430
:100DB0000A80DB81C02DECCFDC01ED91FC9109951F
:100DC000F7CF8E30A9F380E00E943607812FDF91A4
:100DD000CF911F91FF90EF900895CF92DF92EF9205
:100DE000FF920F931F93CF93DF93EC016B010A8562
:100DF0001B85E888F98848855985C7010E94AE0699
:100E0000882391F1CE010A960E943C07009739F1A0
:100E10002D85022E000C330BF601A701BC01121622
:100E200013067CF0F80180819D85890F808380E026
:100E3000DF91CF911F910F91FF90EF90DF90CF90B6
:100E400008958191DA018D93AD01CF010197DC0105
:100E50008C91DB018D93BD0121503109E0CF81E000
:100E6000D80112968C93E3CF8EE0E2CF80917E0181
:100E700081110C9438040895CF92DF92EF92FF9283
:100E80000F931F93FC01A081B1814C9150E011960A
:100E90008C919A01280F311D6901032E000CEE0878
:100EA000FF080281602F70E0CB01841B950BAC0121
:100EB0008381082E000C990B48175907B4F0448120
:100EC0005581C90110E030E020E0C016D106E206ED
:100ED000F30610F0861B970B840F951F1F910F913F
:100EE000FF90EF90DF90CF90089590E080E0F6CFF4
:100EF000FC01A081B1818C91882349F011969C91CD
:100F000024813581A901490F511DCA01089590E03E
:100F100080E008950E94A50780916801089580935C
:100F200068010E9457040E94EB040C9452040C9434
:100F30005E0ECF93C82F0E94F802811102C00E945A
:100F40009C0E8C2FCF910C94900080913E038130A9
:100F5000D9F08091360390913703A0913803B09176
:100F60003903892B8A2B8B2B79F481E040913A034A
:100F700050913B0360913C0370913D03452B462B00
:100F8000472B19F480E0089581E0089510923E0304
:100F900010923A0310923B0310923C0310923D03CF
:100FA00010923603109237031092380310923903CF
:100FB0008091320390913303A0913403B0913503B3
:100FC00080933F0390934003A0934103B093420367
:100FD00008950E949F0E80913F0390914003A0913D
:100FE0004103B09142030196A11DB11D80933F03BF
:100FF00090934003A0934103B093420380913A033E
:1010000090913B03A0913C03B0913D030196A11D3B
:10101000B11D80933A0390933B03A0933C03B0939C
:101020003D03089580913A0390913B03A0913C03C6
:10103000B0913D030097A105B10569F140913F03CF
:101040005091400360914103709142034150510916
:101050006109710940933F0350934003609341033A
:10106000709342030197A109B10980933A039093C9
:101070003B03A0933C03B0933D0380913F039091C9
:101080004003A0914103B0914203892B8A2B8B2B03
:1010900011F40C949D0E089580913A0390913B03B6
:1010A000A0913C03B0913D03892B8A2B8B2B89F4B3
:1010B0008091360390913703A0913803B0913903A2
:1010C000892B8A2B8B2B29F40E949F0E81E0809321
:1010D0003E03089580913E03882321F010923E0341
:1010E0000C949D0E08950E94A30E80913F03909151
:1010F0004003A0914103B09142030196A11DB11D8F
:1011000080933F0390934003A0934103B093420325
:101110008091360390913703A0913803B091390341
:101120000196A11DB11D8093360390933703A093C0
:101130003803B093390308958091360390913703B3
:10114000A0913803B09139030097A105B10569F169
:1011500040913F03509140036091410370914203DD
:10116000415051096109710940933F035093400375
:1011700060934103709342030197A109B1098093E1
:10118000360390933703A0933803B09339038091CB
:101190003F0390914003A0914103B0914203892BFA
:1011A0008A2B8B2B11F40C94A10E08950E94A50795
:1011B000882311F083E1089580E00895CF93C82F2C
:1011C0000E94A5078C2F0E94D103C82F80917E0119
:1011D00081110E9438048C2FCF910895CF930E94E3
:1011E000A507C3E1811101C0C0E0E0917101F09158
:1011F00072018281815082830E94C10381E08093C9
:101200007D010E9402048C2FCF910895CF93C82FA7
:101210000E94A507E0917101F091720182818150D5
:1012200082838C2F0E94D103C82F81110AC00E9493
:10123000C10381E080937D010E9402048C2FCF9135
:101240000895E0917101F091720182818F5F828334
:10125000F5CFCF930E94A507C3E1811101C0C0E083
:10126000809175010E9446030E94380480917501A7
:1012700090917601A0917701B09178014091790128
:1012800050917A0160917B0170917C0184179507E0
:10129000A607B70711F40E9416038C2FCF9108956B
:1012A000CF93DF93EC010E94A507882391F083E19F
:1012B00040917501509176016091770170917801AC
:1012C000473051056105710534F44883DF91CF91B2
:1012D000089580E0EDCF9091F5019883F7CF0F93BB
:1012E0001F93CF93C82F8B010E94A507882389F0F5
:1012F00083E1EC2FEE0FFF0BE25BFD4F0190F081DD
:10130000E02D94819370F8019083CF911F910F91FC
:10131000089580E0EECF880F990BFC01E25BFD4F52
:10132000A081B181ED91FC911197309769F01D92E8
:101330001C922091F501938184812283148213826F
:10134000E92FF82F3097B9F70895CF93C82F0E944F
:10135000A507882399F183E1EC2FF0E0EE0FFF1F42
:10136000E252FD4F0190F081E02D90917501928342
:10137000A0917101B09172012D913C91119734832C
:1013800023831196FC93EE9313969C91139791836C
:10139000208196959695921778F430E0F901E55BF7
:1013A000FC4F908191509083220F331F220F331FE7
:1013B0009370922B13969C93CF91089580E0CCCF9D
:1013C000CF93DF93C82F0E94A507D3E1811101C0FD
:1013D000D0E0EC2FF0E0EE0FFF1FE252FD4F019046
:1013E000F081E02DA0917101B0917201818113967D
:1013F0008C931397838194818D939C931482138291
:101400008091F50182830E9438048D2FDF91CF9166
:101410000895DC01ED91FC9184819581DC01ED91D1
:10142000FC9109941F93CF93DF93182FEB010E9437
:10143000A507882361F183E1E12FF0E0EE0FFF1FA4
:10144000E35DFD4F0190F081E02D0190F081E02DF2
:101450000190F081E02D40815181628173814C8344
:101460005D836E837F834481558166817781488364
:1014700059836A837B83408551856285738548875C
:1014800059876A877B87DF91CF911F91089580E00C
:10149000D3CF8F929F92AF92BF92CF92DF92EF9273
:1014A000FF920F931F93CF93C82F8B010E94A50724
:1014B0008823E9F183E1EC2FF0E0EE0FFF1FE35DFD
:1014C000FD4F0190F081E02D9685913091F5428598
:1014D0005385648575850190F081E02D0190F08140
:1014E000E02DC088D188E288F3884C155D056E0533
:1014F0007F0540F484809580A680B780480D591DF3
:101500006A1D7B1D4C195D096E097F09F801408336
:10151000518362837383CF911F910F91FF90EF905E
:10152000DF90CF90BF90AF909F908F90089580E014
:10153000C2CF85E0F0CF8F929F92AF92BF92CF92B1
:10154000DF92EF92FF920F931F93CF93DF93D82FE9
:101550006A017B01480159010E94A507C3E181117D
:1015600001C0C0E0ED2FF0E0EE0FFF1FE35DFD4F87
:101570000190F081E02D868581113DC0A081B1816F
:101580000D90BC91A02D50964D915D916D917C91E7
:1015900053974C0D5D1D6E1D7F1D14968D919D9171
:1015A0000D90BC91A02D84179507A607B70740F4AE
:1015B000481B590B6A0B7B0B41505109610971099A
:1015C000428753876487758786829782A086B18613
:1015D00081E08687CF010E94EF048C2FDF91CF91AD
:1015E0001F910F91FF90EF90DF90CF90BF90AF9041
:1015F0009F908F900895C7E0F0CF8F929F92AF9207
:10160000BF92CF92DF92EF92FF920F931F93CF93EF
:10161000DF93C82F4A015B01680179010E94A50789
:10162000D3E1811101C0D0E0EC2FF0E0EE0FFF1FFD
:10163000E35DFD4F0190F081E02D868581111BC097
:1016400082869386A486B586C682D782E086F18696
:1016500081E08687CF010E94EF048D2FDF91CF912B
:101660001F910F91FF90EF90DF90CF90BF90AF90C0
:101670009F908F900895D7E0F0CF0F931F93CF9353
:10168000DF93C82F0E94A507D3E1811101C0D0E0EC
:10169000EC2FF0E0EE0FFF1FE35DFD4F00811181A5
:1016A000F8018685813059F4C8010E947305F8015C
:1016B00016868D2FDF91CF911F910F910895D5E060
:1016C000F8CFCF93DF93880F991FFC01EE5FFD4F9A
:1016D0000190F081E02D8585882379F0C285D3853E
:1016E000CF010A960E947807892B49F08A818823C6
:1016F00041F08CE0DF91CF9108958AE0FBCF8DE03F
:10170000F9CF80E0F7CF880F991FFC01EA50FE4F18
:1017100080819181DC01ED91FC9109949B01880FFE
:10172000991FFC01EE5FFD4F60817181DB01169610
:10173000ED91FC91C9010994880F991FFC01EA50B1
:10174000FE4F80819181DC01ED91FC9170E060E0C1
:10175000099580E008950E94080E61E08DE00E94E6
:101760001D0D62E08CE00E941D0D60E08EE00E9485
:101770001D0D8091F7020C949907CF93DF938EE0B3
:101780000E94420EEC018CE00E94870D892B89F5A6
:101790002091490330914A038091460381110CC086
:1017A00081E08093460330934803209347031092CF
:1017B0004503109244030CC0809147039091480365
:1017C00088519C4F2817390718F081E08093450312
:1017D000CE01937020914503222341F020914403D0
:1017E000211104C0906121E020934403DF91CF9147
:1017F000089510924603DBCF9C01337094FF07C01D
:1018000030936C0120936B0190E080E0089580910B
:101810006B0190916C018F3F9807F9F0281B390BF1
:1018200037FF03C0319521953109243631054CF439
:1018300010926A01109269018091690190916A0188
:10184000089581E090E0283C310514F082E090E0BA
:1018500090936A0180936901EFCF83E090E008954F
:10186000CF93DF9300D0CDB7DEB70E94BD0B9A8334
:101870008983BE016F5F7F4F8091E2029091E30206
:101880000E94EC000E94B8000F900F90DF91CF9162
:101890000895CF93DF9300D000D0CDB7DEB7BE015F
:1018A0006D5F7F4F8091E6029091E7020E94F00009
:1018B0008B819C810E94FC0B9A838983019649F05D
:1018C000BE016F5F7F4F8091E0029091E1020E9424
:1018D000EC000E94B8000F900F900F900F90DF91D6
:1018E000CF910895FF920F931F93CF93DF9300D072
:1018F000CDB7DEB7BE016F5F7F4F8091E40290915C
:10190000E5020E94F00089819A81009749F4809154
:10191000EA020E94E8008091EB020E94B40013C02A
:1019200081309105D1F4F090EA028F2D0E94E800F9
:1019300004EF11E020E030E044EF51E060E070E0BF
:101940008F2D0E94E0000E94B8000F900F90DF9151
:10195000CF911F910F91FF9008958230910571F4FE
:10196000F090EA028F2D0E94E8000DE710E020E0E1
:1019700030E04DE750E060E070E0E2CF039719F708
:101980008091EA020E94E8008091EC02C6CF60E0FC
:101990008DE00E94590D0C94B8006091430381E0E2
:1019A0006827609343038DE00E94590D0C94B800A2
:1019B00061E08DE00E94590D0C94B8008091EA021C
:1019C0000E94E8008091E8020E94E8008091E9020C
:1019D0000E94E80080E00E9494000C94B80083ED1F
:1019E00091E00C9439010895833081F028F481301E
:1019F00099F08230A9F008958730A9F08830C9F0B5
:101A00008430B1F4809180008F7D03C0809180008C
:101A10008F7780938000089584B58F7784BD089573
:101A200084B58F7DFBCF8091B0008F778093B0001D
:101A300008958091B0008F7DF9CFCF93DF9390E030
:101A4000FC01E458FF4F249180579F4FFC01849183
:101A50008823C9F090E0880F991FFC01E854FF4FDC
:101A6000A591B491FC01E255FF4FC591D49161114C
:101A70000DC09FB7F8948C91209582238C93888118
:101A8000282328839FBFDF91CF910895623051F4BE
:101A90009FB7F8943C91822F809583238C93E881A3
:101AA0002E2BEFCF8FB7F894EC912E2B2C938FBF6A
:101AB000EACF1F93CF93DF93282F30E0F901E85945
:101AC000FF4F8491F901E458FF4FD491F901E05799
:101AD000FF4FC491CC23A9F0162F81110E94F40C62
:101AE000EC2FF0E0EE0FFF1FE255FF4FA591B491F0
:101AF0008FB7F894EC91111108C0D095DE23DC93D8
:101B00008FBFDF91CF911F910895DE2BF8CFCF9338
:101B1000DF93282F30E0F901E859FF4F8491F90154
:101B2000E458FF4FD491F901E057FF4FC491CC2303
:101B3000A1F081110E94F40CEC2FF0E0EE0FFF1FDA
:101B4000EC55FF4FA591B491EC91ED2381E090E02D
:101B500009F480E0DF91CF91089580E090E0FACF22
:101B60001F920F920FB60F9211242F933F934F9312
:101B70005F936F937F938F939F93AF93BF93EF93F5
:101B8000FF9380915E0390915F03A0916003B091F9
:101B9000610330915D0323E0230F2D3798F5019603
:101BA000A11DB11D20935D0380935E0390935F039D
:101BB000A0936003B09361038091620390916303EB
:101BC000A0916403B09165030196A11DB11D80939E
:101BD000620390936303A0936403B09365030E9430
:101BE000EF0CFF91EF91BF91AF919F918F917F91FA
:101BF0006F915F914F913F912F910F900FBE0F907A
:101C00001F90189526E8230F0296A11DB11DCACF7B
:101C100084B5826084BD84B5816084BD85B58260F1
:101C200085BD85B5816085BDEEE6F0E0808181608F
:101C30008083E1E8F0E0108280818260808380818F
:101C400081608083E0E8F0E0808181608083E1EB67
:101C5000F0E0808184608083E0EBF0E0808181604F
:101C60008083EAE7F0E08081846080838081826005
:101C700080838081816080838081806880831092EE
:101C8000C10008958E3008F08E502091F00190E44C
:101C9000299F900111248770822B80937C00809172
:101CA0007A00806480937A0080917A0086FDFCCF70
:101CB00080917800909179000895FFCFFFCFCF9366
:101CC000DF93880F990BFC01E25AFD4FC081D1814F
:101CD000EC81FD8131978A819B81E80FF91F8D8509
:101CE000DF011197823029F580EB90E080839C938F
:101CF0009E818F81DF0112979C9311978C93CF0166
:101D000004979F01295031091E92A217B307E1F7EA
:101D100020E8DF011A972C9342971E92A817B90763
:101D2000E1F7A881B9817797ED93FC93DF91CF918B
:101D300008958CEC90E0DACF089578940895F894A3
:101D4000089578940895F894089508950E94080ECF
:101D50000E94A50E0E94F30C0E94AB0B80916603BB
:101D60000E94990790E080E008958091F7028093A7
:101D70006603089508951F920F920FB60F921124D3
:101D80002F933F934F935F936F937F938F939F9383
:101D9000AF93BF93EF93FF93E091F101F091F201C4
:101DA0000995FF91EF91BF91AF919F918F917F9195
:101DB0006F915F914F913F912F910F900FBE0F90B8
:101DC0001F9018951F920F920FB60F9211242F9308
:101DD0003F934F935F936F937F938F939F93AF93B3
:101DE000BF93EF93FF93E091F301F091F401099514
:101DF000FF91EF91BF91AF919F918F917F916F91E3
:101E00005F914F913F912F910F900FBE0F901F90B8
:101E10001895F8940C94120FEE0FFF1F0590F49193
:081E2000E02D0994F894FFCFB6
:101E280000000000000000000000000000000000AA
:101E3800000000000000000000000000000000009A
:101E4800000000000000000000000000000000008A
:101E5800000000000000000000000000000000007A
:101E6800000000000000000000000000000000006A
:101E7800000000000000000000000000000000005A
:101E88000000000000000000FFFFFFFFFF0000D07F
:101E98000200005803FFFFFFFFFFFFFFFF0000BC29
:101EA80006BC06330200000000F401000032000006
:101EB80000023C0200000000640000000000000076
:101EC80002450200000000000000000000000000C1
:101ED80000000005000000000404000000030400E6
:101EE80000000200000000010000000001000000E6
:101EF80000010001000000FFFF00000100000000D9
:101F080000000000000000000000000600FF0000C4
:101F180001BA0EBA0EFFFE01FA01BE060602BE069F
:101F28001B021B02060218020000ED0677067F015D
:101F3800520302025B066F0473060300000000ED03
:101F48000677068101550302026B046704A101921A
:101F5800018301D301090A3902730604D301090A6E
:101F68004202730605D301090A4B02730601CE012A
:101F7800C901C401BF01BA01B501B0015803C202C9
:101F8800B402A60298028A027C026E02D002710490
:101F98005B058000DE0C0000060501006D04DF060D
:101FA8008000300C0000050401005D06E703800096
:101FB800490C0000040301005F07DB058000720C78
:101FC800000003020100690467038000C70C0000D9
:101FD80002010100050585048000CD0C0000010107
:101FE800010009055F068000D80C0000000101000F
:101FF80007050B0550005D0E000007000100EB010E
:1020080001000000010000000201000200000101BF
:1020180000000000010100009C086A0873084C08D1
:10202800D804E907C50412082909E0099707120A24
:10203800DE08490A06099B0A5009FD0A8F073D0B6D
:102048008A07830B610B8E0BA5099C0B6F09EE08A1
:00000001FF
