:100000000C9462000C949A0E0C94C10E0C948A000D
:100010000C948A000C948A000C948A000C948A0038
:100020000C948A000C948A000C948A000C948A0028
:100030000C948A000C948A000C948A000C948A0018
:100040000C948F0D0C948A000C948A000C948A00F6
:100050000C948A000C948A000C948A000C948A00F8
:100060000C948A000C948A00000000080002010031
:100070000003040700000000000000000102040863
:100080001020408001020408102001020408102002
:10009000040404040404040402020202020203032E
:1000A00003030303000000002300260029000000D2
:1000B0000000250028002B0000000000240027007D
:1000C0002A00940E11241FBECFEFD8E0DEBFCDBFB3
:1000D00012E0A0E0B1E0E6E3FEE102C005900D927F
:1000E000AC3FB107D9F726E0ACEFB2E001C01D92FA
:1000F000A232B207E1F710E0C2E6D0E004C02197D7
:10010000FE010E94130FC136D107C9F70E94850E68
:100110000C94E80E0C940000E4E10E944101089563
:10012000E2E10E9441010895EAE00E944101089540
:10013000E1E00E9441010895E3E00E944101089539
:10014000E7E00E9441010895E5E00E944101089521
:10015000E0E00E9441010895E2E00E94410108951B
:10016000E4E00E9441010895ECE00E9441010895FD
:10017000EBE10E9441010895EEE00E9441010895E3
:10018000E8E00E9441010895E0E10E9441010895E4
:10019000EAE10E9441010895E6E00E9441010895CC
:1001A000E8E10E9441010895E9E00E9441010895BB
:1001B000EBE00E9441010895EDE00E9441010895A5
:1001C000EFE00E9441010895E1E10E94410108959C
:1001D000E3E10E9441010895E5E10E944101089593
:1001E000E7E10E9441010895E9E10E94410108957B
:1001F000E6E10E944101089521968A929A92AA927C
:10020000BA92CA92DA92EA92FA920A931A932197D0
:10021000E0916B01F0916C010080F181E02DC083D1
:10022000D1830895C0916D01D0916E01E881F9816B
:10023000C081D181219619910991F990E990D990C5
:10024000C990B990A99099908990219708952F907D
:100250003F90E7E6F1E0CDB7DEB7EDBFFEBF3F92DE
:100260002F9208952F903F90CDBFDEBF3F922F92E7
:100270000895E0E80E9441010895E0E40E944101F0
:1002800008952F923F924F925F926F927F922FB676
:100290002F92CF93DF937E2EF894E0910001EF5FD1
:1002A000E0930001E13011F40E942701E0E0E093C7
:1002B0007B01E72DE07849F00E94A105F0917C01D7
:1002C000F17071F00E942E040BC0E72DEC3140F468
:1002D000EE0FF0E0EC53FD4F0190F081E02D099519
:1002E000F0917B01EF2FE17059F0F27011F00E9454
:1002F000FC008F938F2F0E9478038F910E94120130
:1003000020910001215020930001222311F40E942A
:100310003201DF91CF912F902FBE7F906F905F9031
:100320004F903F902F900895FC014081FB01308158
:10033000842F8F7090E0B0E0A0E0B695A7959795D8
:1003400087958C5E9C4FFC018081242F281B217097
:100350004E70242B832F8F7090E0B0E0A0E0B69514
:10036000A795979587958C5E9C4FFC018081932F74
:10037000981B91703E70932B41E050E0291710F0CC
:1003800050E040E0CA0108958F929F92AF92BF92D1
:10039000EF92FF920F931F93CF93DF937C014A015B
:1003A0005B01B694A79497948794423051056105F8
:1003B000710580F0440F551F8701040F151FE401DC
:1003C000CC0FDD1FCE0DDF1DB801CE010E949401C0
:1003D000892B59F4DF91CF911F910F91FF90EF90EE
:1003E000BF90AF909F908F900895F8019081818188
:1003F000288139813183208398838983B501A401C1
:10040000D0CF4F925F926F927F928F929F92AF92D6
:10041000BF92CF92DF92EF92FF920F931F93CF93F1
:10042000DF9300D000D000D0CDB7DEB78C016A01D9
:100430007B01DC018C91282F30E050E040E02983E3
:100440003A834B835C8346015701880C991CAA1C94
:10045000BB1C29813A814B815C81281539054A05ED
:100460005B05B8F426960FB6F894DEBF0FBECDBF7D
:10047000DF91CF911F910F91FF90EF90DF90CF9080
:10048000BF90AF909F908F907F906F905F904F90B4
:100490000895240135013FEF431A530A630A730A92
:1004A00089819A81AB81BC8184159505A605B70524
:1004B00080F0B201660F771F600F711FC401880FB3
:1004C000991F800F911F0E949401892B11F05301F5
:1004D00042013401660C771C600E711ECC0CDD1CD1
:1004E000D801AC0DBD1DBE83AD83B301CD010E940B
:1004F0009401892B09F4B6CFED81FE819081818131
:10050000D3012D913C911197318320839C931196B7
:100510008C937501640197CFEAEBF3E040814F5F64
:10052000408350E070E060E0E82FEE0FFF0BE25BED
:10053000FD4F0190F081E02D238530E0F901EC5E64
:10054000FC4F908191509083FA01EE0FFF1FE6540B
:10055000FC4F220F331F9170922B908381838AEB83
:1005600093E00C94C401EAEBF3E040814F5F4083D9
:1005700050E070E060E0FA01EE0FFF1FE654FC4F20
:10058000A82FAA0FBB0BAE5BBD4F0D90BC91A02D49
:1005900013969C91908381838AEB93E00C94C40121
:1005A000CF93DF93EAEBF3E080819FEF980F908386
:1005B000D281C38190E0880F991F86549C4FDC0143
:1005C0008D919C919383828341E050E060E070E0E4
:1005D000CF010E9401028D2F9C2FDF91CF910895B2
:1005E0008091FC02811114C080917301909174017B
:1005F000A0917501B09176018F3F2FEF9207A2076E
:10060000B20741F00597A105B10534F481E00895E2
:1006100084E0089580E0089582E00895CF93DF9309
:10062000880F990BFC01E25BFD4F0190F081E02DFA
:100630000084F185E02D3097E1F02281211119C06D
:1006400021E022838E5B9D4FEC01A881B981139636
:100650008C9113978183208130E0F901EC5EFC4F8F
:10066000808181508083220F331F8170822B1396EB
:100670008C93DF91CF910895CF93DF93880F990BDF
:10068000FC01E25BFD4F0190F081E02D0084F185DB
:10069000E02D309761F02281213049F412828E5B87
:1006A0009D4FEC01A881B981818113968C93DF91D4
:1006B000CF9108958091770190917801A09179016F
:1006C000B0917A014091730150917401609175016C
:1006D00070917601481759076A077B0741F0E0914E
:1006E0007101F091720121E024830C94B30208950A
:1006F000CF93DF93D0E0C0E0882389F0C0916B01F5
:10070000D0916C01E0916F01F09170018481833090
:1007100031F081E08483809173010E94B302E09103
:100720007101F0917201F0937001E0936F0180917B
:100730006D0190916E0190936C0180936B0180919B
:100740007701309178012091790190917A0180931D
:10075000730130937401209375019093760192E0B8
:1007600094830E940E03CE01DF91CF910895809172
:1007700073010E943C03E0916F01F091700182814E
:10078000882319F085E08483089514820895CF9317
:10079000DF93282F220F330BF901EE5BFD4FC08151
:1007A000D1819A81225B3D4FD901ED91FC91248545
:1007B000921780F4911105C095E09C8391E090938D
:1007C0007C010E948C028A818F5F8A8380E0DF91A6
:1007D000CF91089584E0FBCFE82FEE0FFF0BEE5B87
:1007E000FD4F0190F081E02D118210820C943E0E9D
:1007F0001F93CF93DF930E94D002182F892F492F88
:10080000092E000C550B660B770B40937701509324
:1008100078016093790170937A01292F220F330BAD
:10082000F901EE5BFD4FC081D181D0937201C0937D
:100830007101225B3D4FF9012081318130936E01BE
:1008400020936D019C81953019F40E94EC031B8369
:1008500010927C01DF91CF911F910895E091770173
:10086000F0917801EE0FFF1FEE5BFD4F0190F081DC
:10087000E02D9091BC038381891740F40E945A03B4
:100880000E94F80383E080937B01089580E0FBCF12
:1008900081E080937B010C94F803EF92FF920F9319
:1008A0001F93CF93DF93C1E001C0CC0F8A95EAF785
:1008B000209158023091590280914C0290914D0242
:1008C0001092BA0310926C0110926B0130936E017A
:1008D00020936D011092700110926F01909372013C
:1008E000809371018FEF9FEFDC01809373019093F0
:1008F0007401A0937501B093760180937701909372
:100900007801A0937901B0937A0110927B01109243
:100910007C0185E00E94C7030EEB12E0D0E0F801F5
:1009200081918F018C2319F08D2F0E94C703DF5F07
:10093000D530A9F70BEB12E081E2E82E82E0F82E29
:10094000D1E0F80181918F018C2339F0F70180818A
:100950009181FC01D6870E94E504F2E0EF0EF11CC4
:1009600082E00E3B180769F7DF91CF911F910F913D
:10097000FF90EF9008950E949B0781110E94BC0791
:10098000E0916F01F091700180819181892B21F0BC
:10099000809173010E9481090C94E4080E949B07D6
:1009A00081110E94BC07E0916F01F091700180817C
:1009B0009181892B21F0809173010E9481090C940F
:1009C000CC0881E08093FD020895CF92DF92EF92F0
:1009D000FF920F931F93CF93DF93FC01A081B1810E
:1009E0000D90BC91A02D54968D919C915597009798
:1009F00009F445C0428553856485758530E020E063
:100A0000EC01CA84DB84EC84FD844C155D056E0525
:100A10007F0508F049C08C0113830283358324834A
:100A20000115110519F0E801FD83EC83211531054D
:100A300009F444C0E901FB83EA835696CD91DC9129
:100A400057970A851B852C853D855096CD90DD9066
:100A5000ED90FC9053970C151D052E053F0598F55C
:100A6000C416D506E606F70628F0401751076207B8
:100A7000730788F45796FC93EE9356970CC05596DF
:100A8000FC93EE9354975796FC93EE9356971582EA
:100A9000148213821282DF91CF911F910F91FF90E8
:100AA000EF90DF90CF900895EC010A811B819C01AB
:100AB0000115110509F4B0CFC801A2CF5596FC93DA
:100AC000EE935497BACFC416D506E606F70668F239
:100AD000E2CFCF93DF93DC01ED91FC911197019070
:100AE000F081E02D848995891296CD91DC91139740
:100AF0008A179B0711F4D58BC48B868997898A172F
:100B00009B0711F4D78BC68B209731F014968D91EB
:100B10009C9115979D838C8314960D90BC91A02D6C
:100B2000109721F01396DC93CE93129786899789BC
:100B3000892B21F484899589978B868BDF91CF91BE
:100B40000895EF92FF920F931F93CF93DF93FC01D1
:100B50008091FD02882309F4ACC084859585A68523
:100B6000B7850196A11DB11D84879587A687B78794
:100B7000408151816281738184179507A607B70769
:100B800009F097C080899189A289B3890196A11D36
:100B9000B11D4481558166817781481759076A07DD
:100BA0007B0718F480E090E0DC01808B918BA28BB6
:100BB000B38B1486158616861786C689D789209723
:100BC00009F477C04A855B856C857D854817590790
:100BD0006A077B0709F06DC0CE01DC011296ED902B
:100BE000FC90E114F10469F0D7011A960D911D9162
:100BF0002D913C911D97401751076207730709F427
:100C00005FC02C813D812115310529F0D901139652
:100C1000FC92EE921297E114F10429F0D701159697
:100C20003C932E93149724893589C217D30711F466
:100C3000F58AE48AE114F10409F444C0F78AE68AEB
:100C40008F01FC0113821282EA80FB80E881F98126
:100C50000280F381E02DCE0109958E819F81A885C8
:100C6000B9850097A105B10591F14A855B856C8531
:100C70007D85840F951FA61FB71FF80144815581FC
:100C800066817781481759076A077B0740F44095CA
:100C9000509560957095840F951FA61FB71F8A8782
:100CA0009B87AC87BD87CE010E94E504E7012097B2
:100CB00059F6DF91CF911F910F91FF90EF9008951A
:100CC000C7018BCF24893589378B268BB9CF1E86F8
:100CD000EDCFFC0182810C94C703EF92FF920F933A
:100CE0001F93CF93DF937C018B01FB01C285D385DA
:100CF000CB010A960E946E07009711F1F801258535
:100D0000FC01D7011216C4F0F80185859881981B63
:100D100098839981890F89839485891708F01982AE
:100D20008A81882379F01A828CE0DF91CF911F911C
:100D30000F91FF90EF90089581918D932150E2CF14
:100D40008DE0F3CF80E0F1CFDA01109749F0ED911B
:100D5000FC911197309721F0AB01BC01CD010994B2
:100D600081E0089581E00895EF92FF921F93CF9361
:100D7000DF937B01DC011296CD91DC91209711F479
:100D800010E017C0EC81FD81B701CE010995182F45
:100D900081110DC088819981009721F40A80DB813F
:100DA000C02DECCFDC01ED91FC910995F7CF8E3091
:100DB000A9F380E00E942C07812FDF91CF911F9132
:100DC000FF90EF900895CF92DF92EF92FF920F93F2
:100DD0001F93CF93DF93EC016B010A851B85E88895
:100DE000F98848855985C7010E94A406882391F196
:100DF000CE010A960E943207009739F12D85022E06
:100E0000000C330BF601A701BC01121613067CF08F
:100E1000F80180819D85890F808380E0DF91CF91EB
:100E20001F910F91FF90EF90DF90CF9008958191E7
:100E3000DA018D93AD01CF010197DC018C91DB01CB
:100E40008D93BD0121503109E0CF81E0D801129688
:100E50008C93E3CF8EE0E2CF80917C0181110C94E2
:100E60002E040895CF92DF92EF92FF920F931F937B
:100E7000FC01A081B1814C9150E011968C919A01B6
:100E8000280F311D6901032E000CEE08FF080281B6
:100E9000602F70E0CB01841B950BAC018381082E81
:100EA000000C990B48175907B4F044815581C901CA
:100EB00010E030E020E0C016D106E206F30610F0A4
:100EC000861B970B840F951F1F910F91FF90EF903A
:100ED000DF90CF90089590E080E0F6CFFC01A081F4
:100EE000B1818C91882349F011969C9124813581A0
:100EF000A901490F511DCA01089590E080E00895AD
:100F00000E949B07809168010895809368010E9468
:100F10004D040E94E1040C9448040C943D0ECF93C0
:100F2000C82F0E94F002811102C00E947B0E8C2FFC
:100F3000CF910C94900080910A038130D9F0809178
:100F4000020390910303A0910403B0910503892B40
:100F50008A2B8B2B79F481E0409106035091070393
:100F60006091080370910903452B462B472B19F418
:100F700080E0089581E0089510920A03109206031C
:100F800010920703109208031092090310920203B3
:100F90001092030310920403109205038091FE0245
:100FA0009091FF02A0910003B091010380930B0385
:100FB00090930C03A0930D03B0930E0308950E9429
:100FC0007E0E80910B0390910C03A0910D03B091C4
:100FD0000E030196A11DB11D80930B0390930C038A
:100FE000A0930D03B0930E03809106039091070325
:100FF000A0910803B09109030196A11DB11D809332
:10100000060390930703A0930803B0930903089580
:101010008091060390910703A0910803B091090302
:101020000097A105B10569F140910B0350910C03A4
:1010300060910D0370910E034150510961097109CE
:1010400040930B0350930C0360930D0370930E03B6
:101050000197A109B1098093060390930703A09318
:101060000803B093090380910B0390910C03A091A6
:101070000D03B0910E03892B8A2B8B2B11F40C944A
:101080007C0E08958091060390910703A0910803B8
:10109000B0910903892B8A2B8B2B89F48091020351
:1010A00090910303A0910403B0910503892B8A2B2F
:1010B0008B2B29F40E947E0E81E080930A03089511
:1010C00080910A03882321F010920A030C947C0E6D
:1010D00008950E94820E80910B0390910C03A091C1
:1010E0000D03B0910E030196A11DB11D80930B035A
:1010F00090930C03A0930D03B0930E038091020311
:1011000090910303A0910403B09105030196A11DE2
:10111000B11D8093020390930303A0930403B09343
:10112000050308958091020390910303A0910403A5
:10113000B09105030097A105B10569F140910B033A
:1011400050910C0360910D0370910E0341505109B1
:101150006109710940930B0350930C0360930D03D5
:1011600070930E030197A109B10980930203909334
:101170000303A0930403B093050380910B039091A4
:101180000C03A0910D03B0910E03892B8A2B8B2B9E
:1011900011F40C94800E08950E949B07882311F08F
:1011A00083E1089580E00895CF93C82F0E949B07A4
:1011B0008C2F0E94C703C82F80917C0181110E944F
:1011C0002E048C2FCF910895CF930E949B07C3E1EB
:1011D000811101C0C0E0E0916F01F0917001828146
:1011E000815082830E94B70381E080937B010E943B
:1011F000F8038C2FCF910895CF93C82F0E949B079F
:10120000E0916F01F09170018281815082838C2F77
:101210000E94C703C82F81110AC00E94B70381E052
:1012200080937B010E94F8038C2FCF910895E09169
:101230006F01F091700182818F5F8283F5CFCF9330
:101240000E949B07C3E1811101C0C0E0809173013E
:101250000E943C030E942E048091730190917401BE
:10126000A0917501B091760140917701509178017C
:101270006091790170917A0184179507A607B707E5
:1012800011F40E940E038C2FCF910895CF93DF931A
:10129000EC010E949B07882391F083E14091730148
:1012A000509174016091750170917601453051053E
:1012B0006105710534F44883DF91CF91089580E092
:1012C000EDCF9091E9019883F7CF0F931F93CF93C0
:1012D000C82F8B010E949B07882389F083E1EC2FA4
:1012E000EE0FFF0BEE5BFD4F0190F081E02D94813E
:1012F0009370F8019083CF911F910F91089580E032
:10130000EECF880F990BFC01EE5BFD4FA081B18100
:10131000ED91FC911197309769F01D921C922091EC
:10132000E90193818481228314821382E92FF82FAB
:101330003097B9F70895CF93C82F0E949B07882351
:1013400081F183E1EC2FF0E0EE0FFF1FE255FD4F3E
:101350000190F081E02D909173019283A0916F0133
:10136000B09170012D913C91119734832383119694
:10137000FC93EE9313969C911397918320819695FD
:10138000921768F430E0F901EC5EFC4F90819150C7
:101390009083220F331F9170922B13969C93CF91C1
:1013A000089580E0CFCFCF93DF93C82F0E949B0793
:1013B000D3E1811101C0D0E0EC2FF0E0EE0FFF1F70
:1013C000E255FD4F0190F081E02DA0916F01B091A9
:1013D0007001818113968C931397838194818D93EF
:1013E0009C93148213828091E90182830E942E04CF
:1013F0008D2FDF91CF910895DC01ED91FC918481D7
:101400009581DC01ED91FC9109941F93CF93DF93BB
:10141000182FEB010E949B07882361F183E1E12FE4
:10142000F0E0EE0FFF1FEF5DFD4F0190F081E02D2A
:101430000190F081E02D0190F081E02D40815181FB
:10144000628173814C835D836E837F834481558188
:1014500066817781488359836A837B834085518580
:1014600062857385488759876A877B87DF91CF912B
:101470001F91089580E0D3CF8F929F92AF92BF9239
:10148000CF92DF92EF92FF920F931F93CF93C82FCB
:101490008B010E949B078823E9F183E1EC2FF0E0A8
:1014A000EE0FFF1FEF5DFD4F0190F081E02D96855F
:1014B000913091F542855385648575850190F08161
:1014C000E02D0190F081E02DC088D188E288F3887A
:1014D0004C155D056E057F0540F484809580A680DF
:1014E000B780480D591D6A1D7B1D4C195D096E0999
:1014F0007F09F8014083518362837383CF911F91E9
:101500000F91FF90EF90DF90CF90BF90AF909F90A2
:101510008F90089580E0C2CF85E0F0CF8F929F92A8
:10152000AF92BF92CF92DF92EF92FF920F931F93F1
:10153000CF93DF93D82F6A017B01480159010E94A4
:101540009B07C3E1811101C0C0E0ED2FF0E0EE0F79
:10155000FF1FEF5DFD4F0190F081E02D8685811129
:101560003DC0A081B1810D90BC91A02D50964D91B0
:101570005D916D917C9153974C0D5D1D6E1D7F1D8E
:1015800014968D919D910D90BC91A02D8417950777
:10159000A607B70740F4481B590B6A0B7B0B415059
:1015A000510961097109428753876487758786826B
:1015B0009782A086B18681E08687CF010E94E504EC
:1015C0008C2FDF91CF911F910F91FF90EF90DF90C3
:1015D000CF90BF90AF909F908F900895C7E0F0CFCD
:1015E0008F929F92AF92BF92CF92DF92EF92FF9233
:1015F0000F931F93CF93DF93C82F4A015B016801BC
:1016000079010E949B07D3E1811101C0D0E0EC2F4A
:10161000F0E0EE0FFF1FEF5DFD4F0190F081E02D38
:10162000868581111BC082869386A486B586C68274
:10163000D782E086F18681E08687CF010E94E504AB
:101640008D2FDF91CF911F910F91FF90EF90DF9041
:10165000CF90BF90AF909F908F900895D7E0F0CF3C
:101660000F931F93CF93DF93C82F0E949B07D3E163
:10167000811101C0D0E0EC2FF0E0EE0FFF1FEF5D15
:10168000FD4F00811181F8018685813059F4C80130
:101690000E946905F80116868D2FDF91CF911F9169
:1016A0000F910895D5E0F8CFCF93DF93880F991F5E
:1016B000FC01EA50FE4F0190F081E02D85858823E2
:1016C00079F0C285D385CF010A960E946E07892BD7
:1016D00049F08A81882341F08CE0DF91CF91089511
:1016E0008AE0FBCF8DE0F9CF80E0F7CF880F991F1C
:1016F000FC01E651FE4F80819181DC01ED91FC916E
:1017000009949B01880F991FFC01EA50FE4F6081EC
:101710007181DB011696ED91FC91C9010994880F46
:10172000991FFC01E651FE4F80819181DC01ED9112
:10173000FC9170E060E0099580E008950E94E70D5B
:1017400061E08DE00E94FC0C62E08CE00E94FC0CE9
:1017500061E08AE00E94FC0C60E08EE00E94FC0CDC
:101760008091C3020C948F07CF93DF938EE00E9489
:10177000210EEC018CE00E94660D892B29F58091E9
:101780001103811110C081E08093110310921303A3
:1017900010921203CE0193702091100321119061D9
:1017A000DF91CF91089580911203909113038C598A
:1017B0009F4F9093130380931203883E934050F3FE
:1017C00081E080931003E6CF109211031092100372
:1017D000E1CF9C01BC01737048E853E1649FC001F4
:1017E000659F900D749F900D11246FEF73E00E9420
:1017F000EB0E34FF07C070936A016093690190E0BB
:1018000080E008958091690190916A018F3F980767
:1018100069F0681B790B77FF03C0719561957109B9
:10182000683C710534F082E090E0089583E090E038
:10183000089581E090E00895CF93DF9300D0CDB775
:10184000DEB70E94B40B9A838983BE016F5F7F4F1E
:101850008091B2029091B3020E94EC000E94B80005
:101860000F900F90DF91CF910895CF93DF9300D029
:1018700000D0CDB7DEB7BE016D5F7F4F8091B6025D
:101880009091B7020E94F0008B819C810E94E90B2D
:101890009A838983019649F0BE016F5F7F4F8091E3
:1018A000B0029091B1020E94EC000E94B8000F902B
:1018B0000F900F900F90DF91CF910895FF920F93AB
:1018C0001F93CF93DF9300D0CDB7DEB7BE016F5F1C
:1018D0007F4F8091B4029091B5020E94F0008981FF
:1018E0009A81009749F48091BA020E94E80060E072
:1018F0008DE00E94380D13C081309105D1F4F09035
:10190000BA028F2D0E94E80004EF11E020E030E0E1
:1019100044EF51E060E070E08F2D0E94E0000E94F3
:10192000B8000F900F90DF91CF911F910F91FF9012
:1019300008958230910571F4F090BA028F2D0E94C3
:10194000E8000DE710E020E030E04DE750E060E017
:1019500070E0E2CF039719F78091BA020E94E80085
:1019600061E0C6CF60910F0381E0682760930F03A9
:101970008DE00E94380D0C94B8008091BA020E944C
:10198000E8008091B8020E94E8008091B9020E94AC
:10199000E80080E00E9494000C94B80087EC91E08D
:1019A0000C9439010895833081F028F4813099F046
:1019B0008230A9F008958730A9F08830C9F08430CA
:1019C000B1F4809180008F7D03C0809180008F777B
:1019D00080938000089584B58F7784BD089584B581
:1019E0008F7DFBCF8091B0008F778093B0000895FA
:1019F0008091B0008F7DF9CFCF93DF9390E0FC0111
:101A0000E458FF4F249180579F4FFC018491882315
:101A1000C9F090E0880F991FFC01E854FF4FA59191
:101A2000B491FC01E255FF4FC591D49161110DC0F5
:101A30009FB7F8948C91209582238C9388812823DA
:101A400028839FBFDF91CF910895623051F49FB7F3
:101A5000F8943C91822F809583238C93E8812E2BE0
:101A6000EFCF8FB7F894EC912E2B2C938FBFEACF4A
:101A70001F93CF93DF93282F30E0F901E859FF4FF0
:101A80008491F901E458FF4FD491F901E057FF4FD9
:101A9000C491CC23A9F0162F81110E94D30CEC2FF6
:101AA000F0E0EE0FFF1FE255FF4FA591B4918FB705
:101AB000F894EC91111108C0D095DE23DC938FBF10
:101AC000DF91CF911F910895DE2BF8CFCF93DF9355
:101AD000282F30E0F901E859FF4F8491F901E458CB
:101AE000FF4FD491F901E057FF4FC491CC23A1F0EF
:101AF00081110E94D30CEC2FF0E0EE0FFF1FEC558C
:101B0000FF4FA591B491EC91ED2381E090E009F4B1
:101B100080E0DF91CF91089580E090E0FACF1F92AE
:101B20000F920FB60F9211242F933F934F935F9311
:101B30006F937F938F939F93AF93BF93EF93FF9395
:101B40008091270390912803A0912903B0912A0343
:101B50003091260323E0230F2D3798F50196A11D20
:101B6000B11D209326038093270390932803A0930D
:101B70002903B0932A0380912B0390912C03A09109
:101B80002D03B0912E030196A11DB11D80932B034F
:101B900090932C03A0932D03B0932E030E94CE0CA0
:101BA000FF91EF91BF91AF919F918F917F916F9135
:101BB0005F914F913F912F910F900FBE0F901F900B
:101BC000189526E8230F0296A11DB11DCACF84B532
:101BD000826084BD84B5816084BD85B5826085BD29
:101BE00085B5816085BDEEE6F0E08081816080830F
:101BF000E1E8F0E0108280818260808380818160F2
:101C00008083E0E8F0E0808181608083E1EBF0E0B8
:101C1000808184608083E0EBF0E08081816080835C
:101C2000EAE7F0E080818460808380818260808345
:101C30008081816080838081806880831092C10070
:101C400008958E3008F08E502091E40190E4299F91
:101C5000900111248770822B80937C0080917A0000
:101C6000806480937A0080917A0086FDFCCF809119
:101C70007800909179000895FFCFFFCFCF93DF9345
:101C8000880F990BFC01E25BFD4FC081D181EC8193
:101C9000FD8131978A819B81E80FF91F8D85DF01D6
:101CA0001197823029F580EB90E080839C939E8190
:101CB0008F81DF0112979C9311978C93CF0104972A
:101CC0009F01295031091E92A217B307E1F720E8BE
:101CD000DF011A972C9342971E92A817B907E1F7D4
:101CE000A881B9817797ED93FC93DF91CF91089507
:101CF0008CEC90E0DACF089578940895F8940895E4
:101D000078940895F894089508950E94E70D0E942C
:101D1000840E0E94D20C0E949E0B80912F030E9481
:101D20008F0790E080E008958091C30280932F0395
:101D3000089508951F920F920FB60F9211242F93BA
:101D40003F934F935F936F937F938F939F93AF9343
:101D5000BF93EF93FF93E091E501F091E6010995C0
:101D6000FF91EF91BF91AF919F918F917F916F9173
:101D70005F914F913F912F910F900FBE0F901F9049
:101D800018951F920F920FB60F9211242F933F9325
:101D90004F935F936F937F938F939F93AF93BF9373
:101DA000EF93FF93E091E701F091E8010995FF912E
:101DB000EF91BF91AF919F918F917F916F915F91C3
:101DC0004F913F912F910F900FBE0F901F9018953C
:101DD000F8940C94190F97FB072E16F4009407D073
:101DE00077FD09D00E94FF0E07FC05D03EF49095C8
:101DF00081959F4F0895709561957F4F0895AA1B17
:101E0000BB1B51E107C0AA1FBB1FA617B70710F0E5
:101E1000A61BB70B881F991F5A95A9F78095909517
:101E2000BC01CD010895EE0FFF1F0590F491E02D48
:061E30000994F894FFCFB5
:101E3600000000000000000000000000000000009C
:101E4600000000000000000000000000000000008C
:101E5600000000000000000000000000000000007C
:101E6600000000000000000000000000000000006C
:101E7600000000000000000000000000000000005C
:101E8600000000000000000000000000000000004C
:101E96000000000000000000FFFFFF0000A002009D
:101EA600002103FFFFFFFFFFFFFFFF0000B206B2A6
:101EB60006270200000000F40100002602000002CE
:101EC6003002000000006400000032000000023909
:101ED60002000000000000000000000000000000FA
:101EE60000050000000004040000000304000000D8
:101EF6000200000000010001000000FFFF000001D9
:101F060000000000000000000000000000000006C5
:101F160000FF000001990E990EFFF201EE01B406D2
:101F2600FA01B4060F020F02FA010C020000E306E2
:101F36006D067D011B0302029C05B60369060100BE
:101F4600000000E3066D067F011E030202B203B025
:101F5600039F0190018101C701FC092D0269060258
:101F6600C701FC093602690603C701FC093F02697D
:101F76000600C201BD01B801B301AE012103920200
:101F86008402760268025A02A002B8039C0480000A
:101F9600BD0C000004050100B403A00580001C0C64
:101FA6000000030401009E0530038000350C00008C
:101FB6000203010020061C0580005E0C00000102E1
:101FC60001004804C8038000B20C000000010100B3
:101FD6004A044C0450003C0E000005000100DF01DD
:101FE60001000000010000000201000001010000E4
:101FF600010100009208600869084208CE04DF0764
:10200600BB0408081F09D3098D07050AD4083C0A32
:10201600FC088E0A4609F00A8507300B8007760B06
:0C202600540B810B9B098F0B6509E4082B
:00000001FF
