:100000000C945E000C94830F0C94AA0F0C94860041
:100010000C9486000C9486000C9486000C94860048
:100020000C9486000C9486000C9486000C94860038
:100030000C9486000C9486000C9486000C94860028
:100040000C94280E0C9486000C94E4100C94161159
:100050000C9486000C9486000C9486000C94860008
:100060000C9486000C948600000000080002010039
:100070000003040700000000000000000102040863
:100080001020408001020408102001020408102002
:10009000040404040404040402020202020203032E
:1000A0000303030300000000250028002B000000CC
:1000B0000000240027002A007D0F3C1111241FBEE0
:1000C000CFEFD8E0DEBFCDBF13E0A0E0B1E0E4EBBE
:1000D000F5E202C005900D92AE35B107D9F727E0E1
:1000E000AEE5B3E001C01D92AF31B207E1F710E019
:1000F000CEE5D0E004C02197FE010E94C312CC35AA
:10010000D107C9F70E946E0F0C9497120C9400004F
:10011000E4E10E943D010895E2E10E943D0108955D
:10012000EAE00E943D010895E1E00E943D0108954A
:10013000E3E00E943D010895E7E00E943D0108953B
:10014000E5E00E943D010895E0E00E943D01089530
:10015000E2E00E943D010895E4E00E943D0108951F
:10016000ECE00E943D010895EBE10E943D010895FD
:10017000EEE00E943D010895E8E00E943D010895EF
:10018000E0E10E943D010895EAE10E943D010895E9
:10019000E6E00E943D010895E8E10E943D010895D6
:1001A000E9E00E943D010895EBE00E943D010895C1
:1001B000EDE00E943D010895EFE00E943D010895A9
:1001C000E1E10E943D010895E3E10E943D010895AF
:1001D000E5E10E943D010895E7E10E943D01089597
:1001E000E9E10E943D010895E6E10E943D01089584
:1001F00021968A929A92AA92BA92CA92DA92EA9234
:10020000FA920A931A932197E0916C01F0916D0193
:100210000080F181E02DC083D1830895C0916E01EB
:10022000D0916F01E881F981C081D1812196199126
:100230000991F990E990D990C990B990A9909990B5
:100240008990219708952F903F90E7E6F1E0CDB790
:10025000DEB7EDBFFEBF3F922F9208952F903F90E3
:10026000CDBFDEBF3F922F920895E0E80E943D018E
:100270000895E0E40E943D0108952F923F924F922D
:100280005F926F927F922FB62F92CF93DF937E2E45
:10029000F894E0910001EF5FE0930001E13011F488
:1002A0000E942301E0E0E0937C01E72DE07849F033
:1002B0000E949D05F0917D01F17071F00E942A0469
:1002C0000BC0E72DEC3140F4EE0FF0E0E05FFC4FA7
:1002D0000190F081E02D0995F0917C01EF2FE17004
:1002E00059F0F27011F00E94F8008F938F2F0E9446
:1002F00074038F910E940E012091000121502093E0
:100300000001222311F40E942E01DF91CF912F9042
:100310002FBE7F906F905F904F903F902F900895E9
:10032000FC014081FB013081842F8F7090E0B0E0B0
:10033000A0E0B695A7959795879588589C4FFC01A6
:100340008081242F281B21704E70242B832F8F70C7
:1003500090E0B0E0A0E0B695A7959795879588586E
:100360009C4FFC018081932F981B91703E70932BC2
:1003700041E050E0291710F050E040E0CA01089534
:100380008F929F92AF92BF92EF92FF920F931F9323
:10039000CF93DF937C014A015B01B694A7949794B5
:1003A0008794423051056105710580F0440F551F57
:1003B0008701040F151FE401CC0FDD1FCE0DDF1DDB
:1003C000B801CE010E949001892B59F4DF91CF91A1
:1003D0001F910F91FF90EF90BF90AF909F908F90E3
:1003E0000895F801908181812881398131832083AA
:1003F00098838983B501A401D0CF4F925F926F9209
:100400007F928F929F92AF92BF92CF92DF92EF92A4
:10041000FF920F931F93CF93DF9300D000D000D0B3
:10042000CDB7DEB78C016A017B01DC018C91282FEE
:1004300030E050E040E029833A834B835C834601FF
:100440005701880C991CAA1CBB1C29813A814B813D
:100450005C81281539054A055B05B8F426960FB668
:10046000F894DEBF0FBECDBFDF91CF911F910F91EA
:10047000FF90EF90DF90CF90BF90AF909F908F90C4
:100480007F906F905F904F900895240135013FEF6A
:10049000431A530A630A730A89819A81AB81BC812A
:1004A00084159505A605B70580F0B201660F771F84
:1004B000600F711FC401880F991F800F911F0E9448
:1004C0009001892B11F0530142013401660C771C15
:1004D000600E711ECC0CDD1CD801AC0DBD1DBE83A1
:1004E000AD83B301CD010E949001892B09F4B6CFF1
:1004F000ED81FE8190818181D3012D913C911197F5
:10050000318320839C9311968C937501640197CF5E
:10051000E9E3F4E040814F5F408350E070E060E049
:10052000E82FEE0FFF0BE456FD4F0190F081E02D18
:10053000238530E0F901E858FC4F90819150908379
:10054000FA01EE0FFF1FE75CFB4F220F331F917084
:10055000922B9083818389E394E00C94C001E9E3BA
:10056000F4E040814F5F408350E070E060E0FA01CA
:10057000EE0FFF1FE75CFB4FA82FAA0FBB0BA05786
:10058000BD4F0D90BC91A02D13969C9190838183BB
:1005900089E394E00C94C001CF93DF93E9E3F4E0A6
:1005A00080819FEF980F9083D281C38190E0880F64
:1005B000991F875C9B4FDC018D919C919383828373
:1005C00041E050E060E070E0CF010E94FD018D2F1E
:1005D0009C2FDF91CF91089580915E03811114C00B
:1005E0008091740190917501A0917601B09177018D
:1005F0008F3F2FEF9207A207B20741F00597A105A1
:10060000B10534F481E0089584E0089580E0089510
:1006100082E00895CF93DF93880F990BFC01E45695
:10062000FD4F0190F081E02D0084F185E02D3097A1
:10063000E1F02281211119C021E0228380579D4FD2
:10064000EC01A881B98113968C9113978183208145
:1006500030E0F901E858FC4F808181508083220FFF
:10066000331F8170822B13968C93DF91CF91089565
:10067000CF93DF93880F990BFC01E456FD4F019057
:10068000F081E02D0084F185E02D309761F022812A
:10069000213049F4128280579D4FEC01A881B98125
:1006A000818113968C93DF91CF9108958091780189
:1006B00090917901A0917A01B0917B0140917401F0
:1006C0005091750160917601709177014817590733
:1006D0006A077B0741F0E0917201F091730121E01C
:1006E00024830C94AF020895CF93DF93D0E0C0E051
:1006F000882389F0C0916C01D0916D01E091700167
:10070000F09171018481833031F081E084838091A4
:1007100074010E94AF02E0917201F0917301F093B5
:100720007101E093700180916E0190916F0190933F
:100730006D0180936C018091780130917901209155
:100740007A0190917B01809374013093750120931D
:1007500076019093770192E094830E940A03CE0180
:10076000DF91CF910895809174010E943803E09148
:100770007001F09171018281882319F085E08483F2
:10078000089514820895CF93DF93282F220F330BFF
:10079000F901E057FD4FC081D1819A8124563D4F28
:1007A000D901ED91FC912485921780F4911105C037
:1007B00095E09C8391E090937D010E9488028A815C
:1007C0008F5F8A8380E0DF91CF91089584E0FBCF33
:1007D000E82FEE0FFF0BE057FD4F0190F081E02D69
:1007E000118210820C94270F1F93CF93DF930E94E6
:1007F000CC02182F892F492F092E000C550B660BA0
:10080000770B409378015093790160937A0170934C
:100810007B01292F220F330BF901E057FD4FC081D7
:10082000D181D0937301C093720124563D4FF901D9
:100830002081318130936F0120936E019C8195302E
:1008400019F40E94E8031B8310927D01DF91CF9180
:100850001F910895E0917801F0917901EE0FFF1F4B
:10086000E057FD4F0190F081E02D90913B04838192
:10087000891740F40E9456030E94F40383E080939A
:100880007C01089580E0FBCF81E080937C010C9493
:10089000F403EF92FF920F931F93CF93DF93C1E086
:1008A00001C0CC0F8A95EAF72091A6023091A702E9
:1008B00080919A0290919B021092390410926D01DE
:1008C00010926C0130936F0120936E0110927101B0
:1008D0001092700190937301809372018FEF9FEFDC
:1008E000DC018093740190937501A0937601B0931D
:1008F00077018093780190937901A0937A01B09366
:100900007B0110927C0110927D0185E00E94C3035F
:100910000AE013E0D0E0F80181918F018C2319F0F7
:100920008D2F0E94C303DF5FD530A9F705E013E0E8
:1009300089E5E82E82E0F82ED1E0F80181918F015F
:100940008C2339F0F70180819181FC01D6870E94C8
:10095000E104F2E0EF0EF11C83E00A30180769F7BA
:10096000DF91CF911F910F91FF90EF9008950E941A
:10097000970781110E94B807E0917001F091710111
:1009800080819181892B21F0809174010E947D09E1
:100990000C94E0080E94970781110E94B807E0912B
:1009A0007001F091710180819181892B21F08091FA
:1009B00074010E947D090C94C80881E080935F0354
:1009C0000895CF92DF92EF92FF920F931F93CF93F0
:1009D000DF93FC01A081B1810D90BC91A02D5496B4
:1009E0008D919C915597009709F445C04285538598
:1009F0006485758530E020E0EC01CA84DB84EC84FA
:100A0000FD844C155D056E057F0508F049C08C011D
:100A100013830283358324830115110519F0E8013E
:100A2000FD83EC832115310509F444C0E901FB8302
:100A3000EA835696CD91DC9157970A851B852C85C4
:100A40003D855096CD90DD90ED90FC9053970C1520
:100A50001D052E053F0598F5C416D506E606F706D2
:100A600028F0401751076207730788F45796FC93E4
:100A7000EE9356970CC05596FC93EE935497579669
:100A8000FC93EE9356971582148213821282DF91A3
:100A9000CF911F910F91FF90EF90DF90CF9008952D
:100AA000EC010A811B819C010115110509F4B0CFED
:100AB000C801A2CF5596FC93EE935497BACFC416B3
:100AC000D506E606F70668F2E2CFCF93DF93DC01A6
:100AD000ED91FC9111970190F081E02D8489958929
:100AE0001296CD91DC9113978A179B0711F4D58B41
:100AF000C48B868997898A179B0711F4D78BC68B7D
:100B0000209731F014968D919C9115979D838C833D
:100B100014960D90BC91A02D109721F01396DC93A4
:100B2000CE93129786899789892B21F48489958998
:100B3000978B868BDF91CF910895EF92FF920F9361
:100B40001F93CF93DF93FC0180915F03882309F407
:100B5000ACC084859585A685B7850196A11DB11D7C
:100B600084879587A687B787408151816281738189
:100B700084179507A607B70709F097C08089918960
:100B8000A289B3890196A11DB11D44815581668159
:100B90007781481759076A077B0718F480E090E0CF
:100BA000DC01808B918BA28BB38B14861586168605
:100BB0001786C689D789209709F477C04A855B854F
:100BC0006C857D85481759076A077B0709F06DC05A
:100BD000CE01DC011296ED90FC90E114F10469F075
:100BE000D7011A960D911D912D913C911D9740179B
:100BF00051076207730709F45FC02C813D812115FD
:100C0000310529F0D9011396FC92EE921297E11466
:100C1000F10429F0D70115963C932E93149724895B
:100C20003589C217D30711F4F58AE48AE114F10477
:100C300009F444C0F78AE68A8F01FC01138212820C
:100C4000EA80FB80E881F9810280F381E02DCE010A
:100C500009958E819F81A885B9850097A105B10569
:100C600091F14A855B856C857D85840F951FA61F54
:100C7000B71FF8014481558166817781481759076C
:100C80006A077B0740F44095509560957095840FF6
:100C9000951FA61FB71F8A879B87AC87BD87CE018C
:100CA0000E94E104E701209759F6DF91CF911F914F
:100CB0000F91FF90EF900895C7018BCF248935895C
:100CC000378B268BB9CF1E86EDCFFC0182810C9429
:100CD000C303EF92FF920F931F93CF93DF937C0197
:100CE0008B01FB01C285D385CB010A960E946A075E
:100CF000009711F1F8012585FC01D7011216C4F007
:100D0000F80185859881981B98839981890F89833B
:100D10009485891708F019828A81882379F01A82CC
:100D20008CE0DF91CF911F910F91FF90EF9008958C
:100D300081918D932150E2CF8DE0F3CF80E0F1CF10
:100D4000DA01109749F0ED91FC911197309721F05D
:100D5000AB01BC01CD01099481E0089581E00895C3
:100D6000EF92FF921F93CF93DF937B01DC011296EA
:100D7000CD91DC91209711F410E017C0EC81FD813A
:100D8000B701CE010995182F81110DC08881998175
:100D9000009721F40A80DB81C02DECCFDC01ED91BE
:100DA000FC910995F7CF8E30A9F380E00E942807C7
:100DB000812FDF91CF911F91FF90EF900895CF92F7
:100DC000DF92EF92FF920F931F93CF93DF93EC018B
:100DD0006B010A851B85E888F98848855985C70114
:100DE0000E94A006882391F1CE010A960E942E0748
:100DF000009739F12D85022E000C330BF601A70167
:100E0000BC01121613067CF0F80180819D85890FC4
:100E1000808380E0DF91CF911F910F91FF90EF9041
:100E2000DF90CF9008958191DA018D93AD01CF01CC
:100E30000197DC018C91DB018D93BD0121503109BB
:100E4000E0CF81E0D80112968C93E3CF8EE0E2CF21
:100E500080917D0181110C942A040895CF92DF9234
:100E6000EF92FF920F931F93FC01A081B1814C91EF
:100E700050E011968C919A01280F311D6901032EC3
:100E8000000CEE08FF080281602F70E0CB01841B8C
:100E9000950BAC018381082E000C990B481759075C
:100EA000B4F044815581C90110E030E020E0C01663
:100EB000D106E206F30610F0861B970B840F951FF0
:100EC0001F910F91FF90EF90DF90CF90089590E0E9
:100ED00080E0F6CFFC01A081B1818C91882349F09C
:100EE00011969C9124813581A901490F511DCA0198
:100EF000089590E080E008950E94970780916B012B
:100F0000089580936B010E9449040E94DD040C94B3
:100F100044040C94260FCF93C82F0E94EC02811139
:100F200002C00E94640F8C2FCF910C948C00809192
:100F30006C038130D9F08091640390916503A09196
:100F40006603B0916703892B8A2B8B2B79F481E0A0
:100F5000409168035091690360916A0370916B033B
:100F6000452B462B472B19F480E0089581E0089526
:100F700010926C03109268031092690310926A0336
:100F800010926B0310926403109265031092660333
:100F9000109267038091600390916103A0916203B6
:100FA000B091630380936D0390936E03A0936F03DE
:100FB000B093700308950E94670F80916D03909124
:100FC0006E03A0916F03B09170030196A11DB11D36
:100FD00080936D0390936E03A0936F03B09370039F
:100FE0008091680390916903A0916A03B0916B03AB
:100FF0000196A11DB11D8093680390936903A0938E
:101000006A03B0936B03089580916803909169031C
:10101000A0916A03B0916B030097A105B10569F136
:1010200040916D0350916E0360916F037091700356
:10103000415051096109710940936D0350936E034A
:1010400060936F03709370030197A109B1098093B6
:10105000680390936903A0936A03B0936B03809134
:101060006D0390916E03A0916F03B0917003892B73
:101070008A2B8B2B11F40C94650F089580916803D3
:1010800090916903A0916A03B0916B03892B8A2B1D
:101090008B2B89F48091640390916503A091660382
:1010A000B0916703892B8A2B8B2B29F40E94670F41
:1010B00081E080936C03089580916C03882321F074
:1010C00010926C030C94650F08950E946B0F809131
:1010D0006D0390916E03A0916F03B0917003019620
:1010E000A11DB11D80936D0390936E03A0936F03B8
:1010F000B09370038091640390916503A09166039F
:10110000B09167030196A11DB11D80936403909374
:101110006503A0936603B093670308958091640309
:1011200090916503A0916603B09167030097A105B4
:10113000B10569F140916D0350916E0360916F03A9
:1011400070917003415051096109710940936D0319
:1011500050936E0360936F03709370030197A1091E
:10116000B1098093640390936503A0936603B093E1
:10117000670380916D0390916E03A0916F03B0910E
:101180007003892B8A2B8B2B11F40C94690F089513
:101190000E949707882311F083E1089580E0089565
:1011A000CF93C82F0E9497078C2F0E94C303C82F8C
:1011B00080917D0181110E942A048C2FCF91089586
:1011C000CF930E949707C3E1811101C0C0E0E09175
:1011D0007001F09171018281815082830E94B3037A
:1011E00081E080937C010E94F4038C2FCF910895BD
:1011F000CF93C82F0E949707E0917001F091710181
:101200008281815082838C2F0E94C303C82F811159
:101210000AC00E94B30381E080937C010E94F40322
:101220008C2FCF910895E0917001F091710182812E
:101230008F5F8283F5CFCF930E949707C3E181111F
:1012400001C0C0E0809174010E9438030E942A040A
:101250008091740190917501A0917601B091770110
:10126000409178015091790160917A0170917B01F0
:1012700084179507A607B70711F40E940A038C2F5D
:10128000CF910895CF93DF93EC010E9497078823B5
:1012900091F083E140917401509175016091760164
:1012A00070917701453051056105710534F448832B
:1012B000DF91CF91089580E0EDCF90910502988362
:1012C000F7CF0F931F93CF93C82F8B010E949707DF
:1012D000882389F083E1EC2FEE0FFF0BE057FD4FE1
:1012E0000190F081E02D94819370F8019083CF916B
:1012F0001F910F91089580E0EECF880F990BFC01AC
:10130000E057FD4FA081B181ED91FC91119730978D
:1013100069F01D921C9220910502938184812283A1
:1013200014821382E92FF82F3097B9F70895CF93DD
:10133000C82F0E949707882381F183E1EC2FF0E00A
:10134000EE0FFF1FE450FD4F0190F081E02D9091D2
:1013500074019283A0917001B09171012D913C9123
:101360001197348323831196FC93EE9313969C91EB
:101370001397918320819695921768F430E0F901D4
:10138000E858FC4F908191509083220F331F917049
:10139000922B13969C93CF91089580E0CFCFCF935B
:1013A000DF93C82F0E949707D3E1811101C0D0E0DD
:1013B000EC2FF0E0EE0FFF1FE450FD4F0190F081A5
:1013C000E02DA0917001B0917101818113968C93F1
:1013D0001397838194818D939C93148213828091BF
:1013E000050282830E942A048D2FDF91CF910895F8
:1013F000DC01ED91FC9184819581DC01ED91FC9102
:1014000009941F93CF93DF93182FEB010E94970746
:10141000882361F183E1E12FF0E0EE0FFF1FE75A2F
:10142000FD4F0190F081E02D0190F081E02D0190C1
:10143000F081E02D40815181628173814C835D8315
:101440006E837F8344815581668177814883598388
:101450006A837B8340855185628573854887598778
:101460006A877B87DF91CF911F91089580E0D3CF6A
:101470008F929F92AF92BF92CF92DF92EF92FF92A4
:101480000F931F93CF93C82F8B010E949707882338
:10149000E9F183E1EC2FF0E0EE0FFF1FE75AFD4F7B
:1014A0000190F081E02D9685913091F5428553852C
:1014B000648575850190F081E02D0190F081E02D2B
:1014C000C088D188E288F3884C155D056E057F05DC
:1014D00040F484809580A680B780480D591D6A1D10
:1014E0007B1D4C195D096E097F09F801408351830A
:1014F00062837383CF911F910F91FF90EF90DF90E4
:10150000CF90BF90AF909F908F90089580E0C2CF12
:1015100085E0F0CF8F929F92AF92BF92CF92DF92F1
:10152000EF92FF920F931F93CF93DF93D82F6A010F
:101530007B01480159010E949707C3E1811101C055
:10154000C0E0ED2FF0E0EE0FFF1FE75AFD4F0190D6
:10155000F081E02D868581113DC0A081B1810D9083
:10156000BC91A02D50964D915D916D917C915397BA
:101570004C0D5D1D6E1D7F1D14968D919D910D90DE
:10158000BC91A02D84179507A607B70740F4481B08
:10159000590B6A0B7B0B4150510961097109428754
:1015A00053876487758786829782A086B18681E09B
:1015B0008687CF010E94E1048C2FDF91CF911F918C
:1015C0000F91FF90EF90DF90CF90BF90AF909F90E2
:1015D0008F900895C7E0F0CF8F929F92AF92BF9205
:1015E000CF92DF92EF92FF920F931F93CF93DF93EF
:1015F000C82F4A015B01680179010E949707D3E176
:10160000811101C0D0E0EC2FF0E0EE0FFF1FE75A90
:10161000FD4F0190F081E02D868581111BC08286EF
:101620009386A486B586C682D782E086F18681E05D
:101630008687CF010E94E1048D2FDF91CF911F910A
:101640000F91FF90EF90DF90CF90BF90AF909F9061
:101650008F900895D7E0F0CF0F931F93CF93DF9330
:10166000C82F0E949707D3E1811101C0D0E0EC2F71
:10167000F0E0EE0FFF1FE75AFD4F00811181F801E6
:101680008685813059F4C8010E946505F8011686E7
:101690008D2FDF91CF911F910F910895D5E0F8CF55
:1016A000CF93DF93880F991FFC01EB5BFD4F0190F7
:1016B000F081E02D8585882379F0C285D385CF011F
:1016C0000A960E946A07892B49F08A81882341F093
:1016D0008CE0DF91CF9108958AE0FBCF8DE0F9CFC8
:1016E00080E0F7CF880F991FFC01E15CFD4F8081FE
:1016F0009181DC01ED91FC9109949B01880F991F68
:10170000FC01EB5BFD4F60817181DB011696ED9171
:10171000FC91C9010994880F991FFC01E15CFD4F00
:1017200080819181DC01ED91FC9170E060E0099590
:1017300080E008956091770381E0682760937703E4
:101740008CE00C94FA0D26E040E052EC61E070E091
:1017500082E993E00E94351261E08CE00E94BE0DA8
:1017600064E670E080E090E00E94B10E66E072E016
:1017700082E993E00E94201080910F030C948B0764
:10178000CF93DF9300D0CDB7DEB71A821982BE01A6
:101790006F5F7F4F8091FE029091FF020E94E800F0
:1017A0000E949A0B0E94B4000F900F90DF91CF918E
:1017B00008958F929F92AF92BF92CF92DF92EF9255
:1017C000FF9228EF31E0DC010E94BC124B015C016A
:1017D000C12CD12C7601C814D904EA04FB0441F0D1
:1017E0000E94800E8FEFC81AD80AE80AF80AF3CFD1
:1017F000FF90EF90DF90CF90BF90AF909F908F9031
:101800000895CF92DF92EF92FF920F931F93CF93A1
:10181000DF9300D000D0CDB7DEB7809175039091F3
:101820007603019690937603809375031A8219824A
:1018300028EE33E0829F8001839F100D929F100D50
:1018400011240E94800E6B016FE072E082E993E048
:101850000E940D104AE050E0B60182E993E00E9438
:10186000D210E0900003F0900103BE016D5F7F4F46
:10187000C7010E94EC008B819C81892BB1F70E94EB
:101880009A0B63E172E082E993E00E94201080915C
:101890007503909176030197C9F587EC90E00E945B
:1018A000D90B0E94800E6B010617170794F566E1AD
:1018B00072E082E993E00E940D10B601601B710B8B
:1018C0004AE050E082E993E00E94CB106EE172E0C2
:1018D00082E993E00E942010BE016F5F7F4F8091EC
:1018E000FE029091FF020E94E8000E949A0B0E9463
:1018F000B4000F900F900F900F90DF91CF911F9138
:101900000F91FF90EF90DF90CF90089588EC90E0DA
:10191000C6CF6AE172E082E993E00E940D104AE0CE
:1019200050E0B60182E993E00E94D210CFCFCF926F
:10193000DF92EF92FF92CF93DF93809173039091A8
:101940007403019690937403809373032CED35E038
:10195000829FE001839FD00D929FD00D11240E94A1
:10196000800E6B0161E272E082E993E00E940D104B
:101970004AE050E0B60182E993E00E94D2108AEB7F
:1019800092E00E94D90B0E94800E6B01C617D70708
:10199000BCF465E272E082E993E00E940D10B601AA
:1019A0006C1B7D0B4AE050E082E993E00E94CB1073
:1019B000DF91CF91FF90EF90DF90CF900C94B40027
:1019C00069E272E082E993E00E940D104AE050E083
:1019D000B60182E993E00E94D210EACFCF92DF9263
:1019E000EF92FF920F931F93CF93DF9300D000D01D
:1019F000CDB7DEB7809171039091720301969093F9
:101A00007203809371031A82198220EF3AE0829F59
:101A10008001839F100D929F100D11240E94800E53
:101A20006B016DE272E082E993E00E940D104AE0E2
:101A300050E0B60182E993E00E94D21083E690E084
:101A40000E94D90BE0900003F0900103BE016D5F8E
:101A50007F4FC7010E94EC008B819C81892BB1F7DD
:101A60000E949A0B61E372E082E993E00E942010E9
:101A700088EC90E00E94D90B0E94800E6B01061743
:101A800017077CF564E372E082E993E00E940D1091
:101A9000B601601B710B4AE050E082E993E00E94BE
:101AA000CB106CE372E082E993E00E942010BE014B
:101AB0006F5F7F4F8091FE029091FF020E94E800CD
:101AC0000E949A0B0E94B4000F900F900F900F90FD
:101AD000DF91CF911F910F91FF90EF90DF90CF900A
:101AE000089568E372E082E993E00E940D104AE0F5
:101AF00050E0B60182E993E00E94D210D2CF8091EB
:101B000004030E94E400809103030E94E40080919A
:101B100002030E94E40080E00E9490000C94B40054
:101B200084EE91E00C9435010895833081F028F41F
:101B3000813099F08230A9F008958730A9F088307B
:101B4000C9F08430B1F4809180008F7D03C0809112
:101B500080008F7780938000089584B58F7784BD4F
:101B6000089584B58F7DFBCF8091B0008F778093EF
:101B7000B00008958091B0008F7DF9CFCF93DF93AF
:101B800090E0FC01E458FF4F249180579F4FFC01E7
:101B900084918823C9F090E0880F991FFC01E255D9
:101BA000FF4FA591B491FC01EC55FF4FC591D49125
:101BB00061110DC09FB7F8948C91209582238C936E
:101BC0008881282328839FBFDF91CF9108956230B9
:101BD00051F49FB7F8943C91822F809583238C9386
:101BE000E8812E2BEFCF8FB7F894EC912E2B2C930E
:101BF0008FBFEACF1F93CF93DF93282F30E0F901F7
:101C0000E859FF4F8491F901E458FF4FD491F9014D
:101C1000E057FF4FC491CC23A9F0162F81110E94E9
:101C2000950DEC2FF0E0EE0FFF1FEC55FF4FA59147
:101C3000B4918FB7F894EC91111108C0D095DE23C0
:101C4000DC938FBFDF91CF911F910895DE2BF8CFEA
:101C50001F920F920FB60F9211242F933F934F9321
:101C60005F936F937F938F939F93AF93BF93EF9304
:101C7000FF938091890390918A03A0918B03B09187
:101C80008C033091880323E0230F2D3798F50196BC
:101C9000A11DB11D209388038093890390938A032B
:101CA000A0938B03B0938C0380918D0390918E034E
:101CB000A0918F03B09190030196A11DB11D809357
:101CC0008D0390938E03A0938F03B09390030E9493
:101CD000900DFF91EF91BF91AF919F918F917F9167
:101CE0006F915F914F913F912F910F900FBE0F9089
:101CF0001F90189526E8230F0296A11DB11DCACF8B
:101D00002FB7F8946091890370918A0380918B03B7
:101D100090918C032FBF08953FB7F89480918D0365
:101D200090918E03A0918F03B091900326B5A89B4C
:101D300005C02F3F19F00196A11DB11D3FBFBA2F5D
:101D4000A92F982F8827BC01CD01620F711D811D1D
:101D5000911D42E0660F771F881F991F4A95D1F7A2
:101D600008958F929F92AF92BF92CF92DF92EF929F
:101D7000FF926B017C010E948C0E4B015C01C1142F
:101D8000D104E104F104E9F00E94240F0E948C0EBA
:101D9000681979098A099B09683E73408105910594
:101DA00070F321E0C21AD108E108F10888EE880E2C
:101DB00083E0981EA11CB11CC114D104E104F104FC
:101DC00029F7FF90EF90DF90CF90BF90AF909F905A
:101DD0008F90089584B5826084BD84B5816084BD90
:101DE00085B5826085BD85B5816085BDEEE6F0E094
:101DF000808181608083E1E8F0E0108280818260F0
:101E00008083808181608083E0E8F0E08081816070
:101E10008083E1EBF0E0808184608083E0EBF0E0A0
:101E2000808181608083EAE7F0E080818460808344
:101E300080818260808380818160808380818068EE
:101E400080831092C10008950895FFCFFFCFCF93F4
:101E5000DF93880F990BFC01E456FD4FC081D181BF
:101E6000EC81FD8131978A819B81E80FF91F8D8577
:101E7000DF011197823029F58CEA90E080839C93F2
:101E80009E818F81DF0112979C9311978C93CF01D4
:101E900004979F01295031091E92A217B307E1F759
:101EA00020E8DF011A972C9342971E92A817B907D2
:101EB000E1F7A881B9817797ED93FC93DF91CF91FA
:101EC000089588EC90E0DACF089578940895F89416
:101ED000089578940895F894089508950E94EA0E5C
:101EE0000E946D0F0E94940D0E94A30B809191039C
:101EF0000E948B0790E080E0089580910F0380930B
:101F00009103089508951F920F920FB60F92112416
:101F10002F933F934F935F936F937F938F939F93F1
:101F2000AF93BF93EF93FF93E0910102F091020210
:101F30000995FF91EF91BF91AF919F918F917F9103
:101F40006F915F914F913F912F910F900FBE0F9026
:101F50001F9018951F920F920FB60F9211242F9376
:101F60003F934F935F936F937F938F939F93AF9321
:101F7000BF93EF93FF93E0910302F0910402099560
:101F8000FF91EF91BF91AF919F918F917F916F9151
:101F90005F914F913F912F910F900FBE0F901F9027
:101FA0001895AF92BF92CF92DF92EF92FF920F936C
:101FB0001F93CF93DF936C017B018B01040F151FDF
:101FC000EB015E01AE18BF08C017D10759F0699147
:101FD000D601ED91FC910190F081E02DC6010995AB
:101FE000892B79F7C501DF91CF911F910F91FF9058
:101FF000EF90DF90CF90BF90AF900895FB010190DC
:102000000020E9F73197AF01461B570BDC01ED913A
:10201000FC910280F381E02D09946115710511F0A6
:102020000C94FE0F90E080E00895DC01ED91FC91AE
:102030000190F081E02D099468E473E00C94FE0FA8
:102040000F931F93CF93DF938C01D0E0C0E0611515
:10205000710519F00E94FE0FEC01C8010E941C10CE
:102060008C0F9D1FDF91CF911F910F9108958F923B
:102070009F92AF92BF92EF92FF920F931F93CF93D5
:10208000DF93CDB7DEB7A1970FB6F894DEBF0FBED2
:10209000CDBF7C01FA01CB0119A2223008F42AE05D
:1020A0008E010F5D1F4F822E912CB12CA12CBF01F0
:1020B000A50194010E949A12F901CA016A300CF537
:1020C000605DD8016E938D01232B242B252B79F78E
:1020D00090E080E0109721F0BD01C7010E94FE0F43
:1020E000A1960FB6F894DEBF0FBECDBFDF91CF91A2
:1020F0001F910F91FF90EF90BF90AF909F908F90A6
:102100000895695CDECFCF92DF92EF92FF920F933A
:102110001F93CF93DF932115310581F4DC01ED91FD
:10212000FC910190F081E02D642FDF91CF911F9100
:102130000F91FF90EF90DF90CF9009942A303105F6
:1021400001F52AE077FF1DC06A017B01EC016DE219
:102150000E9415108C0144275527BA014C195D09BE
:102160006E097F092AE0CE010E943710800F911F6F
:10217000DF91CF911F910F91FF90EF90DF90CF9063
:102180000895DF91CF911F910F91FF90EF90DF9015
:10219000CF900C9437109A01AB01770F660B770B39
:1021A0000C9483100F931F93CF93DF93EC010E9445
:1021B000CB108C01CE010E941C10800F911FDF916B
:1021C000CF911F910F9108951F920F920FB60F920A
:1021D00011242F938F939F93EF93FF93E091A2038A
:1021E000F091A3038081E091A803F091A90382FDFF
:1021F0001BC090818091AB038F5F8F732091AC03E4
:10220000821741F0E091AB03F0E0EE56FC4F958F62
:102210008093AB03FF91EF919F918F912F910F903E
:102220000FBE0F901F9018958081F4CF1F920F92D0
:102230000FB60F9211242F933F934F935F936F9399
:102240007F938F939F93AF93BF93EF93FF9382E915
:1022500093E00E94A611FF91EF91BF91AF919F91E2
:102260008F917F916F915F914F913F912F910F903F
:102270000FBE0F901F901895E2E9F3E013821282CF
:1022800088EE93E0A0E0B0E084839583A683B783D3
:102290008FE493E09183808385EC90E09587848739
:1022A00084EC90E09787868780EC90E0918B808B20
:1022B00081EC90E0938B828B82EC90E0958B848B09
:1022C00086EC90E0978B868B118E128E138E148E77
:1022D0000895FC01918D228D892F90E0805C9F4FA5
:1022E000821B91098F7399270895FC01918D828D2E
:1022F000981731F0828DE80FF11D858D90E00895DB
:102300008FEF9FEF0895FC01918D828D981761F0FA
:10231000A28DAE0FBF2FB11D5D968C91928D9F5FE8
:102320009F73928F90E008958FEF9FEF0895FC01C7
:10233000538D448D252F30E0842F90E0821B930B2A
:10234000541710F0CF96089501970895FC01A48DBD
:10235000A80FB92FB11DA35ABF4F2C91848D90E0C7
:1023600001968F739927848FA689B7892C93A089AA
:10237000B1898C91837080648C93938D848D981334
:1023800006C00288F389E02D80818F7D80830895C7
:10239000CF93DF93EC01888D8823B9F0AA89BB899C
:1023A000E889F9898C9185FD03C0808186FD0DC087
:1023B0000FB607FCF7CF8C9185FFF2CF808185FFA8
:1023C000EDCFCE010E94A611E9CFDF91CF91089504
:1023D000EF92FF920F931F93CF93DF93EC0181E075
:1023E000888F9B8D8C8D98131AC0E889F98980811C
:1023F00085FF15C09FB7F894EE89FF896083E8894F
:10240000F98980818370806480839FBF81E090E040
:10241000DF91CF911F910F91FF90EF900895F62ECD
:102420000B8D10E00F5F1F4F0F731127E02E8C8D67
:102430008E110CC00FB607FCFACFE889F9898081AC
:1024400085FFF5CFCE010E94A611F1CFEB8DEC0FE9
:10245000FD2FF11DE35AFF4FF0829FB7F8940B8FC9
:10246000EA89FB8980818062CFCFCF92DF92EF92A1
:10247000FF921F93CF93DF93EC016A017B01122F30
:10248000E889F98982E08083C11481EED806E104ED
:10249000F104A1F060E079E08DE390E0A7019601FE
:1024A0000E949A12215031094109510956954795C8
:1024B00037952795211580E1380798F0E889F98943
:1024C000108260E874E88EE190E0A70196010E9416
:1024D0009A1221503109410951095695479537956E
:1024E0002795EC85FD853083EE85FF852083188E4A
:1024F000EC89FD891083EA89FB8980818061808372
:10250000EA89FB89808188608083EA89FB898081F0
:1025100080688083EA89FB8980818F7D8083DF9159
:10252000CF911F91FF90EF90DF90CF900895F89496
:102530000C94D812A1E21A2EAA1BBB1BFD010DC0E0
:10254000AA1FBB1FEE1FFF1FA217B307E407F50763
:1025500020F0A21BB30BE40BF50B661F771F881F3F
:10256000991F1A9469F760957095809590959B01D5
:10257000AC01BD01CF0108950E94C912B7FF0895B3
:10258000821B930B0895EE0FFF1F0590F491E02D31
:102590000994A29FB001B39FC001A39F700D811D3C
:1025A0001124911DB29F700D811D1124911D08955C
:0425B000F894FFCFCD
:1025B4000000000000000000000000000000000017
:1025C4000000000000000000000000000000000007
:1025D40000000000000000000000000000000000F7
:1025E40000000000000000000000000000000000E7
:1025F40000000000000000000000000000000000D7
:1026040000000000000000000000000000000000C6
:102614000000000000000000070000FF0000EE02C0
:1026240000008303FFFFFFFFFFFFFFFF0000AE0674
:102634006302000000000000000060EA0000026C79
:10264400020000000000000000010000000275020A
:1026540000000000AE0A0000AE0A0000027E020084
:10266400000000B9050000B905000002870200005F
:102674000000D1030000D1030000020000000600A6
:102684000000000404000000030400000002040031
:102694000000010401000000FFFF00000100000031
:1026A4000000000000000000000000000700FF0020
:1026B40000820F820FFF53746172742E2E2E0073EA
:1026C4004120006341006D412000664120007241B9
:1026D40000734220006D42200066422000734320B4
:1026E400006343006D4320006643200072430041B1
:1026F40002B0064702470200000000DF0669067EBA
:1027040001800302029B061D07BC01AD019E018FDF
:10271400018001E401F8096902650604E401F8098D
:102724007202650603E401F8097B02650600E40110
:10273400F8098402650601E401F8098D02650602C0
:10274400DF01DA01D501D001CB018303E002D2021B
:10275400C402B602A802EE0237041B0680007F0DF5
:1027640000000406010033044B058000C00B68011F
:10277400030401003104CB048000010C00000203B7
:1027840001002F0449048000970C0000010201009D
:1027940035049D068000EE0C000000010100C90410
:1027A400CB055000250F000005000100FC010000CE
:1027B4000000020100010101010101010101000009
:1027C4008E085C0865083E08CA04DB07B7040408E1
:1027D4001B09CF098907010AD008380AF8088A0AB0
:1027E4004209EC0A81072C0B7C07720B500B7D0B02
:1027F40097098B0B6109E0080D0A0000000000E84E
:0E28040011D10F9711C81169118311751100C0
:00000001FF
